{
  "address": "0xFd1d18173D2f179a45Bf21F755a261AAe7C2d769",
  "abi": [
    {
      "inputs": [
        {
          "internalType": "contract IWETH",
          "name": "weth",
          "type": "address"
        },
        {
          "internalType": "address",
          "name": "limitOrderProtocol",
          "type": "address"
        },
        {
          "internalType": "contract IERC20",
          "name": "accessToken",
          "type": "address"
        },
        {
          "internalType": "uint256",
          "name": "cancellationDelay",
          "type": "uint256"
        },
        {
          "internalType": "string",
          "name": "name",
          "type": "string"
        },
        {
          "internalType": "string",
          "name": "version",
          "type": "string"
        }
      ],
      "stateMutability": "nonpayable",
      "type": "constructor"
    },
    {
      "inputs": [],
      "name": "ETHTransferFailed",
      "type": "error"
    },
    {
      "inputs": [],
      "name": "FailedDeployment",
      "type": "error"
    },
    {
      "inputs": [
        {
          "internalType": "uint256",
          "name": "balance",
          "type": "uint256"
        },
        {
          "internalType": "uint256",
          "name": "needed",
          "type": "uint256"
        }
      ],
      "name": "InsufficientBalance",
      "type": "error"
    },
    {
      "inputs": [
        {
          "internalType": "address",
          "name": "expected",
          "type": "address"
        },
        {
          "internalType": "address",
          "name": "actual",
          "type": "address"
        }
      ],
      "name": "OrderMakerShouldBeMsgSender",
      "type": "error"
    },
    {
      "inputs": [
        {
          "internalType": "uint256",
          "name": "expected",
          "type": "uint256"
        },
        {
          "internalType": "uint256",
          "name": "actual",
          "type": "uint256"
        }
      ],
      "name": "OrderMakingAmountShouldBeEqualToMsgValue",
      "type": "error"
    },
    {
      "inputs": [
        {
          "internalType": "address",
          "name": "receiver",
          "type": "address"
        }
      ],
      "name": "OrderReceiverShouldBeSetCorrectly",
      "type": "error"
    },
    {
      "inputs": [
        {
          "internalType": "address",
          "name": "owner",
          "type": "address"
        }
      ],
      "name": "OwnableInvalidOwner",
      "type": "error"
    },
    {
      "inputs": [
        {
          "internalType": "address",
          "name": "account",
          "type": "address"
        }
      ],
      "name": "OwnableUnauthorizedAccount",
      "type": "error"
    },
    {
      "inputs": [],
      "name": "SafeTransferFailed",
      "type": "error"
    },
    {
      "anonymous": false,
      "inputs": [
        {
          "indexed": false,
          "internalType": "address",
          "name": "maker",
          "type": "address"
        },
        {
          "indexed": false,
          "internalType": "bytes32",
          "name": "orderHash",
          "type": "bytes32"
        },
        {
          "indexed": false,
          "internalType": "address",
          "name": "clone",
          "type": "address"
        },
        {
          "indexed": false,
          "internalType": "uint256",
          "name": "value",
          "type": "uint256"
        }
      ],
      "name": "NativeOrderCreated",
      "type": "event"
    },
    {
      "anonymous": false,
      "inputs": [
        {
          "indexed": true,
          "internalType": "address",
          "name": "previousOwner",
          "type": "address"
        },
        {
          "indexed": true,
          "internalType": "address",
          "name": "newOwner",
          "type": "address"
        }
      ],
      "name": "OwnershipTransferred",
      "type": "event"
    },
    {
      "inputs": [],
      "name": "IMPLEMENTATION",
      "outputs": [
        {
          "internalType": "address",
          "name": "",
          "type": "address"
        }
      ],
      "stateMutability": "view",
      "type": "function"
    },
    {
      "inputs": [
        {
          "components": [
            {
              "internalType": "uint256",
              "name": "salt",
              "type": "uint256"
            },
            {
              "internalType": "Address",
              "name": "maker",
              "type": "uint256"
            },
            {
              "internalType": "Address",
              "name": "receiver",
              "type": "uint256"
            },
            {
              "internalType": "Address",
              "name": "makerAsset",
              "type": "uint256"
            },
            {
              "internalType": "Address",
              "name": "takerAsset",
              "type": "uint256"
            },
            {
              "internalType": "uint256",
              "name": "makingAmount",
              "type": "uint256"
            },
            {
              "internalType": "uint256",
              "name": "takingAmount",
              "type": "uint256"
            },
            {
              "internalType": "MakerTraits",
              "name": "makerTraits",
              "type": "uint256"
            }
          ],
          "internalType": "struct IOrderMixin.Order",
          "name": "makerOrder",
          "type": "tuple"
        }
      ],
      "name": "create",
      "outputs": [
        {
          "internalType": "address",
          "name": "clone",
          "type": "address"
        }
      ],
      "stateMutability": "payable",
      "type": "function"
    },
    {
      "inputs": [],
      "name": "owner",
      "outputs": [
        {
          "internalType": "address",
          "name": "",
          "type": "address"
        }
      ],
      "stateMutability": "view",
      "type": "function"
    },
    {
      "inputs": [],
      "name": "renounceOwnership",
      "outputs": [],
      "stateMutability": "nonpayable",
      "type": "function"
    },
    {
      "inputs": [
        {
          "internalType": "address",
          "name": "token",
          "type": "address"
        },
        {
          "internalType": "address",
          "name": "to",
          "type": "address"
        },
        {
          "internalType": "uint256",
          "name": "amount",
          "type": "uint256"
        }
      ],
      "name": "rescueFunds",
      "outputs": [],
      "stateMutability": "nonpayable",
      "type": "function"
    },
    {
      "inputs": [
        {
          "internalType": "address",
          "name": "newOwner",
          "type": "address"
        }
      ],
      "name": "transferOwnership",
      "outputs": [],
      "stateMutability": "nonpayable",
      "type": "function"
    }
  ],
  "transactionHash": "0x816d0e298a2205221a18ac89fec2d3e747fed006ae8224f85eda96b5a440857e",
  "args": [
    "0x5AEa5775959fBC2557Cc8789bC1bf90A239D9a91",
    "0x6fd4383cB451173D5f9304F041C7BCBf27d561fF",
    "0x4888651051B2Dc08Ac55Cd0f7D671e0FCba0DEED",
    60,
    "1inch Aggregation Router",
    "6"
  ],
  "numDeployments": 1,
  "solcInputHash": "c8a1b971fe12e33a5a4f56fbc4f89935",
  "bytecode": "0x6101608060405234610287576123e8803803809161001d828561028c565b833981019060c0818303126102875780516001600160a01b038116908190036102875760208201516001600160a01b03811692908381036102875760408201516001600160a01b038116929083900361028757606081015160808201519091906001600160401b03811161028757876100979183016102d2565b60a08201519097906001600160401b038111610287576100b792016102d2565b9133156102715760008054336001600160a01b03198216811783556040519290916001600160a01b0316907f8be0079c531659141344cd1fd0a4f28419497f9722a3daafe3b4186f6b6457e09080a387516020890120918451602086012090610120528260c0528060e0524660a05260208201926000805160206123c88339815191528452604083015260608201524660808201528660a082015260a0815261016160c08261028c565b5190206080526000805160206123c883398151915261010052604051956115bf808801949092906001600160401b0386118987101761025b5788976101df976101d195610e098b39875230602088015260408701526060860152608085015260e060a085015260e0840190610326565b9160c0818403910152610326565b03906000f0801561024f576001600160a01b031661014052604051610abd908161034c823960805181610997015260a05181610971015260c051816109e6015260e05181610a0c015261010051816109c301526101205181610a4d0152610140518181816102c2015261085f0152f35b6040513d6000823e3d90fd5b634e487b7160e01b600052604160045260246000fd5b631e4fbdf760e01b600052600060045260246000fd5b600080fd5b601f909101601f19168101906001600160401b0382119082101761025b57604052565b60005b8381106102c25750506000910152565b81810151838201526020016102b2565b81601f820112156102875780516001600160401b03811161025b5760405192610305601f8301601f19166020018561028c565b818452602082840101116102875761032391602080850191016102af565b90565b9060209161033f815180928185528580860191016102af565b601f01601f191601019056fe608080604052600436101561001357600080fd5b600090813560e01c9081633a4741bd14610815575080636ccae05414610632578063715018a6146105965780638c72b608146101a45780638da5cb5b146101535763f2fde38b1461006357600080fd5b346101505760207ffffffffffffffffffffffffffffffffffffffffffffffffffffffffffffffffc3601126101505773ffffffffffffffffffffffffffffffffffffffff6100af610887565b6100b761091f565b1680156101245773ffffffffffffffffffffffffffffffffffffffff8254827fffffffffffffffffffffffff00000000000000000000000000000000000000008216178455167f8be0079c531659141344cd1fd0a4f28419497f9722a3daafe3b4186f6b6457e08380a380f35b6024827f1e4fbdf700000000000000000000000000000000000000000000000000000000815280600452fd5b80fd5b503461015057807ffffffffffffffffffffffffffffffffffffffffffffffffffffffffffffffffc3601126101505773ffffffffffffffffffffffffffffffffffffffff6020915416604051908152f35b506101007ffffffffffffffffffffffffffffffffffffffffffffffffffffffffffffffffc3601126101505773ffffffffffffffffffffffffffffffffffffffff60243516338103610567575060443573ffffffffffffffffffffffffffffffffffffffff81168015801561055e575b610533575060a4358034036105045773ffffffffffffffffffffffffffffffffffffffff6102b061024361096e565b6101206040517f3af21ec5a20011b88d3b7b4ed7c806cef05a5980cf34974bcd53566a131f7e4c8152610100600460208301372090604291604051917f19010000000000000000000000000000000000000000000000000000000000008352600283015260228201522090565b6e5af43d82803e903d91602b57fd5bf37f0000000000000000000000000000000000000000000000000000000000000000763d602d80600a3d3981f3363d3d373d3d3d363d7300000062ffffff8260881c1617875260781b176020526037600986f5169182156104dc57823b156104d8576040517f501016d5000000000000000000000000000000000000000000000000000000008152848160048134885af180156104cd576104b9575b506040519361010085019085821067ffffffffffffffff83111761048c57506020947f283d7294adf3707552a0898f20486ec8259aa76a7911d7e12229462afe5d32689360809361046c936040526004358352604083015260643560608301526084358483015260a082015260c43560c082015260e43560e082015284868201527fffffffffffffffffffffffffffffffffffffffffffffffffffffffffffffffe061040561096e565b91019081517f3af21ec5a20011b88d3b7b4ed7c806cef05a5980cf34974bcd53566a131f7e4c835261012083209252604291604051917f19010000000000000000000000000000000000000000000000000000000000008352600283015260228201522090565b6040519033825285820152836040820152346060820152a1604051908152f35b807f4e487b7100000000000000000000000000000000000000000000000000000000602492526041600452fd5b846104c6919592956108af565b923861035b565b6040513d87823e3d90fd5b8380fd5b6004847fb06ebf3d000000000000000000000000000000000000000000000000000000008152fd5b7fa486415200000000000000000000000000000000000000000000000000000000835260045234602452604482fd5b7ffa4f3704000000000000000000000000000000000000000000000000000000008352600452602482fd5b50308114610214565b7f8b022b8300000000000000000000000000000000000000000000000000000000825233600452602452604490fd5b503461015057807ffffffffffffffffffffffffffffffffffffffffffffffffffffffffffffffffc360112610150576105cd61091f565b8073ffffffffffffffffffffffffffffffffffffffff81547fffffffffffffffffffffffff000000000000000000000000000000000000000081168355167f8be0079c531659141344cd1fd0a4f28419497f9722a3daafe3b4186f6b6457e08280a380f35b50346101505760607ffffffffffffffffffffffffffffffffffffffffffffffffffffffffffffffffc360112610150578061066b610887565b60243573ffffffffffffffffffffffffffffffffffffffff8116908181036108105773ffffffffffffffffffffffffffffffffffffffff604435936106ae61091f565b16908161077657505082809281925af13d15610771573d67ffffffffffffffff8111610744576040519061070a60207fffffffffffffffffffffffffffffffffffffffffffffffffffffffffffffffe0601f84011601836108af565b81528260203d92013e5b1561071c5780f35b807fb12d13eb0000000000000000000000000000000000000000000000000000000060049252fd5b6024837f4e487b710000000000000000000000000000000000000000000000000000000081526041600452fd5b610714565b8492506020936044929550604051917fa9059cbb0000000000000000000000000000000000000000000000000000000083526004830152602482015282855af190816107ee575b50156107c65780f35b807ffb7f50790000000000000000000000000000000000000000000000000000000060049252fd5b90503d1561080857506001815114601f3d11165b386107bd565b3b1515610802565b505050fd5b90503461088357817ffffffffffffffffffffffffffffffffffffffffffffffffffffffffffffffffc3601126108835760209073ffffffffffffffffffffffffffffffffffffffff7f0000000000000000000000000000000000000000000000000000000000000000168152f35b5080fd5b6004359073ffffffffffffffffffffffffffffffffffffffff821682036108aa57565b600080fd5b90601f7fffffffffffffffffffffffffffffffffffffffffffffffffffffffffffffffe0910116810190811067ffffffffffffffff8211176108f057604052565b7f4e487b7100000000000000000000000000000000000000000000000000000000600052604160045260246000fd5b73ffffffffffffffffffffffffffffffffffffffff60005416330361094057565b7f118cdaa7000000000000000000000000000000000000000000000000000000006000523360045260246000fd5b467f0000000000000000000000000000000000000000000000000000000000000000036109b9577f000000000000000000000000000000000000000000000000000000000000000090565b60405160208101907f000000000000000000000000000000000000000000000000000000000000000082527f000000000000000000000000000000000000000000000000000000000000000060408201527f0000000000000000000000000000000000000000000000000000000000000000606082015246608082015273ffffffffffffffffffffffffffffffffffffffff7f00000000000000000000000000000000000000000000000000000000000000001660a082015260a08152610a8160c0826108af565b5190209056fea26469706673582212207e28dd5922775b7312710c46618156425379cad29055a89dd23f3224b1f198f364736f6c634300081e00336102208060405234610204576115bf803803809161001d8285610209565b8339810160e0828203126102045781516001600160a01b0381168082036102045761004a60208501610242565b9161005760408601610242565b6060860151949092906001600160a01b038616860361020457608087015160a08801519097906001600160401b0381116102045782610097918301610256565b60c08201519092906001600160401b038111610204576100b79201610256565b9060208151910120906020815191012084610120528160c0528060e0524660a05260405190602082019260008051602061159f83398151915284526040830152606082015246608082015260018060a01b03851660a082015260a0815261011f60c082610209565b51902060805260008051602061159f8339815191526101005261014052306101a05261016052610180526101c0526101e052610200526040516112d990816102c682396080518161114d015260a05181611127015260c0518161119c015260e051816111c201526101005181611179015261012051816112030152610140518160300152610160518181816103190152818161051d01526108230152610180518161038301526101a051818181610e02015261103501526101c0518181816102f001528181610dc60152610ff901526101e05181610741015261020051816109c90152f35b600080fd5b601f909101601f19168101906001600160401b0382119082101761022c57604052565b634e487b7160e01b600052604160045260246000fd5b51906001600160a01b038216820361020457565b81601f82011215610204578051906001600160401b03821161022c576040519261028a601f8401601f191660200185610209565b828452602083830101116102045760005b8281106102b057505060206000918301015290565b8060208092840101518282870101520161029b56fe60806040526004361015610082575b361561001957600080fd5b73ffffffffffffffffffffffffffffffffffffffff7f000000000000000000000000000000000000000000000000000000000000000016330361005857005b7f1b10b0f90000000000000000000000000000000000000000000000000000000060005260046000fd5b60003560e01c80631626ba7e14610b4a5780631b75972c146106ed5780633a091853146104a3578063501016d5146102af5763dae3356b0361000e57346102aa577ffffffffffffffffffffffffffffffffffffffffffffffffffffffffffffffffc360161016081126102aa57610100136102aa576101043573ffffffffffffffffffffffffffffffffffffffff811681036102aa57610144359067ffffffffffffffff82116102aa57366023830112156102aa57816004013561014581610c7e565b906101536040519283610c3d565b808252602082019336602483830101116102aa578160009260246020930187378301015273ffffffffffffffffffffffffffffffffffffffff610194610f62565b16308103610279575073ffffffffffffffffffffffffffffffffffffffff6024351680330361024857600080848685519161012435905af16101d4610f32565b6040519115158252604060208301528181519182604083015260005b8381106102305750507fffffffffffffffffffffffffffffffffffffffffffffffffffffffffffffffe0601f836000606080968601015201168101030190f35b602082820181015160608784010152859350016101f0565b7f99516c0e000000000000000000000000000000000000000000000000000000006000523360045260245260446000fd5b7f41b9adfc000000000000000000000000000000000000000000000000000000006000526004523060245260446000fd5b600080fd5b60007ffffffffffffffffffffffffffffffffffffffffffffffffffffffffffffffffc3601126102aa5773ffffffffffffffffffffffffffffffffffffffff7f000000000000000000000000000000000000000000000000000000000000000016803303610472577f00000000000000000000000000000000000000000000000000000000000000007fd0e30db00000000000000000000000000000000000000000000000000000000060005260008060048134855af1156104665773ffffffffffffffffffffffffffffffffffffffff167f0000000000000000000000000000000000000000000000000000000000000000906103ae34838361123d565b156103b557005b6020600060446040517f095ea7b300000000000000000000000000000000000000000000000000000000815285600482015282602482015282855af180610446575b15918215610432575b505061040857005b7f19be9a900000000000000000000000000000000000000000000000000000000060005260046000fd5b61043e9250349161123d565b158180610400565b503d1561045d57600160005114601f3d11166103f7565b803b15156103f7565b6040513d6000823e3d90fd5b7f1f71d67d000000000000000000000000000000000000000000000000000000006000523360045260245260446000fd5b346102aa576101007ffffffffffffffffffffffffffffffffffffffffffffffffffffffffffffffffc3601126102aa57600073ffffffffffffffffffffffffffffffffffffffff602435168033036106be5773ffffffffffffffffffffffffffffffffffffffff610512610f62565b1630810361068f57507f0000000000000000000000000000000000000000000000000000000000000000907f70a082310000000000000000000000000000000000000000000000000000000083523060045260208360248173ffffffffffffffffffffffffffffffffffffffff86165afa835192901560203d101761068457821561065c579083806024818080967f2e1a7d4d000000000000000000000000000000000000000000000000000000008252886004525af11561064f5781808481935af16105dd610f32565b50156106275760407f84d669b9ea8666709ee6bd1b617534aac0106acfa94c9364a322a36b5a6362eb9161061861061336610cb8565b611087565b9082519182526020820152a180f35b6004827fb12d13eb000000000000000000000000000000000000000000000000000000008152fd5b50604051903d90823e3d90fd5b6004847fce268e60000000000000000000000000000000000000000000000000000000008152fd5b6040513d85823e3d90fd5b7f41b9adfc00000000000000000000000000000000000000000000000000000000835260045230602452604482fd5b7f99516c0e00000000000000000000000000000000000000000000000000000000825233600452602452604490fd5b346102aa577ffffffffffffffffffffffffffffffffffffffffffffffffffffffffffffffffc360161012081126102aa57610100136102aa576101043573ffffffffffffffffffffffffffffffffffffffff7f0000000000000000000000000000000000000000000000000000000000000000166040517f70a08231000000000000000000000000000000000000000000000000000000008152336004820152602081602481855afa90811561046657600091610b18575b5015610ae7575073ffffffffffffffffffffffffffffffffffffffff6107c9610f62565b16308103610279575064ffffffffff60e43560501c1680151580610ade575b15610aad57600090826109bc575b507f70a08231000000000000000000000000000000000000000000000000000000006000908152306004527f0000000000000000000000000000000000000000000000000000000000000000925060208160248173ffffffffffffffffffffffffffffffffffffffff87165afa815191901560203d10176109b05750809281156109865760006024818080947f2e1a7d4d000000000000000000000000000000000000000000000000000000008252866004525af115610466578161095b575b5081610902575b7f22770c588cf5c5f476664dc9b7c78816ad26f3d653e290d5a4f0053f015ae9ea916060916108ee61061336610cb8565b9160405192835260208301526040820152a1005b60008080808573ffffffffffffffffffffffffffffffffffffffff602435165af161092b610f32565b506108bd575b7fb12d13eb0000000000000000000000000000000000000000000000000000000060005260046000fd5b8192509061096891610ef6565b90600080808084335af161097a610f32565b501561093157826108b6565b7fce268e600000000000000000000000000000000000000000000000000000000060005260046000fd5b604051903d90823e3d90fd5b6109c68142610ef6565b907f0000000000000000000000000000000000000000000000000000000000000000809210610a7457505062011170480290488204620111701448151715610a475769104e2da94483f6200000480291808304670f43fc2c04ee00001490151715610a475750670de0b6b3a7640000900490818082109118021880826107f6565b807f4e487b7100000000000000000000000000000000000000000000000000000000602492526011600452fd5b60449350610a829042610ef6565b7f2e00a366000000000000000000000000000000000000000000000000000000008352600452602452fd5b7ff0c82d23000000000000000000000000000000000000000000000000000000006000524260045260245260446000fd5b504281106107e8565b7fd3445e80000000000000000000000000000000000000000000000000000000006000523360045260245260446000fd5b90506020813d602011610b42575b81610b3360209383610c3d565b810103126102aa5751836107a5565b3d9150610b26565b346102aa5760407ffffffffffffffffffffffffffffffffffffffffffffffffffffffffffffffffc3601126102aa5760243567ffffffffffffffff81116102aa57366023820112156102aa57806004013567ffffffffffffffff81116102aa5760243691830101116102aa57610bc7602460209201600435610d2f565b7fffffffff0000000000000000000000000000000000000000000000000000000060405191168152f35b610100810190811067ffffffffffffffff821117610c0e57604052565b7f4e487b7100000000000000000000000000000000000000000000000000000000600052604160045260246000fd5b90601f7fffffffffffffffffffffffffffffffffffffffffffffffffffffffffffffffe0910116810190811067ffffffffffffffff821117610c0e57604052565b67ffffffffffffffff8111610c0e57601f017fffffffffffffffffffffffffffffffffffffffffffffffffffffffffffffffe01660200190565b7ffffffffffffffffffffffffffffffffffffffffffffffffffffffffffffffffc6101009101126102aa5760405190610cf082610bf1565b6004358252602435602083015260443560408301526064356060830152608435608083015260a43560a083015260c43560c083015260e43560e0830152565b9073ffffffffffffffffffffffffffffffffffffffff60556043610dc0610d54611124565b6101206040517f3af21ec5a20011b88d3b7b4ed7c806cef05a5980cf34974bcd53566a131f7e4c81526101008860208301372090604291604051917f19010000000000000000000000000000000000000000000000000000000000008352600283015260228201522090565b604051907f000000000000000000000000000000000000000000000000000000000000000060388301526f5af43d82803e903d91602b57fd5bf3ff60248301527f00000000000000000000000000000000000000000000000000000000000000006014830152733d602d80600a3d3981f3363d3d373d3d3d363d73825260588201526037600c82012060788201520120163003610eef57610100813603126102aa57610ec19060e060405191610e7583610bf1565b803583526020810135602084015260408101356040840152606081013560608401526080810135608084015260a081013560a084015260c081013560c0840152013560e0820152611087565b03610eea577f1626ba7e0000000000000000000000000000000000000000000000000000000090565b600090565b5050600090565b91908203918211610f0357565b7f4e487b7100000000000000000000000000000000000000000000000000000000600052601160045260246000fd5b3d15610f5d573d90610f4382610c7e565b91610f516040519384610c3d565b82523d6000602084013e565b606090565b73ffffffffffffffffffffffffffffffffffffffff60556043610ff3610f86611124565b6101206040517f3af21ec5a20011b88d3b7b4ed7c806cef05a5980cf34974bcd53566a131f7e4c8152610100600460208301372090604291604051917f19010000000000000000000000000000000000000000000000000000000000008352600283015260228201522090565b604051907f000000000000000000000000000000000000000000000000000000000000000060388301526f5af43d82803e903d91602b57fd5bf3ff60248301527f00000000000000000000000000000000000000000000000000000000000000006014830152733d602d80600a3d3981f3363d3d373d3d3d363d73825260588201526037600c820120607882015201201690565b611121903060208201527fffffffffffffffffffffffffffffffffffffffffffffffffffffffffffffffe06110ba611124565b91019081517f3af21ec5a20011b88d3b7b4ed7c806cef05a5980cf34974bcd53566a131f7e4c835261012083209252604291604051917f19010000000000000000000000000000000000000000000000000000000000008352600283015260228201522090565b90565b467f00000000000000000000000000000000000000000000000000000000000000000361116f577f000000000000000000000000000000000000000000000000000000000000000090565b60405160208101907f000000000000000000000000000000000000000000000000000000000000000082527f000000000000000000000000000000000000000000000000000000000000000060408201527f0000000000000000000000000000000000000000000000000000000000000000606082015246608082015273ffffffffffffffffffffffffffffffffffffffff7f00000000000000000000000000000000000000000000000000000000000000001660a082015260a0815261123760c082610c3d565b51902090565b92916044602092600092604051917f095ea7b30000000000000000000000000000000000000000000000000000000083526004830152602482015282865af191826112855750565b9091503d1561129d5750600160005114601f3d111690565b3b15159056fea264697066735822122034650ebf94325357e76a8bac7376aa96123003520e2d5e185a9a0eeed56f2e0c64736f6c634300081e00338b73c3c69bb8fe3d512ecc4cf759cc79239f7b179b0ffacaa9a75d522b39400f8b73c3c69bb8fe3d512ecc4cf759cc79239f7b179b0ffacaa9a75d522b39400f",
  "devdoc": {
    "errors": {
      "FailedDeployment()": [
        {
          "details": "The deployment failed."
        }
      ],
      "InsufficientBalance(uint256,uint256)": [
        {
          "details": "The ETH balance of the account is not enough to perform the operation."
        }
      ],
      "OwnableInvalidOwner(address)": [
        {
          "details": "The owner is not a valid owner account. (eg. `address(0)`)"
        }
      ],
      "OwnableUnauthorizedAccount(address)": [
        {
          "details": "The caller account is not authorized to perform an operation."
        }
      ]
    },
    "kind": "dev",
    "methods": {
      "owner()": {
        "details": "Returns the address of the current owner."
      },
      "renounceOwnership()": {
        "details": "Leaves the contract without owner. It will not be possible to call `onlyOwner` functions. Can only be called by the current owner. NOTE: Renouncing ownership will leave the contract without an owner, thereby disabling any functionality that is only available to the owner."
      },
      "transferOwnership(address)": {
        "details": "Transfers ownership of the contract to a new account (`newOwner`). Can only be called by the current owner."
      }
    },
    "version": 1
  },
  "userdoc": {
    "kind": "user",
    "methods": {},
    "version": 1
  },
  "storageLayout": {
    "storage": [
      {
        "astId": 4830,
        "contract": "contracts/extensions/NativeOrderFactory.sol:NativeOrderFactory",
        "label": "_owner",
        "offset": 0,
        "slot": "0",
        "type": "t_address"
      }
    ],
    "types": {
      "t_address": {
        "encoding": "inplace",
        "label": "address",
        "numberOfBytes": "20"
      }
    }
  }
}