{
  "address": "0x65B3Db8bAeF0215A1F9B14c506D2a3078b2C84AE",
  "abi": [
    {
      "inputs": [],
      "name": "ErrorCreatingContract",
      "type": "error"
    },
    {
      "inputs": [],
      "name": "ErrorCreatingProxy",
      "type": "error"
    },
    {
      "inputs": [],
      "name": "TargetAlreadyExists",
      "type": "error"
    },
    {
      "anonymous": false,
      "inputs": [
        {
          "indexed": true,
          "internalType": "address",
          "name": "previousOwner",
          "type": "address"
        },
        {
          "indexed": true,
          "internalType": "address",
          "name": "newOwner",
          "type": "address"
        }
      ],
      "name": "OwnershipTransferred",
      "type": "event"
    },
    {
      "inputs": [
        {
          "internalType": "bytes32",
          "name": "salt",
          "type": "bytes32"
        }
      ],
      "name": "addressOf",
      "outputs": [
        {
          "internalType": "address",
          "name": "",
          "type": "address"
        }
      ],
      "stateMutability": "view",
      "type": "function"
    },
    {
      "inputs": [
        {
          "internalType": "bytes32",
          "name": "salt",
          "type": "bytes32"
        },
        {
          "internalType": "bytes",
          "name": "code",
          "type": "bytes"
        }
      ],
      "name": "deploy",
      "outputs": [
        {
          "internalType": "address",
          "name": "",
          "type": "address"
        }
      ],
      "stateMutability": "nonpayable",
      "type": "function"
    },
    {
      "inputs": [],
      "name": "owner",
      "outputs": [
        {
          "internalType": "address",
          "name": "",
          "type": "address"
        }
      ],
      "stateMutability": "view",
      "type": "function"
    },
    {
      "inputs": [],
      "name": "renounceOwnership",
      "outputs": [],
      "stateMutability": "nonpayable",
      "type": "function"
    },
    {
      "inputs": [
        {
          "internalType": "address",
          "name": "newOwner",
          "type": "address"
        }
      ],
      "name": "transferOwnership",
      "outputs": [],
      "stateMutability": "nonpayable",
      "type": "function"
    }
  ],
  "transactionHash": "0x3afa5de3427a6b065ce1be183a9638bf0a7443f2a5e317c9df149e83837a2146",
  "args": [],
  "numDeployments": 1,
  "solcInputHash": "dc7c8caa48e4d125c6ac76b994b08d52",
  "bytecode": "0x6080806040523461005b5760008054336001600160a01b0319821681178355916001600160a01b03909116907f8be0079c531659141344cd1fd0a4f28419497f9722a3daafe3b4186f6b6457e09080a361081590816100618239f35b600080fdfe6080604052600436101561001257600080fd5b6000803560e01c908163715018a61461006a575080638da5cb5b14610065578063bb34534c14610060578063cdcb760a1461005b5763f2fde38b1461005657600080fd5b61025c565b6101b9565b61015f565b610108565b3461010557807ffffffffffffffffffffffffffffffffffffffffffffffffffffffffffffffffc360112610105576100a0610348565b8073ffffffffffffffffffffffffffffffffffffffff81547fffffffffffffffffffffffff000000000000000000000000000000000000000081168355167f8be0079c531659141344cd1fd0a4f28419497f9722a3daafe3b4186f6b6457e08280a380f35b80fd5b3461015a5760007ffffffffffffffffffffffffffffffffffffffffffffffffffffffffffffffffc36011261015a57602073ffffffffffffffffffffffffffffffffffffffff60005416604051908152f35b600080fd5b3461015a5760207ffffffffffffffffffffffffffffffffffffffffffffffffffffffffffffffffc36011261015a57602061019b6004356106ba565b73ffffffffffffffffffffffffffffffffffffffff60405191168152f35b3461015a5760407ffffffffffffffffffffffffffffffffffffffffffffffffffffffffffffffffc36011261015a5767ffffffffffffffff60243581811161015a573660238201121561015a57806004013591821161015a57366024838301011161015a576102589160246102319201600435610434565b60405173ffffffffffffffffffffffffffffffffffffffff90911681529081906020820190565b0390f35b3461015a5760207ffffffffffffffffffffffffffffffffffffffffffffffffffffffffffffffffc36011261015a5760043573ffffffffffffffffffffffffffffffffffffffff811680820361015a576102b4610348565b156102c4576102c2906103c7565b005b60846040517f08c379a000000000000000000000000000000000000000000000000000000000815260206004820152602660248201527f4f776e61626c653a206e6577206f776e657220697320746865207a65726f206160448201527f64647265737300000000000000000000000000000000000000000000000000006064820152fd5b73ffffffffffffffffffffffffffffffffffffffff60005416330361036957565b60646040517f08c379a000000000000000000000000000000000000000000000000000000000815260206004820152602060248201527f4f776e61626c653a2063616c6c6572206973206e6f7420746865206f776e65726044820152fd5b6000549073ffffffffffffffffffffffffffffffffffffffff80911691827fffffffffffffffffffffffff0000000000000000000000000000000000000000821617600055167f8be0079c531659141344cd1fd0a4f28419497f9722a3daafe3b4186f6b6457e0600080a3565b9161043d610348565b61044681610606565b9061045460405192836105c5565b8082526020820192368282011161015a578160009260209286378301015261047a610640565b92610484816106ba565b93843b61052f576020815191016000f573ffffffffffffffffffffffffffffffffffffffff8116156105055760009283809351925af16104c261068a565b501580156104fc575b6104d25790565b60046040517f53de54b9000000000000000000000000000000000000000000000000000000008152fd5b50803b156104cb565b60046040517fbbd2fe87000000000000000000000000000000000000000000000000000000008152fd5b60046040517fcd43efa1000000000000000000000000000000000000000000000000000000008152fd5b7f4e487b7100000000000000000000000000000000000000000000000000000000600052604160045260246000fd5b6080810190811067ffffffffffffffff8211176105a457604052565b610559565b6040810190811067ffffffffffffffff8211176105a457604052565b90601f7fffffffffffffffffffffffffffffffffffffffffffffffffffffffffffffffe0910116810190811067ffffffffffffffff8211176105a457604052565b67ffffffffffffffff81116105a457601f017fffffffffffffffffffffffffffffffffffffffffffffffffffffffffffffffe01660200190565b604051906040820182811067ffffffffffffffff8211176105a457604052601182527f68363d3d37363d34f0ff3d5260096017f30000000000000000000000000000006020830152565b3d156106b5573d9061069b82610606565b916106a960405193846105c5565b82523d6000602084013e565b606090565b6107c36107dc916106c9610640565b602081519101206040519060208201927fff0000000000000000000000000000000000000000000000000000000000000084523060601b6021840152603583015260558201526055815261071c81610588565b5190206040517fffffffffffffffffffffffffffffffffffffffff00000000000000000000000060208201927fd694000000000000000000000000000000000000000000000000000000000000845260601b1660228201527f01000000000000000000000000000000000000000000000000000000000000006036820152601781526107a7816105a9565b51902073ffffffffffffffffffffffffffffffffffffffff1690565b73ffffffffffffffffffffffffffffffffffffffff1690565b9056fea264697066735822122099b8385525f2b66a94376f4e4427c2d91c29680f553260667104549d2942f59b64736f6c63430008130033",
  "devdoc": {
    "kind": "dev",
    "methods": {
      "owner()": {
        "details": "Returns the address of the current owner."
      },
      "renounceOwnership()": {
        "details": "Leaves the contract without owner. It will not be possible to call `onlyOwner` functions anymore. Can only be called by the current owner. NOTE: Renouncing ownership will leave the contract without an owner, thereby removing any functionality that is only available to the owner."
      },
      "transferOwnership(address)": {
        "details": "Transfers ownership of the contract to a new account (`newOwner`). Can only be called by the current owner."
      }
    },
    "version": 1
  },
  "userdoc": {
    "kind": "user",
    "methods": {},
    "version": 1
  },
  "storageLayout": {
    "storage": [
      {
        "astId": 6370,
        "contract": "contracts/Create3Deployer.sol:Create3Deployer",
        "label": "_owner",
        "offset": 0,
        "slot": "0",
        "type": "t_address"
      }
    ],
    "types": {
      "t_address": {
        "encoding": "inplace",
        "label": "address",
        "numberOfBytes": "20"
      }
    }
  }
}