{
  "address": "0x11DEE30E710B8d4a8630392781Cc3c0046365d4c",
  "abi": [
    {
      "anonymous": false,
      "inputs": [
        {
          "indexed": true,
          "internalType": "address",
          "name": "maker",
          "type": "address"
        },
        {
          "indexed": false,
          "internalType": "uint256",
          "name": "newNonce",
          "type": "uint256"
        }
      ],
      "name": "NonceIncreased",
      "type": "event"
    },
    {
      "anonymous": false,
      "inputs": [
        {
          "indexed": true,
          "internalType": "address",
          "name": "maker",
          "type": "address"
        },
        {
          "indexed": false,
          "internalType": "bytes32",
          "name": "orderHash",
          "type": "bytes32"
        },
        {
          "indexed": false,
          "internalType": "uint256",
          "name": "remainingRaw",
          "type": "uint256"
        }
      ],
      "name": "OrderCanceled",
      "type": "event"
    },
    {
      "anonymous": false,
      "inputs": [
        {
          "indexed": true,
          "internalType": "address",
          "name": "maker",
          "type": "address"
        },
        {
          "indexed": false,
          "internalType": "bytes32",
          "name": "orderHash",
          "type": "bytes32"
        },
        {
          "indexed": false,
          "internalType": "uint256",
          "name": "remaining",
          "type": "uint256"
        }
      ],
      "name": "OrderFilled",
      "type": "event"
    },
    {
      "anonymous": false,
      "inputs": [
        {
          "indexed": false,
          "internalType": "bytes32",
          "name": "orderHash",
          "type": "bytes32"
        },
        {
          "indexed": false,
          "internalType": "uint256",
          "name": "makingAmount",
          "type": "uint256"
        }
      ],
      "name": "OrderFilledRFQ",
      "type": "event"
    },
    {
      "inputs": [],
      "name": "DOMAIN_SEPARATOR",
      "outputs": [
        {
          "internalType": "bytes32",
          "name": "",
          "type": "bytes32"
        }
      ],
      "stateMutability": "view",
      "type": "function"
    },
    {
      "inputs": [],
      "name": "LIMIT_ORDER_RFQ_TYPEHASH",
      "outputs": [
        {
          "internalType": "bytes32",
          "name": "",
          "type": "bytes32"
        }
      ],
      "stateMutability": "view",
      "type": "function"
    },
    {
      "inputs": [],
      "name": "LIMIT_ORDER_TYPEHASH",
      "outputs": [
        {
          "internalType": "bytes32",
          "name": "",
          "type": "bytes32"
        }
      ],
      "stateMutability": "view",
      "type": "function"
    },
    {
      "inputs": [
        {
          "internalType": "uint8",
          "name": "amount",
          "type": "uint8"
        }
      ],
      "name": "advanceNonce",
      "outputs": [],
      "stateMutability": "nonpayable",
      "type": "function"
    },
    {
      "inputs": [
        {
          "internalType": "address[]",
          "name": "targets",
          "type": "address[]"
        },
        {
          "internalType": "bytes[]",
          "name": "data",
          "type": "bytes[]"
        }
      ],
      "name": "and",
      "outputs": [
        {
          "internalType": "bool",
          "name": "",
          "type": "bool"
        }
      ],
      "stateMutability": "view",
      "type": "function"
    },
    {
      "inputs": [
        {
          "internalType": "address",
          "name": "target",
          "type": "address"
        },
        {
          "internalType": "bytes",
          "name": "data",
          "type": "bytes"
        }
      ],
      "name": "arbitraryStaticCall",
      "outputs": [
        {
          "internalType": "uint256",
          "name": "",
          "type": "uint256"
        }
      ],
      "stateMutability": "view",
      "type": "function"
    },
    {
      "inputs": [
        {
          "components": [
            {
              "internalType": "uint256",
              "name": "salt",
              "type": "uint256"
            },
            {
              "internalType": "address",
              "name": "makerAsset",
              "type": "address"
            },
            {
              "internalType": "address",
              "name": "takerAsset",
              "type": "address"
            },
            {
              "internalType": "address",
              "name": "maker",
              "type": "address"
            },
            {
              "internalType": "address",
              "name": "receiver",
              "type": "address"
            },
            {
              "internalType": "address",
              "name": "allowedSender",
              "type": "address"
            },
            {
              "internalType": "uint256",
              "name": "makingAmount",
              "type": "uint256"
            },
            {
              "internalType": "uint256",
              "name": "takingAmount",
              "type": "uint256"
            },
            {
              "internalType": "bytes",
              "name": "makerAssetData",
              "type": "bytes"
            },
            {
              "internalType": "bytes",
              "name": "takerAssetData",
              "type": "bytes"
            },
            {
              "internalType": "bytes",
              "name": "getMakerAmount",
              "type": "bytes"
            },
            {
              "internalType": "bytes",
              "name": "getTakerAmount",
              "type": "bytes"
            },
            {
              "internalType": "bytes",
              "name": "predicate",
              "type": "bytes"
            },
            {
              "internalType": "bytes",
              "name": "permit",
              "type": "bytes"
            },
            {
              "internalType": "bytes",
              "name": "interaction",
              "type": "bytes"
            }
          ],
          "internalType": "struct OrderMixin.Order",
          "name": "order",
          "type": "tuple"
        }
      ],
      "name": "cancelOrder",
      "outputs": [],
      "stateMutability": "nonpayable",
      "type": "function"
    },
    {
      "inputs": [
        {
          "internalType": "uint256",
          "name": "orderInfo",
          "type": "uint256"
        }
      ],
      "name": "cancelOrderRFQ",
      "outputs": [],
      "stateMutability": "nonpayable",
      "type": "function"
    },
    {
      "inputs": [
        {
          "components": [
            {
              "internalType": "uint256",
              "name": "salt",
              "type": "uint256"
            },
            {
              "internalType": "address",
              "name": "makerAsset",
              "type": "address"
            },
            {
              "internalType": "address",
              "name": "takerAsset",
              "type": "address"
            },
            {
              "internalType": "address",
              "name": "maker",
              "type": "address"
            },
            {
              "internalType": "address",
              "name": "receiver",
              "type": "address"
            },
            {
              "internalType": "address",
              "name": "allowedSender",
              "type": "address"
            },
            {
              "internalType": "uint256",
              "name": "makingAmount",
              "type": "uint256"
            },
            {
              "internalType": "uint256",
              "name": "takingAmount",
              "type": "uint256"
            },
            {
              "internalType": "bytes",
              "name": "makerAssetData",
              "type": "bytes"
            },
            {
              "internalType": "bytes",
              "name": "takerAssetData",
              "type": "bytes"
            },
            {
              "internalType": "bytes",
              "name": "getMakerAmount",
              "type": "bytes"
            },
            {
              "internalType": "bytes",
              "name": "getTakerAmount",
              "type": "bytes"
            },
            {
              "internalType": "bytes",
              "name": "predicate",
              "type": "bytes"
            },
            {
              "internalType": "bytes",
              "name": "permit",
              "type": "bytes"
            },
            {
              "internalType": "bytes",
              "name": "interaction",
              "type": "bytes"
            }
          ],
          "internalType": "struct OrderMixin.Order",
          "name": "order",
          "type": "tuple"
        }
      ],
      "name": "checkPredicate",
      "outputs": [
        {
          "internalType": "bool",
          "name": "",
          "type": "bool"
        }
      ],
      "stateMutability": "view",
      "type": "function"
    },
    {
      "inputs": [
        {
          "internalType": "contract AggregatorV3Interface",
          "name": "oracle1",
          "type": "address"
        },
        {
          "internalType": "contract AggregatorV3Interface",
          "name": "oracle2",
          "type": "address"
        },
        {
          "internalType": "uint256",
          "name": "spread",
          "type": "uint256"
        },
        {
          "internalType": "int256",
          "name": "decimalsScale",
          "type": "int256"
        },
        {
          "internalType": "uint256",
          "name": "amount",
          "type": "uint256"
        }
      ],
      "name": "doublePrice",
      "outputs": [
        {
          "internalType": "uint256",
          "name": "",
          "type": "uint256"
        }
      ],
      "stateMutability": "view",
      "type": "function"
    },
    {
      "inputs": [
        {
          "internalType": "uint256",
          "name": "value",
          "type": "uint256"
        },
        {
          "internalType": "address",
          "name": "target",
          "type": "address"
        },
        {
          "internalType": "bytes",
          "name": "data",
          "type": "bytes"
        }
      ],
      "name": "eq",
      "outputs": [
        {
          "internalType": "bool",
          "name": "",
          "type": "bool"
        }
      ],
      "stateMutability": "view",
      "type": "function"
    },
    {
      "inputs": [
        {
          "components": [
            {
              "internalType": "uint256",
              "name": "salt",
              "type": "uint256"
            },
            {
              "internalType": "address",
              "name": "makerAsset",
              "type": "address"
            },
            {
              "internalType": "address",
              "name": "takerAsset",
              "type": "address"
            },
            {
              "internalType": "address",
              "name": "maker",
              "type": "address"
            },
            {
              "internalType": "address",
              "name": "receiver",
              "type": "address"
            },
            {
              "internalType": "address",
              "name": "allowedSender",
              "type": "address"
            },
            {
              "internalType": "uint256",
              "name": "makingAmount",
              "type": "uint256"
            },
            {
              "internalType": "uint256",
              "name": "takingAmount",
              "type": "uint256"
            },
            {
              "internalType": "bytes",
              "name": "makerAssetData",
              "type": "bytes"
            },
            {
              "internalType": "bytes",
              "name": "takerAssetData",
              "type": "bytes"
            },
            {
              "internalType": "bytes",
              "name": "getMakerAmount",
              "type": "bytes"
            },
            {
              "internalType": "bytes",
              "name": "getTakerAmount",
              "type": "bytes"
            },
            {
              "internalType": "bytes",
              "name": "predicate",
              "type": "bytes"
            },
            {
              "internalType": "bytes",
              "name": "permit",
              "type": "bytes"
            },
            {
              "internalType": "bytes",
              "name": "interaction",
              "type": "bytes"
            }
          ],
          "internalType": "struct OrderMixin.Order",
          "name": "order",
          "type": "tuple"
        },
        {
          "internalType": "bytes",
          "name": "signature",
          "type": "bytes"
        },
        {
          "internalType": "uint256",
          "name": "makingAmount",
          "type": "uint256"
        },
        {
          "internalType": "uint256",
          "name": "takingAmount",
          "type": "uint256"
        },
        {
          "internalType": "uint256",
          "name": "thresholdAmount",
          "type": "uint256"
        }
      ],
      "name": "fillOrder",
      "outputs": [
        {
          "internalType": "uint256",
          "name": "",
          "type": "uint256"
        },
        {
          "internalType": "uint256",
          "name": "",
          "type": "uint256"
        }
      ],
      "stateMutability": "nonpayable",
      "type": "function"
    },
    {
      "inputs": [
        {
          "components": [
            {
              "internalType": "uint256",
              "name": "info",
              "type": "uint256"
            },
            {
              "internalType": "contract IERC20",
              "name": "makerAsset",
              "type": "address"
            },
            {
              "internalType": "contract IERC20",
              "name": "takerAsset",
              "type": "address"
            },
            {
              "internalType": "address",
              "name": "maker",
              "type": "address"
            },
            {
              "internalType": "address",
              "name": "allowedSender",
              "type": "address"
            },
            {
              "internalType": "uint256",
              "name": "makingAmount",
              "type": "uint256"
            },
            {
              "internalType": "uint256",
              "name": "takingAmount",
              "type": "uint256"
            }
          ],
          "internalType": "struct OrderRFQMixin.OrderRFQ",
          "name": "order",
          "type": "tuple"
        },
        {
          "internalType": "bytes",
          "name": "signature",
          "type": "bytes"
        },
        {
          "internalType": "uint256",
          "name": "makingAmount",
          "type": "uint256"
        },
        {
          "internalType": "uint256",
          "name": "takingAmount",
          "type": "uint256"
        }
      ],
      "name": "fillOrderRFQ",
      "outputs": [
        {
          "internalType": "uint256",
          "name": "",
          "type": "uint256"
        },
        {
          "internalType": "uint256",
          "name": "",
          "type": "uint256"
        }
      ],
      "stateMutability": "nonpayable",
      "type": "function"
    },
    {
      "inputs": [
        {
          "components": [
            {
              "internalType": "uint256",
              "name": "info",
              "type": "uint256"
            },
            {
              "internalType": "contract IERC20",
              "name": "makerAsset",
              "type": "address"
            },
            {
              "internalType": "contract IERC20",
              "name": "takerAsset",
              "type": "address"
            },
            {
              "internalType": "address",
              "name": "maker",
              "type": "address"
            },
            {
              "internalType": "address",
              "name": "allowedSender",
              "type": "address"
            },
            {
              "internalType": "uint256",
              "name": "makingAmount",
              "type": "uint256"
            },
            {
              "internalType": "uint256",
              "name": "takingAmount",
              "type": "uint256"
            }
          ],
          "internalType": "struct OrderRFQMixin.OrderRFQ",
          "name": "order",
          "type": "tuple"
        },
        {
          "internalType": "bytes",
          "name": "signature",
          "type": "bytes"
        },
        {
          "internalType": "uint256",
          "name": "makingAmount",
          "type": "uint256"
        },
        {
          "internalType": "uint256",
          "name": "takingAmount",
          "type": "uint256"
        },
        {
          "internalType": "address",
          "name": "target",
          "type": "address"
        }
      ],
      "name": "fillOrderRFQTo",
      "outputs": [
        {
          "internalType": "uint256",
          "name": "",
          "type": "uint256"
        },
        {
          "internalType": "uint256",
          "name": "",
          "type": "uint256"
        }
      ],
      "stateMutability": "nonpayable",
      "type": "function"
    },
    {
      "inputs": [
        {
          "components": [
            {
              "internalType": "uint256",
              "name": "info",
              "type": "uint256"
            },
            {
              "internalType": "contract IERC20",
              "name": "makerAsset",
              "type": "address"
            },
            {
              "internalType": "contract IERC20",
              "name": "takerAsset",
              "type": "address"
            },
            {
              "internalType": "address",
              "name": "maker",
              "type": "address"
            },
            {
              "internalType": "address",
              "name": "allowedSender",
              "type": "address"
            },
            {
              "internalType": "uint256",
              "name": "makingAmount",
              "type": "uint256"
            },
            {
              "internalType": "uint256",
              "name": "takingAmount",
              "type": "uint256"
            }
          ],
          "internalType": "struct OrderRFQMixin.OrderRFQ",
          "name": "order",
          "type": "tuple"
        },
        {
          "internalType": "bytes",
          "name": "signature",
          "type": "bytes"
        },
        {
          "internalType": "uint256",
          "name": "makingAmount",
          "type": "uint256"
        },
        {
          "internalType": "uint256",
          "name": "takingAmount",
          "type": "uint256"
        },
        {
          "internalType": "address",
          "name": "target",
          "type": "address"
        },
        {
          "internalType": "bytes",
          "name": "permit",
          "type": "bytes"
        }
      ],
      "name": "fillOrderRFQToWithPermit",
      "outputs": [
        {
          "internalType": "uint256",
          "name": "",
          "type": "uint256"
        },
        {
          "internalType": "uint256",
          "name": "",
          "type": "uint256"
        }
      ],
      "stateMutability": "nonpayable",
      "type": "function"
    },
    {
      "inputs": [
        {
          "components": [
            {
              "internalType": "uint256",
              "name": "salt",
              "type": "uint256"
            },
            {
              "internalType": "address",
              "name": "makerAsset",
              "type": "address"
            },
            {
              "internalType": "address",
              "name": "takerAsset",
              "type": "address"
            },
            {
              "internalType": "address",
              "name": "maker",
              "type": "address"
            },
            {
              "internalType": "address",
              "name": "receiver",
              "type": "address"
            },
            {
              "internalType": "address",
              "name": "allowedSender",
              "type": "address"
            },
            {
              "internalType": "uint256",
              "name": "makingAmount",
              "type": "uint256"
            },
            {
              "internalType": "uint256",
              "name": "takingAmount",
              "type": "uint256"
            },
            {
              "internalType": "bytes",
              "name": "makerAssetData",
              "type": "bytes"
            },
            {
              "internalType": "bytes",
              "name": "takerAssetData",
              "type": "bytes"
            },
            {
              "internalType": "bytes",
              "name": "getMakerAmount",
              "type": "bytes"
            },
            {
              "internalType": "bytes",
              "name": "getTakerAmount",
              "type": "bytes"
            },
            {
              "internalType": "bytes",
              "name": "predicate",
              "type": "bytes"
            },
            {
              "internalType": "bytes",
              "name": "permit",
              "type": "bytes"
            },
            {
              "internalType": "bytes",
              "name": "interaction",
              "type": "bytes"
            }
          ],
          "internalType": "struct OrderMixin.Order",
          "name": "order",
          "type": "tuple"
        },
        {
          "internalType": "bytes",
          "name": "signature",
          "type": "bytes"
        },
        {
          "internalType": "uint256",
          "name": "makingAmount",
          "type": "uint256"
        },
        {
          "internalType": "uint256",
          "name": "takingAmount",
          "type": "uint256"
        },
        {
          "internalType": "uint256",
          "name": "thresholdAmount",
          "type": "uint256"
        },
        {
          "internalType": "address",
          "name": "target",
          "type": "address"
        }
      ],
      "name": "fillOrderTo",
      "outputs": [
        {
          "internalType": "uint256",
          "name": "",
          "type": "uint256"
        },
        {
          "internalType": "uint256",
          "name": "",
          "type": "uint256"
        }
      ],
      "stateMutability": "nonpayable",
      "type": "function"
    },
    {
      "inputs": [
        {
          "components": [
            {
              "internalType": "uint256",
              "name": "salt",
              "type": "uint256"
            },
            {
              "internalType": "address",
              "name": "makerAsset",
              "type": "address"
            },
            {
              "internalType": "address",
              "name": "takerAsset",
              "type": "address"
            },
            {
              "internalType": "address",
              "name": "maker",
              "type": "address"
            },
            {
              "internalType": "address",
              "name": "receiver",
              "type": "address"
            },
            {
              "internalType": "address",
              "name": "allowedSender",
              "type": "address"
            },
            {
              "internalType": "uint256",
              "name": "makingAmount",
              "type": "uint256"
            },
            {
              "internalType": "uint256",
              "name": "takingAmount",
              "type": "uint256"
            },
            {
              "internalType": "bytes",
              "name": "makerAssetData",
              "type": "bytes"
            },
            {
              "internalType": "bytes",
              "name": "takerAssetData",
              "type": "bytes"
            },
            {
              "internalType": "bytes",
              "name": "getMakerAmount",
              "type": "bytes"
            },
            {
              "internalType": "bytes",
              "name": "getTakerAmount",
              "type": "bytes"
            },
            {
              "internalType": "bytes",
              "name": "predicate",
              "type": "bytes"
            },
            {
              "internalType": "bytes",
              "name": "permit",
              "type": "bytes"
            },
            {
              "internalType": "bytes",
              "name": "interaction",
              "type": "bytes"
            }
          ],
          "internalType": "struct OrderMixin.Order",
          "name": "order",
          "type": "tuple"
        },
        {
          "internalType": "bytes",
          "name": "signature",
          "type": "bytes"
        },
        {
          "internalType": "uint256",
          "name": "makingAmount",
          "type": "uint256"
        },
        {
          "internalType": "uint256",
          "name": "takingAmount",
          "type": "uint256"
        },
        {
          "internalType": "uint256",
          "name": "thresholdAmount",
          "type": "uint256"
        },
        {
          "internalType": "address",
          "name": "target",
          "type": "address"
        },
        {
          "internalType": "bytes",
          "name": "permit",
          "type": "bytes"
        }
      ],
      "name": "fillOrderToWithPermit",
      "outputs": [
        {
          "internalType": "uint256",
          "name": "",
          "type": "uint256"
        },
        {
          "internalType": "uint256",
          "name": "",
          "type": "uint256"
        }
      ],
      "stateMutability": "nonpayable",
      "type": "function"
    },
    {
      "inputs": [
        {
          "internalType": "uint256",
          "name": "orderMakerAmount",
          "type": "uint256"
        },
        {
          "internalType": "uint256",
          "name": "orderTakerAmount",
          "type": "uint256"
        },
        {
          "internalType": "uint256",
          "name": "swapTakerAmount",
          "type": "uint256"
        }
      ],
      "name": "getMakerAmount",
      "outputs": [
        {
          "internalType": "uint256",
          "name": "",
          "type": "uint256"
        }
      ],
      "stateMutability": "pure",
      "type": "function"
    },
    {
      "inputs": [
        {
          "internalType": "uint256",
          "name": "orderMakerAmount",
          "type": "uint256"
        },
        {
          "internalType": "uint256",
          "name": "orderTakerAmount",
          "type": "uint256"
        },
        {
          "internalType": "uint256",
          "name": "swapMakerAmount",
          "type": "uint256"
        }
      ],
      "name": "getTakerAmount",
      "outputs": [
        {
          "internalType": "uint256",
          "name": "",
          "type": "uint256"
        }
      ],
      "stateMutability": "pure",
      "type": "function"
    },
    {
      "inputs": [
        {
          "internalType": "uint256",
          "name": "value",
          "type": "uint256"
        },
        {
          "internalType": "address",
          "name": "target",
          "type": "address"
        },
        {
          "internalType": "bytes",
          "name": "data",
          "type": "bytes"
        }
      ],
      "name": "gt",
      "outputs": [
        {
          "internalType": "bool",
          "name": "",
          "type": "bool"
        }
      ],
      "stateMutability": "view",
      "type": "function"
    },
    {
      "inputs": [
        {
          "components": [
            {
              "internalType": "uint256",
              "name": "salt",
              "type": "uint256"
            },
            {
              "internalType": "address",
              "name": "makerAsset",
              "type": "address"
            },
            {
              "internalType": "address",
              "name": "takerAsset",
              "type": "address"
            },
            {
              "internalType": "address",
              "name": "maker",
              "type": "address"
            },
            {
              "internalType": "address",
              "name": "receiver",
              "type": "address"
            },
            {
              "internalType": "address",
              "name": "allowedSender",
              "type": "address"
            },
            {
              "internalType": "uint256",
              "name": "makingAmount",
              "type": "uint256"
            },
            {
              "internalType": "uint256",
              "name": "takingAmount",
              "type": "uint256"
            },
            {
              "internalType": "bytes",
              "name": "makerAssetData",
              "type": "bytes"
            },
            {
              "internalType": "bytes",
              "name": "takerAssetData",
              "type": "bytes"
            },
            {
              "internalType": "bytes",
              "name": "getMakerAmount",
              "type": "bytes"
            },
            {
              "internalType": "bytes",
              "name": "getTakerAmount",
              "type": "bytes"
            },
            {
              "internalType": "bytes",
              "name": "predicate",
              "type": "bytes"
            },
            {
              "internalType": "bytes",
              "name": "permit",
              "type": "bytes"
            },
            {
              "internalType": "bytes",
              "name": "interaction",
              "type": "bytes"
            }
          ],
          "internalType": "struct OrderMixin.Order",
          "name": "order",
          "type": "tuple"
        }
      ],
      "name": "hashOrder",
      "outputs": [
        {
          "internalType": "bytes32",
          "name": "",
          "type": "bytes32"
        }
      ],
      "stateMutability": "view",
      "type": "function"
    },
    {
      "inputs": [],
      "name": "increaseNonce",
      "outputs": [],
      "stateMutability": "nonpayable",
      "type": "function"
    },
    {
      "inputs": [
        {
          "internalType": "address",
          "name": "maker",
          "type": "address"
        },
        {
          "internalType": "uint256",
          "name": "slot",
          "type": "uint256"
        }
      ],
      "name": "invalidatorForOrderRFQ",
      "outputs": [
        {
          "internalType": "uint256",
          "name": "",
          "type": "uint256"
        }
      ],
      "stateMutability": "view",
      "type": "function"
    },
    {
      "inputs": [
        {
          "internalType": "uint256",
          "name": "value",
          "type": "uint256"
        },
        {
          "internalType": "address",
          "name": "target",
          "type": "address"
        },
        {
          "internalType": "bytes",
          "name": "data",
          "type": "bytes"
        }
      ],
      "name": "lt",
      "outputs": [
        {
          "internalType": "bool",
          "name": "",
          "type": "bool"
        }
      ],
      "stateMutability": "view",
      "type": "function"
    },
    {
      "inputs": [
        {
          "internalType": "address",
          "name": "",
          "type": "address"
        }
      ],
      "name": "nonce",
      "outputs": [
        {
          "internalType": "uint256",
          "name": "",
          "type": "uint256"
        }
      ],
      "stateMutability": "view",
      "type": "function"
    },
    {
      "inputs": [
        {
          "internalType": "address",
          "name": "makerAddress",
          "type": "address"
        },
        {
          "internalType": "uint256",
          "name": "makerNonce",
          "type": "uint256"
        }
      ],
      "name": "nonceEquals",
      "outputs": [
        {
          "internalType": "bool",
          "name": "",
          "type": "bool"
        }
      ],
      "stateMutability": "view",
      "type": "function"
    },
    {
      "inputs": [
        {
          "internalType": "address[]",
          "name": "targets",
          "type": "address[]"
        },
        {
          "internalType": "bytes[]",
          "name": "data",
          "type": "bytes[]"
        }
      ],
      "name": "or",
      "outputs": [
        {
          "internalType": "bool",
          "name": "",
          "type": "bool"
        }
      ],
      "stateMutability": "view",
      "type": "function"
    },
    {
      "inputs": [
        {
          "internalType": "bytes32",
          "name": "orderHash",
          "type": "bytes32"
        }
      ],
      "name": "remaining",
      "outputs": [
        {
          "internalType": "uint256",
          "name": "",
          "type": "uint256"
        }
      ],
      "stateMutability": "view",
      "type": "function"
    },
    {
      "inputs": [
        {
          "internalType": "bytes32",
          "name": "orderHash",
          "type": "bytes32"
        }
      ],
      "name": "remainingRaw",
      "outputs": [
        {
          "internalType": "uint256",
          "name": "",
          "type": "uint256"
        }
      ],
      "stateMutability": "view",
      "type": "function"
    },
    {
      "inputs": [
        {
          "internalType": "bytes32[]",
          "name": "orderHashes",
          "type": "bytes32[]"
        }
      ],
      "name": "remainingsRaw",
      "outputs": [
        {
          "internalType": "uint256[]",
          "name": "",
          "type": "uint256[]"
        }
      ],
      "stateMutability": "view",
      "type": "function"
    },
    {
      "inputs": [
        {
          "internalType": "address[]",
          "name": "targets",
          "type": "address[]"
        },
        {
          "internalType": "bytes[]",
          "name": "data",
          "type": "bytes[]"
        }
      ],
      "name": "simulateCalls",
      "outputs": [],
      "stateMutability": "nonpayable",
      "type": "function"
    },
    {
      "inputs": [
        {
          "internalType": "contract AggregatorV3Interface",
          "name": "oracle",
          "type": "address"
        },
        {
          "internalType": "uint256",
          "name": "inverseAndSpread",
          "type": "uint256"
        },
        {
          "internalType": "uint256",
          "name": "amount",
          "type": "uint256"
        }
      ],
      "name": "singlePrice",
      "outputs": [
        {
          "internalType": "uint256",
          "name": "",
          "type": "uint256"
        }
      ],
      "stateMutability": "view",
      "type": "function"
    },
    {
      "inputs": [
        {
          "internalType": "uint256",
          "name": "time",
          "type": "uint256"
        }
      ],
      "name": "timestampBelow",
      "outputs": [
        {
          "internalType": "bool",
          "name": "",
          "type": "bool"
        }
      ],
      "stateMutability": "view",
      "type": "function"
    }
  ],
  "transactionHash": "0xe5be047540e2db1a48240f0397ac68b25daf046327e97b5e04cbb42b13760f11",
  "args": [],
  "numDeployments": 1,
  "solcInputHash": "a8c495643c9a610e012d1854b2fd5718",
  "bytecode": "0x6101406040523480156200001257600080fd5b50604080518082018252601a81527f31696e6368204c696d6974204f726465722050726f746f636f6c0000000000006020808301918252835180850190945260018452601960f91b908401528151902060e08190527fad7c5bef027816a800da1736444fb58a807ef4c9603b7848673f7e3a68eb14a56101008190524660a0529192917f8b73c3c69bb8fe3d512ecc4cf759cc79239f7b179b0ffacaa9a75d522b39400f620001068184846040805160208101859052908101839052606081018290524660808201523060a082015260009060c0016040516020818303038152906040528051906020012090509392505050565b6080523060c05261012052506200011c92505050565b60805160a05160c05160e05161010051610120516156f16200016c6000396000612af101526000612b4001526000612b1b01526000612a7401526000612a9e01526000612ac801526156f16000f3fe608060405234801561001057600080fd5b506004361061020b5760003560e01c8063825caba11161012a578063bc1ed74c116100bd578063cf6fc6e31161008c578063e613330111610071578063e6133301146104e4578063f4a215c3146104f7578063fa1cb9f21461050a57600080fd5b8063cf6fc6e314610497578063d0a3b665146104d157600080fd5b8063bc1ed74c14610456578063bf15fcd814610469578063c05435f11461047c578063c53a02921461048f57600080fd5b8063a65a0e71116100f9578063a65a0e711461040a578063b244b4501461041d578063b2610fe314610430578063baba58551461044357600080fd5b8063825caba1146103b1578063871919d5146103c4578063942461bb146103d7578063961d5b1e146103f757600080fd5b806356f16124116101a257806370ae92d21161017157806370ae92d21461034957806372c244a8146103695780637e54f0921461037e5780637f29a59d1461039e57600080fd5b806356f16124146102fd5780636073cc201461031057806363592c2b14610323578063655d13cd1461033657600080fd5b8063331f9d1b116101de578063331f9d1b146102935780633644e515146102a65780634cc4a27b146102ae57806354dd5f74146102d657600080fd5b8063057702e91461021057806306bf53d014610238578063296637bf1461026d57806332565d6114610280575b600080fd5b61022361021e366004614648565b61051d565b60405190151581526020015b60405180910390f35b61025f7f74ab4f0cde46aaf927859983f7d04002116dd057d4c4941f6dbfb775c3e31f4581565b60405190815260200161022f565b61025f61027b3660046146a1565b610613565b61022361028e366004614648565b610649565b61025f6102a13660046146cd565b610738565b61025f610a7e565b6102c16102bc366004614808565b610a8d565b6040805192835260208301919091520161022f565b61025f7f7b63e94209420c4f6a2a8ca90b36938c948908697db47a5dc7f8e692ead4991a81565b61025f61030b3660046148b6565b610abe565b6102c161031e366004614a92565b610af6565b610223610331366004614b5a565b421090565b6102c1610344366004614b73565b610ba8565b61025f610357366004614bf6565b60006020819052908152604090205481565b61037c610377366004614c13565b610bc9565b005b61025f61038c366004614b5a565b60009081526001602052604090205490565b61037c6103ac366004614c7b565b610c36565b61037c6103bf366004614b5a565b610ee9565b6102236103d2366004614648565b610ef6565b6103ea6103e5366004614ce7565b610fe5565b60405161022f9190614d81565b610223610405366004614c7b565b61109e565b610223610418366004614dc5565b61129a565b61037c61042b366004614dc5565b61135e565b6102c161043e366004614dfa565b6114bb565b6102c1610451366004614e95565b611d1e565b61025f610464366004614b5a565b6122df565b61025f610477366004614f14565b61237d565b61025f61048a366004614f64565b612401565b61037c6125e5565b6102236104a53660046148b6565b73ffffffffffffffffffffffffffffffffffffffff919091166000908152602081905260409020541490565b6102c16104df366004614f99565b6125f1565b6102236104f2366004614c7b565b612610565b61025f6105053660046146a1565b6127db565b61025f610518366004614dc5565b6127e8565b600080610580836040518060400160405280600681526020017f50483a20677400000000000000000000000000000000000000000000000000008152508673ffffffffffffffffffffffffffffffffffffffff166128c39092919063ffffffff16565b905080516020146105f2576040517f08c379a000000000000000000000000000000000000000000000000000000000815260206004820152601760248201527f50483a20696e76616c69642063616c6c20726573756c7400000000000000000060448201526064015b60405180910390fd5b84818060200190518101906106079190615002565b119150505b9392505050565b600083600181610623868661504a565b61062d9190615087565b610637919061509f565b61064191906150b6565b949350505050565b6000806106ac836040518060400160405280600681526020017f50483a20657100000000000000000000000000000000000000000000000000008152508673ffffffffffffffffffffffffffffffffffffffff166128c39092919063ffffffff16565b90508051602014610719576040517f08c379a000000000000000000000000000000000000000000000000000000000815260206004820152601760248201527f50483a20696e76616c69642063616c6c20726573756c7400000000000000000060448201526064016105e9565b848180602001905181019061072e9190615002565b1495945050505050565b60008473ffffffffffffffffffffffffffffffffffffffff1663313ce5676040518163ffffffff1660e01b8152600401602060405180830381865afa158015610785573d6000803e3d6000fd5b505050506040513d602081101561079b57600080fd5b5051604080517f313ce567000000000000000000000000000000000000000000000000000000008152905160ff9092169173ffffffffffffffffffffffffffffffffffffffff89169163313ce5679160048083019260209291908290030181865afa15801561080e573d6000803e3d6000fd5b505050506040513d602081101561082457600080fd5b505160ff161461089557604080517f08c379a000000000000000000000000000000000000000000000000000000000815260206004820152601f60248201527f43433a206f7261636c6520646563696d616c7320646f6e2774206d6174636800604482015290519081900360640190fd5b60008673ffffffffffffffffffffffffffffffffffffffff1663feaf968c6040518163ffffffff1660e01b815260040160a060405180830381865afa1580156108e2573d6000803e3d6000fd5b505050506040513d60a08110156108f857600080fd5b5060200151604080517ffeaf968c000000000000000000000000000000000000000000000000000000008152905191925060009173ffffffffffffffffffffffffffffffffffffffff89169163feaf968c9160048083019260a09291908290030181865afa15801561096e573d6000803e3d6000fd5b505050506040513d60a081101561098457600080fd5b5060200151905060008513156109fa57633b9aca006109a2826129ea565b6109ab876129ea565b6109b690600a615211565b6109bf856129ea565b6109c98a8961504a565b6109d3919061504a565b6109dd919061504a565b6109e791906150b6565b6109f191906150b6565b92505050610a75565b6000851215610a5457610a14610a0f8661521d565b6129ea565b610a1f90600a615211565b633b9aca00610a2d836129ea565b610a36856129ea565b610a408a8961504a565b610a4a919061504a565b6109dd91906150b6565b633b9aca00610a62826129ea565b610a6b846129ea565b6109d3898861504a565b95945050505050565b6000610a88612a5a565b905090565b600080610a9f8a604001518585612b8e565b610aad8a8a8a8a8a8a611d1e565b915091509850989650505050505050565b73ffffffffffffffffffffffffffffffffffffffff821660009081526002602090815260408083208484529091529020545b92915050565b6000806014831015610b64576040517f08c379a000000000000000000000000000000000000000000000000000000000815260206004820152601a60248201527f4c4f503a207065726d6974206c656e67746820746f6f206c6f7700000000000060448201526064016105e9565b6000366000610b738787612edd565b925092509250610b84838383612b8e565b610b938e8e8e8e8e8e8e6114bb565b94509450505050995099975050505050505050565b600080610bba888888888888336114bb565b91509150965096945050505050565b33600090815260208190526040812054610be79060ff841690615087565b33600081815260208181526040918290208490558151848152915193945091927ffc69110dd11eb791755e4abd6b7d281bae236de95736d38a23782814be5e10db929181900390910190a25050565b828114610c9f576040517f08c379a000000000000000000000000000000000000000000000000000000000815260206004820152601860248201527f4c4f503a2061727261792073697a65206d69736d61746368000000000000000060448201526064016105e9565b60008367ffffffffffffffff811115610cba57610cba614512565b6040519080825280601f01601f191660200182016040528015610ce4576020820181803683370190505b50905060005b84811015610e7957600080878784818110610d0757610d07615256565b9050602002016020810190610d1c9190614bf6565b73ffffffffffffffffffffffffffffffffffffffff16868685818110610d4457610d44615256565b9050602002810190610d569190615285565b604051610d649291906152ea565b6000604051808303816000865af19150503d8060008114610da1576040519150601f19603f3d011682016040523d82523d6000602084013e610da6565b606091505b5091509150818015610db9575060008151115b15610dd65780516020148015610dd3575060208101516001145b91505b81610e01577f3000000000000000000000000000000000000000000000000000000000000000610e23565b7f31000000000000000000000000000000000000000000000000000000000000005b848481518110610e3557610e35615256565b60200101907effffffffffffffffffffffffffffffffffffffffffffffffffffffffffffff1916908160001a90535050508080610e71906152fa565b915050610cea565b5080604051602001610e8b919061535f565b604080517fffffffffffffffffffffffffffffffffffffffffffffffffffffffffffffffe0818403018152908290527f08c379a00000000000000000000000000000000000000000000000000000000082526105e9916004016153ee565b610ef33382612f06565b50565b600080610f59836040518060400160405280600681526020017f50483a206c7400000000000000000000000000000000000000000000000000008152508673ffffffffffffffffffffffffffffffffffffffff166128c39092919063ffffffff16565b90508051602014610fc6576040517f08c379a000000000000000000000000000000000000000000000000000000000815260206004820152601760248201527f50483a20696e76616c69642063616c6c20726573756c7400000000000000000060448201526064016105e9565b8481806020019051810190610fdb9190615002565b1095945050505050565b60606000825167ffffffffffffffff81111561100357611003614512565b60405190808252806020026020018201604052801561102c578160200160208202803683370190505b50905060005b8351811015611097576001600085838151811061105157611051615256565b602002602001015181526020019081526020016000205482828151811061107a5761107a615256565b60209081029190910101528061108f816152fa565b915050611032565b5092915050565b6000838214611109576040517f08c379a000000000000000000000000000000000000000000000000000000000815260206004820152601d60248201527f50483a20696e7075742061727261792073697a65206d69736d6174636800000060448201526064016105e9565b60005b8481101561128e5760006111eb85858481811061112b5761112b615256565b905060200281019061113d9190615285565b8080601f0160208091040260200160405190810160405280939291908181526020018383808284376000920191909152505060408051808201909152601881527f50483a2027616e64272073756263616c6c206661696c65640000000000000000602082015291508a905089868181106111b9576111b9615256565b90506020020160208101906111ce9190614bf6565b73ffffffffffffffffffffffffffffffffffffffff1691906128c3565b90508051602014611258576040517f08c379a000000000000000000000000000000000000000000000000000000000815260206004820152601760248201527f50483a20696e76616c69642063616c6c20726573756c7400000000000000000060448201526064016105e9565b8080602001905181019061126c9190615401565b61127b57600092505050610641565b5080611286816152fa565b91505061110c565b50600195945050505050565b61018081015160408051808201909152601a81527f4c4f503a207072656469636174652063616c6c206661696c6564000000000000602082015260009182916112e49130916128c3565b90508051602014611351576040517f08c379a000000000000000000000000000000000000000000000000000000000815260206004820152601d60248201527f4c4f503a20696e76616c6964207072656469636174652072657475726e00000060448201526064016105e9565b602081015160011461060c565b606081015173ffffffffffffffffffffffffffffffffffffffff1633146113e1576040517f08c379a000000000000000000000000000000000000000000000000000000000815260206004820152601260248201527f4c4f503a204163636573732064656e696564000000000000000000000000000060448201526064016105e9565b60006113ec826127e8565b60008181526001602081905260409091205491925081141561146a576040517f08c379a000000000000000000000000000000000000000000000000000000000815260206004820152601360248201527f4c4f503a20616c72656164792066696c6c65640000000000000000000000000060448201526064016105e9565b604080518381526020810183905233917fcbfa7d191838ece7ba4783ca3a30afd316619b7f368094b57ee7ffde9a923db1910160405180910390a25060009081526001602081905260409091205550565b60008073ffffffffffffffffffffffffffffffffffffffff831661153b576040517f08c379a000000000000000000000000000000000000000000000000000000000815260206004820152601d60248201527f4c4f503a207a65726f2074617267657420697320666f7262696464656e00000060448201526064016105e9565b60006115468a6127e8565b6000818152600160208190526040909120549192508114156115c4576040517f08c379a000000000000000000000000000000000000000000000000000000000815260206004820152601a60248201527f4c4f503a2072656d61696e696e6720616d6f756e74206973203000000000000060448201526064016105e9565b60a08b015173ffffffffffffffffffffffffffffffffffffffff161580611604575060a08b015173ffffffffffffffffffffffffffffffffffffffff1633145b61166a576040517f08c379a000000000000000000000000000000000000000000000000000000000815260206004820152601260248201527f4c4f503a2070726976617465206f72646572000000000000000000000000000060448201526064016105e9565b806117f7576116b48b60600151838c8c8080601f016020809104026020016040519081016040528093929190818152602001838380828437600092019190915250612fd292505050565b61171a576040517f08c379a000000000000000000000000000000000000000000000000000000000815260206004820152601260248201527f4c4f503a20626164207369676e6174757265000000000000000000000000000060448201526064016105e9565b8a60c00151905060148b6101a0015151106117f25760008061176b8d6101a0015160148101805191517fffffffffffffffffffffffffffffffffffffffffffffffffffffffffffffffec0181529091565b9150915061177982826131c1565b600084815260016020526040902054156117ef576040517f08c379a000000000000000000000000000000000000000000000000000000000815260206004820152601860248201527f4c4f503a207265656e7472616e6379206465746563746564000000000000000060448201526064016105e9565b50505b61181a565b7fffffffffffffffffffffffffffffffffffffffffffffffffffffffffffffffff015b6101808b015151156118955761182f8b61129a565b611895576040517f08c379a000000000000000000000000000000000000000000000000000000000815260206004820152601d60248201527f4c4f503a207072656469636174652072657475726e65642066616c736500000060448201526064016105e9565b861588151415611901576040517f08c379a000000000000000000000000000000000000000000000000000000000815260206004820181905260248201527f4c4f503a206f6e6c79206f6e6520616d6f756e742073686f756c64206265203060448201526064016105e9565b866119b0578781811115611913578198505b61192c8c61016001518d60c001518b8f60e00151613449565b9750611938898861504a565b611942828a61504a565b11156119aa576040517f08c379a000000000000000000000000000000000000000000000000000000000815260206004820152601b60248201527f4c4f503a2074616b696e6720616d6f756e7420746f6f2068696768000000000060448201526064016105e9565b50611a75565b60008790506119ce8c61014001518d60e001518a8f60c00151613449565b9850818911156119f7578198506119f48c61016001518d60c001518b8f60e00151613449565b97505b611a01888861504a565b611a0b828b61504a565b1015611a73576040517f08c379a000000000000000000000000000000000000000000000000000000000815260206004820152601a60248201527f4c4f503a206d616b696e6720616d6f756e7420746f6f206c6f7700000000000060448201526064016105e9565b505b600088118015611a855750600087115b611aeb576040517f08c379a000000000000000000000000000000000000000000000000000000000815260206004820152601860248201527f4c4f503a2063616e27742073776170203020616d6f756e74000000000000000060448201526064016105e9565b600082815260016020818152604092839020938b900391820190935581518481529283018190529133917fb9ed0243fdf00f0545c63a0af8850c090d86bb46682baec4bf3c496814fe4f02910160405180910390a25060408a015160808b0151611be391907f23b872dd0000000000000000000000000000000000000000000000000000000090339073ffffffffffffffffffffffffffffffffffffffff1615611b99578d60800151611b9f565b8d606001515b6101208f0151604051611bcf94939273ffffffffffffffffffffffffffffffffffffffff16918d91602001615423565b6040516020818303038152906040526135b7565b60148a6101c001515110611cb157600080611c2d8c6101c0015160148101805191517fffffffffffffffffffffffffffffffffffffffffffffffffffffffffffffffec0181529091565b915091508173ffffffffffffffffffffffffffffffffffffffff1663cf21c775338e602001518f604001518d8d876040518763ffffffff1660e01b8152600401611c7c96959493929190615480565b600060405180830381600087803b158015611c9657600080fd5b505af1158015611caa573d6000803e3d6000fd5b5050505050505b611d0e8a602001516323b872dd60e01b8c6060015173ffffffffffffffffffffffffffffffffffffffff168773ffffffffffffffffffffffffffffffffffffffff168b8f6101000151604051602001611bcf959493929190615423565b5094989397509295505050505050565b60008073ffffffffffffffffffffffffffffffffffffffff8316611d9e576040517f08c379a000000000000000000000000000000000000000000000000000000000815260206004820152601d60248201527f4c4f503a207a65726f2074617267657420697320666f7262696464656e00000060448201526064016105e9565b6060880151608089015173ffffffffffffffffffffffffffffffffffffffff161580611de35750608089015173ffffffffffffffffffffffffffffffffffffffff1633145b611e49576040517f08c379a000000000000000000000000000000000000000000000000000000000815260206004820152601260248201527f4c4f503a2070726976617465206f72646572000000000000000000000000000060448201526064016105e9565b6000611f0d7f74ab4f0cde46aaf927859983f7d04002116dd057d4c4941f6dbfb775c3e31f458b604051602001611ef292919060006101008201905083825282516020830152602083015173ffffffffffffffffffffffffffffffffffffffff80821660408501528060408601511660608501528060608601511660808501528060808601511660a0850152505060a083015160c083015260c083015160e08301529392505050565b6040516020818303038152906040528051906020012061369e565b9050611f5082828b8b8080601f016020809104026020016040519081016040528093929190818152602001838380828437600092019190915250612fd292505050565b611fb6576040517f08c379a000000000000000000000000000000000000000000000000000000000815260206004820152601260248201527f4c4f503a20626164207369676e6174757265000000000000000000000000000060448201526064016105e9565b895167ffffffffffffffff604082901c16801580611fd45750804211155b61203a576040517f08c379a000000000000000000000000000000000000000000000000000000000815260206004820152601260248201527f4c4f503a206f726465722065787069726564000000000000000000000000000060448201526064016105e9565b6120448483612f06565b505060a08a015160c08b01518715801561205c575088155b1561206c578198508097506121d0565b876120ed57818911156120db576040517f08c379a000000000000000000000000000000000000000000000000000000000815260206004820152601b60248201527f4c4f503a206d616b696e6720616d6f756e74206578636565646564000000000060448201526064016105e9565b6120e682828b610613565b97506121d0565b8861216e578088111561215c576040517f08c379a000000000000000000000000000000000000000000000000000000000815260206004820152601b60248201527f4c4f503a2074616b696e6720616d6f756e74206578636565646564000000000060448201526064016105e9565b61216782828a6127db565b98506121d0565b6040517f08c379a000000000000000000000000000000000000000000000000000000000815260206004820152601e60248201527f4c4f503a20626f746820616d6f756e747320617265206e6f6e2d7a65726f000060448201526064016105e9565b50506000871180156121e25750600086115b612248576040517f08c379a000000000000000000000000000000000000000000000000000000000815260206004820152601860248201527f4c4f503a2063616e27742073776170203020616d6f756e74000000000000000060448201526064016105e9565b60208a015161226f9073ffffffffffffffffffffffffffffffffffffffff1683878a613707565b60408a01516122969073ffffffffffffffffffffffffffffffffffffffff16338489613707565b60408051828152602081018990527fc3b639f02b125bfa160e50739b8c44eb2d1b6908e2b6d5925c6d770f2ca78127910160405180910390a15094989397509295505050505050565b60008181526001602052604081205480612355576040517f08c379a000000000000000000000000000000000000000000000000000000000815260206004820152601260248201527f4c4f503a20556e6b6e6f776e206f72646572000000000000000000000000000060448201526064016105e9565b7fffffffffffffffffffffffffffffffffffffffffffffffffffffffffffffffff0192915050565b6000806123e0836040518060400160405280601781526020017f41433a2061726269747261727953746174696343616c6c0000000000000000008152508673ffffffffffffffffffffffffffffffffffffffff166128c39092919063ffffffff16565b90508080602001905160208110156123f757600080fd5b5051949350505050565b6000808473ffffffffffffffffffffffffffffffffffffffff1663feaf968c6040518163ffffffff1660e01b815260040160a060405180830381865afa15801561244f573d6000803e3d6000fd5b505050506040513d60a081101561246557600080fd5b506020015190507f80000000000000000000000000000000000000000000000000000000000000008416158015907f7fffffffffffffffffffffffffffffffffffffffffffffffffffffffffffffff86169061256957633b9aca006124c9846129ea565b8873ffffffffffffffffffffffffffffffffffffffff1663313ce5676040518163ffffffff1660e01b8152600401602060405180830381865afa158015612514573d6000803e3d6000fd5b505050506040513d602081101561252a57600080fd5b505161253790600a6154cd565b612541848961504a565b61254b919061504a565b61255591906150b6565b61255f91906150b6565b935050505061060c565b633b9aca008773ffffffffffffffffffffffffffffffffffffffff1663313ce5676040518163ffffffff1660e01b8152600401602060405180830381865afa1580156125b9573d6000803e3d6000fd5b505050506040513d60208110156125cf57600080fd5b50516125dc90600a6154cd565b612537856129ea565b6125ef6001610bc9565b565b600080612602878787878733611d1e565b915091509550959350505050565b600083821461267b576040517f08c379a000000000000000000000000000000000000000000000000000000000815260206004820152601d60248201527f50483a20696e7075742061727261792073697a65206d69736d6174636800000060448201526064016105e9565b60005b848110156127cf57600061272b85858481811061269d5761269d615256565b90506020028101906126af9190615285565b8080601f0160208091040260200160405190810160405280939291908181526020018383808284376000920191909152505060408051808201909152601781527f50483a20276f72272073756263616c6c206661696c6564000000000000000000602082015291508a905089868181106111b9576111b9615256565b90508051602014612798576040517f08c379a000000000000000000000000000000000000000000000000000000000815260206004820152601760248201527f50483a20696e76616c69642063616c6c20726573756c7400000000000000000060448201526064016105e9565b808060200190518101906127ac9190615401565b156127bc57600192505050610641565b50806127c7816152fa565b91505061267e565b50600095945050505050565b600082610637858461504a565b6040805161010081018252600080825260208201819052918101829052606081018290526080810182905260a0810182905260c0810182905260e0810182905282905061060c7f7b63e94209420c4f6a2a8ca90b36938c948908697db47a5dc7f8e692ead4991a8285610100015180519060200120866101200151805190602001208761014001518051906020012088610160015180519060200120896101800151805190602001208a6101a00151805190602001208b6101c0015180519060200120604051602001611ef2999897969594939291906154dc565b606073ffffffffffffffffffffffffffffffffffffffff84163b612968576040517f08c379a0000000000000000000000000000000000000000000000000000000008152602060048201526024808201527f416464726573733a207374617469632063616c6c20746f206e6f6e2d636f6e7460448201527f726163740000000000000000000000000000000000000000000000000000000060648201526084016105e9565b6000808573ffffffffffffffffffffffffffffffffffffffff168560405161299091906155c9565b600060405180830381855afa9150503d80600081146129cb576040519150601f19603f3d011682016040523d82523d6000602084013e6129d0565b606091505b50915091506129e082828661379c565b9695505050505050565b600080821215612a56576040517f08c379a000000000000000000000000000000000000000000000000000000000815260206004820181905260248201527f53616665436173743a2076616c7565206d75737420626520706f73697469766560448201526064016105e9565b5090565b60003073ffffffffffffffffffffffffffffffffffffffff7f000000000000000000000000000000000000000000000000000000000000000016148015612ac057507f000000000000000000000000000000000000000000000000000000000000000046145b15612aea57507f000000000000000000000000000000000000000000000000000000000000000090565b50604080517f00000000000000000000000000000000000000000000000000000000000000006020808301919091527f0000000000000000000000000000000000000000000000000000000000000000828401527f000000000000000000000000000000000000000000000000000000000000000060608301524660808301523060a0808401919091528351808403909101815260c0909201909252805191012090565b8015612ed8576000606060e0831415612ccb576040517fd505accf000000000000000000000000000000000000000000000000000000006020820181815273ffffffffffffffffffffffffffffffffffffffff881692879187916024018383808284378083019250505093505050506040516020818303038152906040526040518082805190602001908083835b60208310612c5957805182527fffffffffffffffffffffffffffffffffffffffffffffffffffffffffffffffe09092019160209182019101612c1c565b6001836020036101000a0380198251168184511680821785525050505050509050019150506000604051808303816000865af19150503d8060008114612cbb576040519150601f19603f3d011682016040523d82523d6000602084013e612cc0565b606091505b509092509050612df3565b610100831415612d8c576040517f8fcbaf0c000000000000000000000000000000000000000000000000000000006020820181815273ffffffffffffffffffffffffffffffffffffffff8816928791879160240183838082843780830192505050935050505060405160208183030381529060405260405180828051906020019080838360208310612c5957805182527fffffffffffffffffffffffffffffffffffffffffffffffffffffffffffffffe09092019160209182019101612c1c565b604080517f08c379a000000000000000000000000000000000000000000000000000000000815260206004820152601360248201527f57726f6e67207065726d6974206c656e67746800000000000000000000000000604482015290519081900360640190fd5b81612ed557612e37816040518060400160405280600f81526020017f5065726d6974206661696c65643a2000000000000000000000000000000000008152506137ef565b6040517f08c379a00000000000000000000000000000000000000000000000000000000081526004018080602001828103825283818151815260200191508051906020019080838360005b83811015612e9a578181015183820152602001612e82565b50505050905090810190601f168015612ec75780820380516001836020036101000a031916815260200191505b509250505060405180910390fd5b50505b505050565b60003681843560601c8282612ef5876014818b6155e5565b939650945091925050509250925092565b73ffffffffffffffffffffffffffffffffffffffff8216600090815260026020908152604080832066ffffffffffffff600886901c16808552928190529220549091600160ff85161b9180831615612fba576040517f08c379a000000000000000000000000000000000000000000000000000000000815260206004820152601660248201527f4c4f503a20696e76616c696461746564206f726465720000000000000000000060448201526064016105e9565b60009384526020919091526040909220911790555050565b6000806000612fe18585613d8a565b90925090506000816004811115612ffa57612ffa61560f565b14801561303257508573ffffffffffffffffffffffffffffffffffffffff168273ffffffffffffffffffffffffffffffffffffffff16145b156130425760019250505061060c565b6000808773ffffffffffffffffffffffffffffffffffffffff16631626ba7e60e01b888860405160240161307792919061563e565b604080517fffffffffffffffffffffffffffffffffffffffffffffffffffffffffffffffe08184030181529181526020820180517bffffffffffffffffffffffffffffffffffffffffffffffffffffffff167fffffffff0000000000000000000000000000000000000000000000000000000090941693909317909252905161310091906155c9565b600060405180830381855afa9150503d806000811461313b576040519150601f19603f3d011682016040523d82523d6000602084013e613140565b606091505b5091509150818015613153575080516020145b80156131b5575080517f1626ba7e00000000000000000000000000000000000000000000000000000000906131919083016020908101908401615657565b7fffffffff0000000000000000000000000000000000000000000000000000000016145b98975050505050505050565b8051156134455760006060825160e0141561335f578373ffffffffffffffffffffffffffffffffffffffff1663d505accf60e01b8460405160200180837bffffffffffffffffffffffffffffffffffffffffffffffffffffffff1916815260040182805190602001908083835b6020831061326b57805182527fffffffffffffffffffffffffffffffffffffffffffffffffffffffffffffffe0909201916020918201910161322e565b6001836020036101000a038019825116818451168082178552505050505050905001925050506040516020818303038152906040526040518082805190602001908083835b602083106132ed57805182527fffffffffffffffffffffffffffffffffffffffffffffffffffffffffffffffe090920191602091820191016132b0565b6001836020036101000a0380198251168184511680821785525050505050509050019150506000604051808303816000865af19150503d806000811461334f576040519150601f19603f3d011682016040523d82523d6000602084013e613354565b606091505b5090925090506133fe565b82516101001415612d8c578373ffffffffffffffffffffffffffffffffffffffff16638fcbaf0c60e01b8460405160200180837bffffffffffffffffffffffffffffffffffffffffffffffffffffffff1916815260040182805190602001908083836020831061326b57805182527fffffffffffffffffffffffffffffffffffffffffffffffffffffffffffffffe0909201916020918201910161322e565b8161344257612e37816040518060400160405280600f81526020017f5065726d6974206661696c65643a2000000000000000000000000000000000008152506137ef565b50505b5050565b60008451600014156134c5578383146134be576040517f08c379a000000000000000000000000000000000000000000000000000000000815260206004820152601160248201527f4c4f503a2077726f6e6720616d6f756e7400000000000000000000000000000060448201526064016105e9565b5080610641565b600061353f86856040516020016134dd929190615699565b604080517fffffffffffffffffffffffffffffffffffffffffffffffffffffffffffffffe0818403018152828201909152601a82527f4c4f503a20676574416d6f756e742063616c6c206661696c6564000000000000602083015230916128c3565b905080516020146135ac576040517f08c379a000000000000000000000000000000000000000000000000000000000815260206004820152601d60248201527f4c4f503a20696e76616c696420676574416d6f756e742072657475726e00000060448201526064016105e9565b602001519050610641565b6000613619826040518060400160405280601681526020017f4c4f503a2061737365742e63616c6c206661696c6564000000000000000000008152508573ffffffffffffffffffffffffffffffffffffffff16613dfa9092919063ffffffff16565b805190915015612ed85780516020148015613638575060208101516001145b612ed8576040517f08c379a000000000000000000000000000000000000000000000000000000000815260206004820152601a60248201527f4c4f503a2061737365742e63616c6c2062616420726573756c7400000000000060448201526064016105e9565b6000610af06136ab612a5a565b836040517f19010000000000000000000000000000000000000000000000000000000000006020820152602281018390526042810182905260009060620160405160208183030381529060405280519060200120905092915050565b6040805173ffffffffffffffffffffffffffffffffffffffff85811660248301528416604482015260648082018490528251808303909101815260849091019091526020810180517bffffffffffffffffffffffffffffffffffffffffffffffffffffffff167f23b872dd00000000000000000000000000000000000000000000000000000000179052613442908590613e09565b606083156137ab57508161060c565b8251156137bb5782518084602001fd5b816040517f08c379a00000000000000000000000000000000000000000000000000000000081526004016105e991906153ee565b60606004835110613c1e5760208301517fffffffff0000000000000000000000000000000000000000000000000000000081167f08c379a00000000000000000000000000000000000000000000000000000000014801561385257506044845110155b15613a5357602484810151808601820180519192909190613874908490615087565b61387e9190615087565b865110156138ed57604080517f08c379a000000000000000000000000000000000000000000000000000000000815260206004820152601560248201527f496e76616c69642072657665727420726561736f6e0000000000000000000000604482015290519081900360640190fd5b84816040516020018083805190602001908083835b6020831061393f57805182527fffffffffffffffffffffffffffffffffffffffffffffffffffffffffffffffe09092019160209182019101613902565b51815160209384036101000a7fffffffffffffffffffffffffffffffffffffffffffffffffffffffffffffffff01801990921691161790527f4572726f72280000000000000000000000000000000000000000000000000000919093019081528451600690910192850191508083835b602083106139ec57805182527fffffffffffffffffffffffffffffffffffffffffffffffffffffffffffffffe090920191602091820191016139af565b6001836020036101000a038019825116818451168082178552505050505050905001807f2900000000000000000000000000000000000000000000000000000000000000815250600101925050506040516020818303038152906040529350505050610af0565b7fffffffff0000000000000000000000000000000000000000000000000000000081167f4e487b7100000000000000000000000000000000000000000000000000000000148015613aa5575083516024145b15613c1c57602484015183613ab982613f15565b6040516020018083805190602001908083835b60208310613b0957805182527fffffffffffffffffffffffffffffffffffffffffffffffffffffffffffffffe09092019160209182019101613acc565b51815160209384036101000a7fffffffffffffffffffffffffffffffffffffffffffffffffffffffffffffffff01801990921691161790527f50616e6963280000000000000000000000000000000000000000000000000000919093019081528451600690910192850191508083835b60208310613bb657805182527fffffffffffffffffffffffffffffffffffffffffffffffffffffffffffffffe09092019160209182019101613b79565b6001836020036101000a038019825116818451168082178552505050505050905001807f29000000000000000000000000000000000000000000000000000000000000008152506001019250505060405160208183030381529060405292505050610af0565b505b81613c2884613f3b565b6040516020018083805190602001908083835b60208310613c7857805182527fffffffffffffffffffffffffffffffffffffffffffffffffffffffffffffffe09092019160209182019101613c3b565b51815160209384036101000a7fffffffffffffffffffffffffffffffffffffffffffffffffffffffffffffffff01801990921691161790527f556e6b6e6f776e28000000000000000000000000000000000000000000000000919093019081528451600890910192850191508083835b60208310613d2557805182527fffffffffffffffffffffffffffffffffffffffffffffffffffffffffffffffe09092019160209182019101613ce8565b6001836020036101000a038019825116818451168082178552505050505050905001807f290000000000000000000000000000000000000000000000000000000000000081525060010192505050604051602081830303815290604052905092915050565b600080825160411415613dc15760208301516040840151606085015160001a613db5878285856141e0565b94509450505050613df3565b825160401415613deb5760208301516040840151613de08683836142f8565b935093505050613df3565b506000905060025b9250929050565b6060610641848460008561434a565b6000613e6b826040518060400160405280602081526020017f5361666545524332303a206c6f772d6c6576656c2063616c6c206661696c65648152508573ffffffffffffffffffffffffffffffffffffffff16613dfa9092919063ffffffff16565b805190915015612ed85780806020019051810190613e899190615401565b612ed8576040517f08c379a000000000000000000000000000000000000000000000000000000000815260206004820152602a60248201527f5361666545524332303a204552433230206f7065726174696f6e20646964206e60448201527f6f7420737563636565640000000000000000000000000000000000000000000060648201526084016105e9565b6060610af082604051602001808281526020019150506040516020818303038152906040525b80516060907f303132333435363738396162636465660000000000000000000000000000000090600090613f7090600261504a565b613f7b906002615087565b67ffffffffffffffff811115613f9357613f93614512565b6040519080825280601f01601f191660200182016040528015613fbd576020820181803683370190505b5090507f300000000000000000000000000000000000000000000000000000000000000081600081518110613ff457613ff4615256565b60200101907effffffffffffffffffffffffffffffffffffffffffffffffffffffffffffff1916908160001a9053507f78000000000000000000000000000000000000000000000000000000000000008160018151811061405757614057615256565b60200101907effffffffffffffffffffffffffffffffffffffffffffffffffffffffffffff1916908160001a90535060005b84518110156141d8578260048683815181106140a7576140a7615256565b01602001517fff0000000000000000000000000000000000000000000000000000000000000016901c60f81c601081106140e3576140e3615256565b1a60f81b826140f383600261504a565b6140fe906002615087565b8151811061410e5761410e615256565b60200101907effffffffffffffffffffffffffffffffffffffffffffffffffffffffffffff1916908160001a9053508285828151811061415057614150615256565b60209101015160f81c600f166010811061416c5761416c615256565b1a60f81b8261417c83600261504a565b614187906003615087565b8151811061419757614197615256565b60200101907effffffffffffffffffffffffffffffffffffffffffffffffffffffffffffff1916908160001a905350806141d0816152fa565b915050614089565b509392505050565b6000807f7fffffffffffffffffffffffffffffff5d576e7357a4501ddfe92f46681b20a083111561421757506000905060036142ef565b8460ff16601b1415801561422f57508460ff16601c14155b1561424057506000905060046142ef565b6040805160008082526020820180845289905260ff881692820192909252606081018690526080810185905260019060a0016020604051602081039080840390855afa158015614294573d6000803e3d6000fd5b50506040517fffffffffffffffffffffffffffffffffffffffffffffffffffffffffffffffe0015191505073ffffffffffffffffffffffffffffffffffffffff81166142e8576000600192509250506142ef565b9150600090505b94509492505050565b6000807f7fffffffffffffffffffffffffffffffffffffffffffffffffffffffffffffff83168161432e60ff86901c601b615087565b905061433c878288856141e0565b935093505050935093915050565b6060824710156143dc576040517f08c379a000000000000000000000000000000000000000000000000000000000815260206004820152602660248201527f416464726573733a20696e73756666696369656e742062616c616e636520666f60448201527f722063616c6c000000000000000000000000000000000000000000000000000060648201526084016105e9565b73ffffffffffffffffffffffffffffffffffffffff85163b61445a576040517f08c379a000000000000000000000000000000000000000000000000000000000815260206004820152601d60248201527f416464726573733a2063616c6c20746f206e6f6e2d636f6e747261637400000060448201526064016105e9565b6000808673ffffffffffffffffffffffffffffffffffffffff16858760405161448391906155c9565b60006040518083038185875af1925050503d80600081146144c0576040519150601f19603f3d011682016040523d82523d6000602084013e6144c5565b606091505b50915091506144d582828661379c565b979650505050505050565b73ffffffffffffffffffffffffffffffffffffffff81168114610ef357600080fd5b803561450d816144e0565b919050565b7f4e487b7100000000000000000000000000000000000000000000000000000000600052604160045260246000fd5b6040516101e0810167ffffffffffffffff8111828210171561456557614565614512565b60405290565b604051601f82017fffffffffffffffffffffffffffffffffffffffffffffffffffffffffffffffe016810167ffffffffffffffff811182821017156145b2576145b2614512565b604052919050565b600082601f8301126145cb57600080fd5b813567ffffffffffffffff8111156145e5576145e5614512565b61461660207fffffffffffffffffffffffffffffffffffffffffffffffffffffffffffffffe0601f8401160161456b565b81815284602083860101111561462b57600080fd5b816020850160208301376000918101602001919091529392505050565b60008060006060848603121561465d57600080fd5b83359250602084013561466f816144e0565b9150604084013567ffffffffffffffff81111561468b57600080fd5b614697868287016145ba565b9150509250925092565b6000806000606084860312156146b657600080fd5b505081359360208301359350604090920135919050565b600080600080600060a086880312156146e557600080fd5b85356146f0816144e0565b94506020860135614700816144e0565b94979496505050506040830135926060810135926080909101359150565b600060e0828403121561473057600080fd5b60405160e0810181811067ffffffffffffffff8211171561475357614753614512565b60405282358152905080602083013561476b816144e0565b6020820152604083013561477e816144e0565b60408201526060830135614791816144e0565b606082015260808301356147a4816144e0565b8060808301525060a083013560a082015260c083013560c08201525092915050565b60008083601f8401126147d857600080fd5b50813567ffffffffffffffff8111156147f057600080fd5b602083019150836020828501011115613df357600080fd5b600080600080600080600080610180898b03121561482557600080fd5b61482f8a8a61471e565b975060e089013567ffffffffffffffff8082111561484c57600080fd5b6148588c838d016147c6565b90995097506101008b013596506101208b013595506101408b0135915061487e826144e0565b9093506101608a0135908082111561489557600080fd5b506148a28b828c016147c6565b999c989b5096995094979396929594505050565b600080604083850312156148c957600080fd5b82356148d4816144e0565b946020939093013593505050565b60006101e082840312156148f557600080fd5b6148fd614541565b90508135815261490f60208301614502565b602082015261492060408301614502565b604082015261493160608301614502565b606082015261494260808301614502565b608082015261495360a08301614502565b60a082015260c082013560c082015260e082013560e08201526101008083013567ffffffffffffffff8082111561498957600080fd5b614995868387016145ba565b838501526101209250828501359150808211156149b157600080fd5b6149bd868387016145ba565b838501526101409250828501359150808211156149d957600080fd5b6149e5868387016145ba565b83850152610160925082850135915080821115614a0157600080fd5b614a0d868387016145ba565b83850152610180925082850135915080821115614a2957600080fd5b614a35868387016145ba565b838501526101a0925082850135915080821115614a5157600080fd5b614a5d868387016145ba565b838501526101c0925082850135915080821115614a7957600080fd5b50614a86858286016145ba565b82840152505092915050565b600080600080600080600080600060e08a8c031215614ab057600080fd5b893567ffffffffffffffff80821115614ac857600080fd5b614ad48d838e016148e2565b9a5060208c0135915080821115614aea57600080fd5b614af68d838e016147c6565b909a50985060408c0135975060608c0135965060808c0135955060a08c01359150614b20826144e0565b90935060c08b01359080821115614b3657600080fd5b50614b438c828d016147c6565b915080935050809150509295985092959850929598565b600060208284031215614b6c57600080fd5b5035919050565b60008060008060008060a08789031215614b8c57600080fd5b863567ffffffffffffffff80821115614ba457600080fd5b614bb08a838b016148e2565b97506020890135915080821115614bc657600080fd5b50614bd389828a016147c6565b979a90995096976040810135976060820135975060809091013595509350505050565b600060208284031215614c0857600080fd5b813561060c816144e0565b600060208284031215614c2557600080fd5b813560ff8116811461060c57600080fd5b60008083601f840112614c4857600080fd5b50813567ffffffffffffffff811115614c6057600080fd5b6020830191508360208260051b8501011115613df357600080fd5b60008060008060408587031215614c9157600080fd5b843567ffffffffffffffff80821115614ca957600080fd5b614cb588838901614c36565b90965094506020870135915080821115614cce57600080fd5b50614cdb87828801614c36565b95989497509550505050565b60006020808385031215614cfa57600080fd5b823567ffffffffffffffff80821115614d1257600080fd5b818501915085601f830112614d2657600080fd5b813581811115614d3857614d38614512565b8060051b9150614d4984830161456b565b8181529183018401918481019088841115614d6357600080fd5b938501935b838510156131b557843582529385019390850190614d68565b6020808252825182820181905260009190848201906040850190845b81811015614db957835183529284019291840191600101614d9d565b50909695505050505050565b600060208284031215614dd757600080fd5b813567ffffffffffffffff811115614dee57600080fd5b610641848285016148e2565b600080600080600080600060c0888a031215614e1557600080fd5b873567ffffffffffffffff80821115614e2d57600080fd5b614e398b838c016148e2565b985060208a0135915080821115614e4f57600080fd5b50614e5c8a828b016147c6565b90975095505060408801359350606088013592506080880135915060a0880135614e85816144e0565b8091505092959891949750929550565b6000806000806000806101608789031215614eaf57600080fd5b614eb9888861471e565b955060e087013567ffffffffffffffff811115614ed557600080fd5b614ee189828a016147c6565b90965094505061010087013592506101208701359150610140870135614f06816144e0565b809150509295509295509295565b60008060408385031215614f2757600080fd5b8235614f32816144e0565b9150602083013567ffffffffffffffff811115614f4e57600080fd5b614f5a858286016145ba565b9150509250929050565b600080600060608486031215614f7957600080fd5b8335614f84816144e0565b95602085013595506040909401359392505050565b60008060008060006101408688031215614fb257600080fd5b614fbc878761471e565b945060e086013567ffffffffffffffff811115614fd857600080fd5b614fe4888289016147c6565b96999098509596610100810135966101209091013595509350505050565b60006020828403121561501457600080fd5b5051919050565b7f4e487b7100000000000000000000000000000000000000000000000000000000600052601160045260246000fd5b6000817fffffffffffffffffffffffffffffffffffffffffffffffffffffffffffffffff04831182151516156150825761508261501b565b500290565b6000821982111561509a5761509a61501b565b500190565b6000828210156150b1576150b161501b565b500390565b6000826150ec577f4e487b7100000000000000000000000000000000000000000000000000000000600052601260045260246000fd5b500490565b600181815b8085111561514a57817fffffffffffffffffffffffffffffffffffffffffffffffffffffffffffffffff048211156151305761513061501b565b8085161561513d57918102915b93841c93908002906150f6565b509250929050565b60008261516157506001610af0565b8161516e57506000610af0565b8160018114615184576002811461518e576151aa565b6001915050610af0565b60ff84111561519f5761519f61501b565b50506001821b610af0565b5060208310610133831016604e8410600b84101617156151cd575081810a610af0565b6151d783836150f1565b807fffffffffffffffffffffffffffffffffffffffffffffffffffffffffffffffff048211156152095761520961501b565b029392505050565b600061060c8383615152565b60007f800000000000000000000000000000000000000000000000000000000000000082141561524f5761524f61501b565b5060000390565b7f4e487b7100000000000000000000000000000000000000000000000000000000600052603260045260246000fd5b60008083357fffffffffffffffffffffffffffffffffffffffffffffffffffffffffffffffe18436030181126152ba57600080fd5b83018035915067ffffffffffffffff8211156152d557600080fd5b602001915036819003821315613df357600080fd5b8183823760009101908152919050565b60007fffffffffffffffffffffffffffffffffffffffffffffffffffffffffffffffff82141561532c5761532c61501b565b5060010190565b60005b8381101561534e578181015183820152602001615336565b838111156134425750506000910152565b7f43414c4c5f524553554c54535f0000000000000000000000000000000000000081526000825161539781600d850160208701615333565b91909101600d0192915050565b600081518084526153bc816020860160208601615333565b601f017fffffffffffffffffffffffffffffffffffffffffffffffffffffffffffffffe0169290920160200192915050565b60208152600061060c60208301846153a4565b60006020828403121561541357600080fd5b8151801515811461060c57600080fd5b7fffffffff00000000000000000000000000000000000000000000000000000000861681528460048201528360248201528260448201526000825161546f816064850160208701615333565b919091016064019695505050505050565b600073ffffffffffffffffffffffffffffffffffffffff8089168352808816602084015280871660408401525084606083015283608083015260c060a08301526131b560c08301846153a4565b600061060c60ff841683615152565b6000610200820190508a82528951602083015260208a015173ffffffffffffffffffffffffffffffffffffffff80821660408501528060408d01511660608501528060608d0151166080850152505060808a015161555260a084018273ffffffffffffffffffffffffffffffffffffffff169052565b5060a08a015173ffffffffffffffffffffffffffffffffffffffff811660c08401525060c08a015160e083015260e08a015161010083015288610120830152876101408301528661016083015285610180830152846101a0830152836101c0830152826101e08301529a9950505050505050505050565b600082516155db818460208701615333565b9190910192915050565b600080858511156155f557600080fd5b8386111561560257600080fd5b5050820193919092039150565b7f4e487b7100000000000000000000000000000000000000000000000000000000600052602160045260246000fd5b82815260406020820152600061064160408301846153a4565b60006020828403121561566957600080fd5b81517fffffffff000000000000000000000000000000000000000000000000000000008116811461060c57600080fd5b600083516156ab818460208801615333565b919091019182525060200191905056fea26469706673582212201e103fd2ea1406e6d1dd2fce697745adb41b1bc108a047d091a532912c23db3964736f6c634300080b0033",
  "devdoc": {
    "kind": "dev",
    "methods": {
      "and(address[],bytes[])": {
        "returns": {
          "_0": "Result True if calls to all targets returned True. Otherwise, false"
        }
      },
      "arbitraryStaticCall(address,bytes)": {
        "returns": {
          "_0": "Result Bytes transmuted to uint256"
        }
      },
      "doublePrice(address,address,uint256,int256,uint256)": {
        "returns": {
          "_0": "Result Token A relative price times amount"
        }
      },
      "eq(uint256,address,bytes)": {
        "params": {
          "value": "Value to test"
        },
        "returns": {
          "_0": "Result True if call to target returns the same value as `value`. Otherwise, false"
        }
      },
      "fillOrder((uint256,address,address,address,address,address,uint256,uint256,bytes,bytes,bytes,bytes,bytes,bytes,bytes),bytes,uint256,uint256,uint256)": {
        "params": {
          "makingAmount": "Making amount",
          "order": "Order quote to fill",
          "signature": "Signature to confirm quote ownership",
          "takingAmount": "Taking amount",
          "thresholdAmount": "Specifies maximum allowed takingAmount when takingAmount is zero, otherwise specifies minimum allowed makingAmount"
        }
      },
      "fillOrderRFQ((uint256,address,address,address,address,uint256,uint256),bytes,uint256,uint256)": {
        "params": {
          "makingAmount": "Making amount",
          "order": "Order quote to fill",
          "signature": "Signature to confirm quote ownership",
          "takingAmount": "Taking amount"
        }
      },
      "fillOrderRFQTo((uint256,address,address,address,address,uint256,uint256),bytes,uint256,uint256,address)": {
        "params": {
          "makingAmount": "Making amount",
          "order": "Order quote to fill",
          "signature": "Signature to confirm quote ownership",
          "takingAmount": "Taking amount",
          "target": "Address that will receive swap funds"
        }
      },
      "fillOrderRFQToWithPermit((uint256,address,address,address,address,uint256,uint256),bytes,uint256,uint256,address,bytes)": {
        "details": "See tests for examples",
        "params": {
          "makingAmount": "Making amount",
          "order": "Order quote to fill",
          "permit": "Should consist of abiencoded token address and encoded `IERC20Permit.permit` call.",
          "signature": "Signature to confirm quote ownership",
          "takingAmount": "Taking amount",
          "target": "Address that will receive swap funds"
        }
      },
      "fillOrderTo((uint256,address,address,address,address,address,uint256,uint256,bytes,bytes,bytes,bytes,bytes,bytes,bytes),bytes,uint256,uint256,uint256,address)": {
        "params": {
          "makingAmount": "Making amount",
          "order": "Order quote to fill",
          "signature": "Signature to confirm quote ownership",
          "takingAmount": "Taking amount",
          "target": "Address that will receive swap funds",
          "thresholdAmount": "Specifies maximum allowed takingAmount when takingAmount is zero, otherwise specifies minimum allowed makingAmount"
        }
      },
      "fillOrderToWithPermit((uint256,address,address,address,address,address,uint256,uint256,bytes,bytes,bytes,bytes,bytes,bytes,bytes),bytes,uint256,uint256,uint256,address,bytes)": {
        "details": "See tests for examples",
        "params": {
          "makingAmount": "Making amount",
          "order": "Order quote to fill",
          "permit": "Should consist of abiencoded token address and encoded `IERC20Permit.permit` call.",
          "signature": "Signature to confirm quote ownership",
          "takingAmount": "Taking amount",
          "target": "Address that will receive swap funds",
          "thresholdAmount": "Specifies maximum allowed takingAmount when takingAmount is zero, otherwise specifies minimum allowed makingAmount"
        }
      },
      "getMakerAmount(uint256,uint256,uint256)": {
        "returns": {
          "_0": "Result Floored maker amount"
        }
      },
      "getTakerAmount(uint256,uint256,uint256)": {
        "returns": {
          "_0": "Result Ceiled taker amount"
        }
      },
      "gt(uint256,address,bytes)": {
        "params": {
          "value": "Value to test"
        },
        "returns": {
          "_0": "Result True if call to target returns value which is bigger than `value`. Otherwise, false"
        }
      },
      "invalidatorForOrderRFQ(address,uint256)": {
        "returns": {
          "_0": "Result Each bit represents whether corresponding was already invalidated"
        }
      },
      "lt(uint256,address,bytes)": {
        "params": {
          "value": "Value to test"
        },
        "returns": {
          "_0": "Result True if call to target returns value which is lower than `value`. Otherwise, false"
        }
      },
      "nonceEquals(address,uint256)": {
        "returns": {
          "_0": "Result True if `makerAddress` has specified nonce. Otherwise, false"
        }
      },
      "or(address[],bytes[])": {
        "returns": {
          "_0": "Result True if call to any target returned True. Otherwise, false"
        }
      },
      "remainingRaw(bytes32)": {
        "returns": {
          "_0": "Result Unfilled amount of order plus one if order exists. Otherwise 0"
        }
      },
      "simulateCalls(address[],bytes[])": {
        "params": {
          "data": "Array of data that will be passed to each call",
          "targets": "Array of addresses that will be called"
        }
      },
      "singlePrice(address,uint256,uint256)": {
        "params": {
          "inverseAndSpread": "concatenated inverse flag and spread. Lowest 254 bits specify spread amount. Spread is scaled by 1e9, i.e. 101% = 1.01e9, 99% = 0.99e9. Highest bit is set when oracle price should be inverted, e.g. for DAI-ETH oracle, inverse=false means that we request DAI price in ETH and inverse=true means that we request ETH price in DAI"
        },
        "returns": {
          "_0": "Amount * spread * oracle price"
        }
      },
      "timestampBelow(uint256)": {
        "returns": {
          "_0": "Result True if current block timestamp is lower than `time`. Otherwise, false"
        }
      }
    },
    "title": "1inch Limit Order Protocol v2",
    "version": 1
  },
  "userdoc": {
    "events": {
      "OrderCanceled(address,bytes32,uint256)": {
        "notice": "Emitted when order gets cancelled"
      },
      "OrderFilled(address,bytes32,uint256)": {
        "notice": "Emitted every time order gets filled, including partial fills"
      },
      "OrderFilledRFQ(bytes32,uint256)": {
        "notice": "Emitted when RFQ gets filled"
      }
    },
    "kind": "user",
    "methods": {
      "advanceNonce(uint8)": {
        "notice": "Advances nonce by specified amount"
      },
      "and(address[],bytes[])": {
        "notice": "Calls every target with corresponding data"
      },
      "arbitraryStaticCall(address,bytes)": {
        "notice": "Performs an arbitrary call to target with data"
      },
      "cancelOrder((uint256,address,address,address,address,address,uint256,uint256,bytes,bytes,bytes,bytes,bytes,bytes,bytes))": {
        "notice": "Cancels order by setting remaining amount to zero"
      },
      "cancelOrderRFQ(uint256)": {
        "notice": "Cancels order's quote"
      },
      "checkPredicate((uint256,address,address,address,address,address,uint256,uint256,bytes,bytes,bytes,bytes,bytes,bytes,bytes))": {
        "notice": "Checks order predicate"
      },
      "doublePrice(address,address,uint256,int256,uint256)": {
        "notice": "Calculates price of token A relative to token B. Note that order is important"
      },
      "eq(uint256,address,bytes)": {
        "notice": "Calls target with specified data and tests if it's equal to the value"
      },
      "fillOrder((uint256,address,address,address,address,address,uint256,uint256,bytes,bytes,bytes,bytes,bytes,bytes,bytes),bytes,uint256,uint256,uint256)": {
        "notice": "Fills an order. If one doesn't exist (first fill) it will be created using order.makerAssetData"
      },
      "fillOrderRFQ((uint256,address,address,address,address,uint256,uint256),bytes,uint256,uint256)": {
        "notice": "Fills order's quote, fully or partially (whichever is possible)"
      },
      "fillOrderRFQTo((uint256,address,address,address,address,uint256,uint256),bytes,uint256,uint256,address)": {
        "notice": "Same as `fillOrderRFQ` but allows to specify funds destination instead of `msg.sender`"
      },
      "fillOrderRFQToWithPermit((uint256,address,address,address,address,uint256,uint256),bytes,uint256,uint256,address,bytes)": {
        "notice": "Fills Same as `fillOrderRFQ` but calls permit first, allowing to approve token spending and make a swap in one transaction. Also allows to specify funds destination instead of `msg.sender`"
      },
      "fillOrderTo((uint256,address,address,address,address,address,uint256,uint256,bytes,bytes,bytes,bytes,bytes,bytes,bytes),bytes,uint256,uint256,uint256,address)": {
        "notice": "Same as `fillOrder` but allows to specify funds destination instead of `msg.sender`"
      },
      "fillOrderToWithPermit((uint256,address,address,address,address,address,uint256,uint256,bytes,bytes,bytes,bytes,bytes,bytes,bytes),bytes,uint256,uint256,uint256,address,bytes)": {
        "notice": "Same as `fillOrder` but calls permit first, allowing to approve token spending and make a swap in one transaction. Also allows to specify funds destination instead of `msg.sender`"
      },
      "getMakerAmount(uint256,uint256,uint256)": {
        "notice": "Calculates maker amount"
      },
      "getTakerAmount(uint256,uint256,uint256)": {
        "notice": "Calculates taker amount"
      },
      "gt(uint256,address,bytes)": {
        "notice": "Calls target with specified data and tests if it's bigger than value"
      },
      "increaseNonce()": {
        "notice": "Advances nonce by one"
      },
      "invalidatorForOrderRFQ(address,uint256)": {
        "notice": "Returns bitmask for double-spend invalidators based on lowest byte of order.info and filled quotes"
      },
      "lt(uint256,address,bytes)": {
        "notice": "Calls target with specified data and tests if it's lower than value"
      },
      "nonceEquals(address,uint256)": {
        "notice": "Checks if `makerAddress` has specified `makerNonce`"
      },
      "or(address[],bytes[])": {
        "notice": "Calls every target with corresponding data"
      },
      "remaining(bytes32)": {
        "notice": "Returns unfilled amount for order. Throws if order does not exist"
      },
      "remainingRaw(bytes32)": {
        "notice": "Returns unfilled amount for order"
      },
      "remainingsRaw(bytes32[])": {
        "notice": "Same as `remainingRaw` but for multiple orders"
      },
      "simulateCalls(address[],bytes[])": {
        "notice": "Calls every target with corresponding data. Then reverts with CALL_RESULTS_0101011 where zeroes and ones denote failure or success of the corresponding call"
      },
      "singlePrice(address,uint256,uint256)": {
        "notice": "Calculates price of token relative to oracle unit (ETH or USD)"
      },
      "timestampBelow(uint256)": {
        "notice": "Checks passed time against block timestamp"
      }
    },
    "version": 1
  },
  "storageLayout": {
    "storage": [
      {
        "astId": 5206,
        "contract": "contracts/LimitOrderProtocol.sol:LimitOrderProtocol",
        "label": "nonce",
        "offset": 0,
        "slot": "0",
        "type": "t_mapping(t_address,t_uint256)"
      },
      {
        "astId": 3357,
        "contract": "contracts/LimitOrderProtocol.sol:LimitOrderProtocol",
        "label": "_remaining",
        "offset": 0,
        "slot": "1",
        "type": "t_mapping(t_bytes32,t_uint256)"
      },
      {
        "astId": 4292,
        "contract": "contracts/LimitOrderProtocol.sol:LimitOrderProtocol",
        "label": "_invalidator",
        "offset": 0,
        "slot": "2",
        "type": "t_mapping(t_address,t_mapping(t_uint256,t_uint256))"
      }
    ],
    "types": {
      "t_address": {
        "encoding": "inplace",
        "label": "address",
        "numberOfBytes": "20"
      },
      "t_bytes32": {
        "encoding": "inplace",
        "label": "bytes32",
        "numberOfBytes": "32"
      },
      "t_mapping(t_address,t_mapping(t_uint256,t_uint256))": {
        "encoding": "mapping",
        "key": "t_address",
        "label": "mapping(address => mapping(uint256 => uint256))",
        "numberOfBytes": "32",
        "value": "t_mapping(t_uint256,t_uint256)"
      },
      "t_mapping(t_address,t_uint256)": {
        "encoding": "mapping",
        "key": "t_address",
        "label": "mapping(address => uint256)",
        "numberOfBytes": "32",
        "value": "t_uint256"
      },
      "t_mapping(t_bytes32,t_uint256)": {
        "encoding": "mapping",
        "key": "t_bytes32",
        "label": "mapping(bytes32 => uint256)",
        "numberOfBytes": "32",
        "value": "t_uint256"
      },
      "t_mapping(t_uint256,t_uint256)": {
        "encoding": "mapping",
        "key": "t_uint256",
        "label": "mapping(uint256 => uint256)",
        "numberOfBytes": "32",
        "value": "t_uint256"
      },
      "t_uint256": {
        "encoding": "inplace",
        "label": "uint256",
        "numberOfBytes": "32"
      }
    }
  }
}