{
  "address": "0x0eEE00137D807a461702e9e0640C599De663e7E4",
  "abi": [
    {
      "inputs": [
        {
          "internalType": "contract IWETH",
          "name": "weth",
          "type": "address"
        }
      ],
      "stateMutability": "nonpayable",
      "type": "constructor"
    },
    {
      "inputs": [],
      "name": "ETHTransferFailed",
      "type": "error"
    },
    {
      "inputs": [],
      "name": "EthDepositRejected",
      "type": "error"
    },
    {
      "inputs": [
        {
          "internalType": "bytes32",
          "name": "",
          "type": "bytes32"
        },
        {
          "internalType": "address",
          "name": "maker",
          "type": "address"
        },
        {
          "internalType": "address",
          "name": "",
          "type": "address"
        },
        {
          "internalType": "uint256",
          "name": "",
          "type": "uint256"
        },
        {
          "internalType": "uint256",
          "name": "takingAmount",
          "type": "uint256"
        },
        {
          "internalType": "uint256",
          "name": "",
          "type": "uint256"
        },
        {
          "internalType": "bytes",
          "name": "interactiveData",
          "type": "bytes"
        }
      ],
      "name": "fillOrderPostInteraction",
      "outputs": [],
      "stateMutability": "nonpayable",
      "type": "function"
    },
    {
      "stateMutability": "payable",
      "type": "receive"
    }
  ],
  "transactionHash": "0x4b4cafa2fc02afe47a207774d7347a5ec3bb02640226e81cf01089a682d3cde2",
  "args": [
    "0xbb4CdB9CBd36B01bD1cBaEBF2De08d9173bc095c"
  ],
  "numDeployments": 2,
  "solcInputHash": "ea2aa2e3a46e0e3ca00bcdf2b19d0444",
  "bytecode": "0x60c060405234801561001057600080fd5b506040516103973803806103978339818101604052602081101561003357600080fd5b50516001600160a01b0316608081905260a08190528061032f610068600039600061016401526000610109015261032f6000f3fe6080604052600436106100225760003560e01c80633504ed621461003657600080fd5b366100315761002f6100f1565b005b600080fd5b34801561004257600080fd5b5061002f600480360360e081101561005957600080fd5b81359173ffffffffffffffffffffffffffffffffffffffff602082013581169260408301359091169160608101359160808201359160a08101359181019060e0810160c08201356401000000008111156100b257600080fd5b8201836020820111156100c457600080fd5b803590602001918460018302840111640100000000831117156100e657600080fd5b509092509050610162565b3373ffffffffffffffffffffffffffffffffffffffff7f00000000000000000000000000000000000000000000000000000000000000001614610160576040517f1b10b0f900000000000000000000000000000000000000000000000000000000815260040160405180910390fd5b565b7f000000000000000000000000000000000000000000000000000000000000000073ffffffffffffffffffffffffffffffffffffffff16632e1a7d4d856040518263ffffffff1660e01b815260040180828152602001915050600060405180830381600087803b1580156101d557600080fd5b505af11580156101e9573d6000803e3d6000fd5b50899250505060148290036102085761020282846102b1565b60601c90505b60405160009073ffffffffffffffffffffffffffffffffffffffff83169061138890889084818181858888f193505050503d8060008114610265576040519150601f19603f3d011682016040523d82523d6000602084013e61026a565b606091505b50509050806102a5576040517fb12d13eb00000000000000000000000000000000000000000000000000000000815260040160405180910390fd5b50505050505050505050565b7fffffffffffffffffffffffffffffffffffffffff00000000000000000000000081358181169160148510156102f15780818660140360031b1b83161692505b50509291505056fea26469706673582212202796b400597a988afcb28ecf5f83180939b37ba2ef7b6c2f72bdab5c034bbf6d64736f6c63430008110033",
  "devdoc": {
    "kind": "dev",
    "methods": {},
    "version": 1
  },
  "userdoc": {
    "kind": "user",
    "methods": {},
    "version": 1
  },
  "storageLayout": {
    "storage": [],
    "types": null
  }
}