{
  "address": "0x0F85A912448279111694F4Ba4F85dC641c54b594",
  "abi": [
    {
      "inputs": [
        {
          "internalType": "contract IWETH",
          "name": "weth",
          "type": "address"
        }
      ],
      "stateMutability": "nonpayable",
      "type": "constructor"
    },
    {
      "inputs": [],
      "name": "EthDepositRejected",
      "type": "error"
    },
    {
      "inputs": [
        {
          "internalType": "bytes32",
          "name": "",
          "type": "bytes32"
        },
        {
          "internalType": "address",
          "name": "maker",
          "type": "address"
        },
        {
          "internalType": "address",
          "name": "",
          "type": "address"
        },
        {
          "internalType": "uint256",
          "name": "",
          "type": "uint256"
        },
        {
          "internalType": "uint256",
          "name": "takingAmount",
          "type": "uint256"
        },
        {
          "internalType": "uint256",
          "name": "",
          "type": "uint256"
        },
        {
          "internalType": "bytes",
          "name": "interactiveData",
          "type": "bytes"
        }
      ],
      "name": "fillOrderPostInteraction",
      "outputs": [],
      "stateMutability": "nonpayable",
      "type": "function"
    },
    {
      "stateMutability": "payable",
      "type": "receive"
    }
  ],
  "transactionHash": "0xfa7d88a7fa989a50bcfa5328f9a7cee410f2b791fab02304913b830a73ace22d",
  "args": [
    "0x4200000000000000000000000000000000000006"
  ],
  "numDeployments": 1,
  "solcInputHash": "ed251cbd89dbecf3153cd00cd38a8d7d",
  "bytecode": "0x60c03461007657601f61027838819003918201601f19168301916001600160401b0383118484101761007b5780849260209460405283398101031261007657516001600160a01b0381168082036100765760805260a0526040516101e69081610092823960805181601b015260a051816101040152f35b600080fd5b634e487b7160e01b600052604160045260246000fdfe6080604052600436101561005d575b361561001957600080fd5b7f00000000000000000000000000000000000000000000000000000000000000006001600160a01b0316330361004b57005b604051631b10b0f960e01b8152600490fd5b6000803560e01c633504ed6214610074575061000e565b346101ad5760e03660031901126101ad57806024356001600160a01b0380821682036101a957604435818116036101a9576084359060c4359267ffffffffffffffff908185116101a557366023860112156101a55784600401359182116101a55736602483870101116101a557936014821461015e575b5050632e1a7d4d60e01b845260048290528380602481807f00000000000000000000000000000000000000000000000000000000000000005af115610153573090831603610137575050f35b8280929181925af1156101475780f35b604051903d90823e3d90fd5b6040513d85823e3d90fd5b9193506bffffffffffffffffffffffff1991602401358281169160148110610190575b5050905060601c9138806100eb565b8391925060140360031b1b1616803880610181565b8580fd5b5050fd5b80fdfea26469706673582212200fc3598d9d78462cdab92de7396d108aa15dcd595c7316e41bfc22d004d3066c64736f6c63430008130033",
  "devdoc": {
    "kind": "dev",
    "methods": {},
    "version": 1
  },
  "userdoc": {
    "kind": "user",
    "methods": {},
    "version": 1
  },
  "storageLayout": {
    "storage": [],
    "types": null
  }
}