{
  "address": "0x65B3Db8bAeF0215A1F9B14c506D2a3078b2C84AE",
  "abi": [
    {
      "inputs": [],
      "stateMutability": "nonpayable",
      "type": "constructor"
    },
    {
      "inputs": [],
      "name": "ErrorCreatingContract",
      "type": "error"
    },
    {
      "inputs": [],
      "name": "ErrorCreatingProxy",
      "type": "error"
    },
    {
      "inputs": [
        {
          "internalType": "address",
          "name": "owner",
          "type": "address"
        }
      ],
      "name": "OwnableInvalidOwner",
      "type": "error"
    },
    {
      "inputs": [
        {
          "internalType": "address",
          "name": "account",
          "type": "address"
        }
      ],
      "name": "OwnableUnauthorizedAccount",
      "type": "error"
    },
    {
      "inputs": [],
      "name": "TargetAlreadyExists",
      "type": "error"
    },
    {
      "anonymous": false,
      "inputs": [
        {
          "indexed": true,
          "internalType": "address",
          "name": "previousOwner",
          "type": "address"
        },
        {
          "indexed": true,
          "internalType": "address",
          "name": "newOwner",
          "type": "address"
        }
      ],
      "name": "OwnershipTransferred",
      "type": "event"
    },
    {
      "inputs": [
        {
          "internalType": "bytes32",
          "name": "salt",
          "type": "bytes32"
        }
      ],
      "name": "addressOf",
      "outputs": [
        {
          "internalType": "address",
          "name": "",
          "type": "address"
        }
      ],
      "stateMutability": "view",
      "type": "function"
    },
    {
      "inputs": [
        {
          "internalType": "bytes32",
          "name": "salt",
          "type": "bytes32"
        },
        {
          "internalType": "bytes",
          "name": "code",
          "type": "bytes"
        }
      ],
      "name": "deploy",
      "outputs": [
        {
          "internalType": "address",
          "name": "",
          "type": "address"
        }
      ],
      "stateMutability": "nonpayable",
      "type": "function"
    },
    {
      "inputs": [],
      "name": "owner",
      "outputs": [
        {
          "internalType": "address",
          "name": "",
          "type": "address"
        }
      ],
      "stateMutability": "view",
      "type": "function"
    },
    {
      "inputs": [],
      "name": "renounceOwnership",
      "outputs": [],
      "stateMutability": "nonpayable",
      "type": "function"
    },
    {
      "inputs": [
        {
          "internalType": "address",
          "name": "newOwner",
          "type": "address"
        }
      ],
      "name": "transferOwnership",
      "outputs": [],
      "stateMutability": "nonpayable",
      "type": "function"
    }
  ],
  "transactionHash": "0x6476146cb7fd58f74eeb67f49e2cb0a5282e56f71949c1a552c0bd3b3c7f6817",
  "args": [],
  "numDeployments": 1,
  "solcInputHash": "1aa1d20d95038c085194f62a47141346",
  "bytecode": "0x6080806040523461007a5733156100645760008054336001600160a01b03198216811783556040519290916001600160a01b0316907f8be0079c531659141344cd1fd0a4f28419497f9722a3daafe3b4186f6b6457e09080a361077390816100808239f35b631e4fbdf760e01b815260006004820152602490fd5b600080fdfe6080604052600436101561001257600080fd5b6000803560e01c908163715018a61461006a575080638da5cb5b14610065578063bb34534c14610060578063cdcb760a1461005b5763f2fde38b1461005657600080fd5b61025c565b6101b9565b61015f565b610108565b3461010557807ffffffffffffffffffffffffffffffffffffffffffffffffffffffffffffffffc360112610105576100a061054d565b8073ffffffffffffffffffffffffffffffffffffffff81547fffffffffffffffffffffffff000000000000000000000000000000000000000081168355167f8be0079c531659141344cd1fd0a4f28419497f9722a3daafe3b4186f6b6457e08280a380f35b80fd5b3461015a5760007ffffffffffffffffffffffffffffffffffffffffffffffffffffffffffffffffc36011261015a57602073ffffffffffffffffffffffffffffffffffffffff60005416604051908152f35b600080fd5b3461015a5760207ffffffffffffffffffffffffffffffffffffffffffffffffffffffffffffffffc36011261015a57602061019b6004356105e8565b73ffffffffffffffffffffffffffffffffffffffff60405191168152f35b3461015a5760407ffffffffffffffffffffffffffffffffffffffffffffffffffffffffffffffffc36011261015a5767ffffffffffffffff60243581811161015a573660238201121561015a57806004013591821161015a57366024838301011161015a576102589160246102319201600435610341565b60405173ffffffffffffffffffffffffffffffffffffffff90911681529081906020820190565b0390f35b3461015a5760207ffffffffffffffffffffffffffffffffffffffffffffffffffffffffffffffffc36011261015a5760043573ffffffffffffffffffffffffffffffffffffffff9081811680910361015a576102b661054d565b8015610310576000918254827fffffffffffffffffffffffff00000000000000000000000000000000000000008216178455167f8be0079c531659141344cd1fd0a4f28419497f9722a3daafe3b4186f6b6457e08380a380f35b60246040517f1e4fbdf700000000000000000000000000000000000000000000000000000000815260006004820152fd5b9161034a61054d565b61035381610513565b9061036160405192836104d2565b8082526020820192368282011161015a578160009260209286378301015261038761059e565b92610391816105e8565b93843b61043c576020815191016000f573ffffffffffffffffffffffffffffffffffffffff8116156104125760009283809351925af16103cf61070d565b50158015610409575b6103df5790565b60046040517f53de54b9000000000000000000000000000000000000000000000000000000008152fd5b50803b156103d8565b60046040517fbbd2fe87000000000000000000000000000000000000000000000000000000008152fd5b60046040517fcd43efa1000000000000000000000000000000000000000000000000000000008152fd5b7f4e487b7100000000000000000000000000000000000000000000000000000000600052604160045260246000fd5b6080810190811067ffffffffffffffff8211176104b157604052565b610466565b6040810190811067ffffffffffffffff8211176104b157604052565b90601f7fffffffffffffffffffffffffffffffffffffffffffffffffffffffffffffffe0910116810190811067ffffffffffffffff8211176104b157604052565b67ffffffffffffffff81116104b157601f017fffffffffffffffffffffffffffffffffffffffffffffffffffffffffffffffe01660200190565b73ffffffffffffffffffffffffffffffffffffffff60005416330361056e57565b60246040517f118cdaa7000000000000000000000000000000000000000000000000000000008152336004820152fd5b604051906040820182811067ffffffffffffffff8211176104b157604052601182527f68363d3d37363d34f0ff3d5260096017f30000000000000000000000000000006020830152565b6106f161070a916105f761059e565b602081519101206040519060208201927fff0000000000000000000000000000000000000000000000000000000000000084523060601b6021840152603583015260558201526055815261064a81610495565b5190206040517fffffffffffffffffffffffffffffffffffffffff00000000000000000000000060208201927fd694000000000000000000000000000000000000000000000000000000000000845260601b1660228201527f01000000000000000000000000000000000000000000000000000000000000006036820152601781526106d5816104b6565b51902073ffffffffffffffffffffffffffffffffffffffff1690565b73ffffffffffffffffffffffffffffffffffffffff1690565b90565b3d15610738573d9061071e82610513565b9161072c60405193846104d2565b82523d6000602084013e565b60609056fea2646970667358221220cfad726a1b822bc60de36f349b974cae3b8b9b0f5feb78cd5d59d1bf9741a23864736f6c63430008170033",
  "devdoc": {
    "errors": {
      "OwnableInvalidOwner(address)": [
        {
          "details": "The owner is not a valid owner account. (eg. `address(0)`)"
        }
      ],
      "OwnableUnauthorizedAccount(address)": [
        {
          "details": "The caller account is not authorized to perform an operation."
        }
      ]
    },
    "kind": "dev",
    "methods": {
      "owner()": {
        "details": "Returns the address of the current owner."
      },
      "renounceOwnership()": {
        "details": "Leaves the contract without owner. It will not be possible to call `onlyOwner` functions. Can only be called by the current owner. NOTE: Renouncing ownership will leave the contract without an owner, thereby disabling any functionality that is only available to the owner."
      },
      "transferOwnership(address)": {
        "details": "Transfers ownership of the contract to a new account (`newOwner`). Can only be called by the current owner."
      }
    },
    "version": 1
  },
  "userdoc": {
    "kind": "user",
    "methods": {},
    "version": 1
  },
  "storageLayout": {
    "storage": [
      {
        "astId": 7861,
        "contract": "contracts/Create3Deployer.sol:Create3Deployer",
        "label": "_owner",
        "offset": 0,
        "slot": "0",
        "type": "t_address"
      }
    ],
    "types": {
      "t_address": {
        "encoding": "inplace",
        "label": "address",
        "numberOfBytes": "20"
      }
    }
  }
}