{
  "address": "0x7Be0Cc9D2690933445cA56dB217e1366BF68841c",
  "abi": [
    {
      "inputs": [
        {
          "internalType": "contract IOrderMixin",
          "name": "limitOrderProtocol",
          "type": "address"
        },
        {
          "internalType": "contract IOrderRegistrator",
          "name": "orderRegistrator",
          "type": "address"
        }
      ],
      "stateMutability": "nonpayable",
      "type": "constructor"
    },
    {
      "inputs": [],
      "name": "StaleOraclePrice",
      "type": "error"
    },
    {
      "inputs": [
        {
          "components": [
            {
              "internalType": "uint256",
              "name": "salt",
              "type": "uint256"
            },
            {
              "internalType": "Address",
              "name": "maker",
              "type": "uint256"
            },
            {
              "internalType": "Address",
              "name": "receiver",
              "type": "uint256"
            },
            {
              "internalType": "Address",
              "name": "makerAsset",
              "type": "uint256"
            },
            {
              "internalType": "Address",
              "name": "takerAsset",
              "type": "uint256"
            },
            {
              "internalType": "uint256",
              "name": "makingAmount",
              "type": "uint256"
            },
            {
              "internalType": "uint256",
              "name": "takingAmount",
              "type": "uint256"
            },
            {
              "internalType": "MakerTraits",
              "name": "makerTraits",
              "type": "uint256"
            }
          ],
          "internalType": "struct IOrderMixin.Order",
          "name": "order",
          "type": "tuple"
        },
        {
          "internalType": "bytes",
          "name": "extension",
          "type": "bytes"
        },
        {
          "components": [
            {
              "internalType": "contract AggregatorV3Interface",
              "name": "oracle",
              "type": "address"
            },
            {
              "internalType": "uint256",
              "name": "originalAnswer",
              "type": "uint256"
            },
            {
              "internalType": "uint256",
              "name": "ttl",
              "type": "uint256"
            }
          ],
          "internalType": "struct SafeOrderBuilder.OracleQueryParams",
          "name": "makerAssetOracleParams",
          "type": "tuple"
        },
        {
          "components": [
            {
              "internalType": "contract AggregatorV3Interface",
              "name": "oracle",
              "type": "address"
            },
            {
              "internalType": "uint256",
              "name": "originalAnswer",
              "type": "uint256"
            },
            {
              "internalType": "uint256",
              "name": "ttl",
              "type": "uint256"
            }
          ],
          "internalType": "struct SafeOrderBuilder.OracleQueryParams",
          "name": "takerAssetOracleParams",
          "type": "tuple"
        }
      ],
      "name": "buildAndSignOrder",
      "outputs": [],
      "stateMutability": "nonpayable",
      "type": "function"
    }
  ],
  "transactionHash": "0x9384585b5a9943e9047e4c9f0a6c28b27bc8c6a41670e713776fc8771ecc0a53",
  "args": [
    "0x111111125421ca6dc452d289314280a0f8842a65",
    "0xb81e7Ab02D761D3C250169619d5599dde07d8E80"
  ],
  "numDeployments": 1,
  "bytecode": "0x60c03461008557601f6109fe38819003918201601f19168301916001600160401b0383118484101761008a5780849260409485528339810103126100855780516001600160a01b03918282168203610085576020015191821682036100855760805260a05260405161095d90816100a18239608051816102bf015260a051816104620152f35b600080fd5b634e487b7160e01b600052604160045260246000fdfe600436101561000d57600080fd5b6000803560e01c6371db20381461002357600080fd5b3461073d577ffffffffffffffffffffffffffffffffffffffffffffffffffffffffffffffffc36016101e0811261073957610100809112610739576080016080811067ffffffffffffffff82111761058f5760405260043560805260243560a05260443560c05260643560e0526084356101005260a4356101205260c43561014090815260e435610160526101049067ffffffffffffffff8235116106945736602383350112156106945767ffffffffffffffff823560040135116106945736602483356004013584350101116106945760607ffffffffffffffffffffffffffffffffffffffffffffffffffffffffffffffedc3601126106945760607ffffffffffffffffffffffffffffffffffffffffffffffffffffffffffffffe7c360112610694576101243573ffffffffffffffffffffffffffffffffffffffff81168091036105c75760405160a0816004817ffeaf968c00000000000000000000000000000000000000000000000000000000958682525afa801561072e5785918691610704575b506101b8906101643590610801565b42116106a05782516101ce91610144359161083d565b8252610184359073ffffffffffffffffffffffffffffffffffffffff82168092036107005760a09060046040518094819382525afa801561063257849185916106ca575b5061022242916101c43590610801565b106106a0576102379082516101a4359061083d565b90526040517f802b2ef1000000000000000000000000000000000000000000000000000000008152608051600482015260a051602482015260c051604482015260e05160648201526101005160848201526101205160a48201526101405160c48201526101605160e4820152602081838173ffffffffffffffffffffffffffffffffffffffff7f0000000000000000000000000000000000000000000000000000000000000000165afa9081156105bc57839161066a575b506040519060208201526020815280604081011067ffffffffffffffff60408301111761063d576040818101808252825160208401207f60b3cbf8b4a223d68d641b3b6ddf9a298e7f33710cf3d3a9d1146b5a6150fbca6060850152608084015290815267ffffffffffffffff60a0830190811191111761063d5760a08101604081815282015160608301207ff698da2500000000000000000000000000000000000000000000000000000000825290602090600481305afa9182156106325784926105f8575b506040519060208201927f190000000000000000000000000000000000000000000000000000000000000084527f010000000000000000000000000000000000000000000000000000000000000060218401526022830152604282015260428152608081019267ffffffffffffffff84119282851084176105cb57908592918560405282519020835260076020526001604084205573ffffffffffffffffffffffffffffffffffffffff7f00000000000000000000000000000000000000000000000000000000000000001690813b156105c7577fdfcb3e34000000000000000000000000000000000000000000000000000000008652608051608484015260a05160a484015260c05160c484015260e05160e484015261010051610104840152610120516101248401526101405161014484015261016051610164840152859283918591610184918390610140848401528035600401356101c48401527fffffffffffffffffffffffffffffffffffffffffffffffffffffffffffffffe0601f6101e492803560040135602482350185880137848482356004013588010152356004013501168301838103936101a46101608601910152015201925af180156105bc57610582578280f35b61058f5760405238808280f35b6024827f4e487b710000000000000000000000000000000000000000000000000000000081526041600452fd5b6040513d85823e3d90fd5b8380fd5b6024867f4e487b710000000000000000000000000000000000000000000000000000000081526041600452fd5b9091506020813d60201161062a575b8161061760209360a08401610740565b810103126105c75760a0015190386103b6565b3d9150610607565b6040513d86823e3d90fd5b6024837f4e487b710000000000000000000000000000000000000000000000000000000081526041600452fd5b90506020813d602011610698575b8161068560209383610740565b810103126106945751386102ef565b8280fd5b3d9150610678565b60046040517fa887f2d8000000000000000000000000000000000000000000000000000000008152fd5b90506106ee915060a03d60a0116106f9575b6106e68183610740565b8101906107cc565b509250509038610212565b503d6106dc565b8480fd5b6101b89250610722915060a03d60a0116106f9576106e68183610740565b509392505091906101a9565b6040513d87823e3d90fd5b5080fd5b80fd5b90601f7fffffffffffffffffffffffffffffffffffffffffffffffffffffffffffffffe0910116810190811067ffffffffffffffff82111761078157604052565b7f4e487b7100000000000000000000000000000000000000000000000000000000600052604160045260246000fd5b519069ffffffffffffffffffff821682036107c757565b600080fd5b908160a09103126107c7576107e0816107b0565b916020820151916040810151916107fe6080606084015193016107b0565b90565b9190820180921161080e57565b7f4e487b7100000000000000000000000000000000000000000000000000000000600052601160045260246000fd5b91818302917fffffffffffffffffffffffffffffffffffffffffffffffffffffffffffffffff818509938380861095039480860395146108ea57848311156108d1579082910981600003821680920460028082600302188083028203028083028203028083028203028083028203028083028203028092029003029360018380600003040190848311900302920304170290565b82634e487b71600052156003026011186020526024601cfd5b5050809250156108f8570490565b7f4e487b7100000000000000000000000000000000000000000000000000000000600052601260045260246000fdfea264697066735822122028b0abeac0f45cb30231ced26ad074af586d358e7a4a9363b11da17f24e92ae864736f6c63430008170033"
}