{
  "address": "0x39C17D237Eda5c4DF093F9410902136834501D09",
  "abi": [
    {
      "inputs": [],
      "name": "isPriorityFeeValid",
      "outputs": [
        {
          "internalType": "bool",
          "name": "",
          "type": "bool"
        }
      ],
      "stateMutability": "view",
      "type": "function"
    }
  ],
  "transactionHash": "0x3af314c380e8adc0874110f783bdcf7a522282396dc7b45333b01a5655f83333",
  "args": [],
  "numDeployments": 1,
  "solcInputHash": "f50c1a3607e800e3d06c604a25510f68",
  "bytecode": "0x6080806040523460135760d8908160188239f35b5f80fdfe60808060405260043610156011575f80fd5b5f3560e01c6302024708146023575f80fd5b34605e575f7ffffffffffffffffffffffffffffffffffffffffffffffffffffffffffffffffc360112605e5760209060586062565b15158152f35b5f80fd5b483a03640277cf2a0048105f14607f576064604648029102111590565b64183cd7f100481015609557489060011b111590565b606460414802910211159056fea264697066735822122008682a6e5362a8a47057f35ea1367056f9798238fc29344f46a0abd3ca5f2e1d64736f6c634300081e0033",
  "devdoc": {
    "kind": "dev",
    "methods": {},
    "title": "A helper contract for executing boolean functions on arbitrary target call results",
    "version": 1
  },
  "userdoc": {
    "kind": "user",
    "methods": {
      "isPriorityFeeValid()": {
        "notice": "Validates priority fee according to the spec https://snapshot.org/#/1inch.eth/proposal/0xa040c60050147a0f67042ae024673e92e813b5d2c0f748abf70ddfa1ed107cbe For blocks with baseFee <10.6 gwei – the priorityFee is capped at 70% of the baseFee. For blocks with baseFee between 10.6 gwei and 104.1 gwei – the priorityFee is capped at 50% of the baseFee. For blocks with baseFee >104.1 gwei – priorityFee is capped at 65% of the block’s baseFee."
      }
    },
    "version": 1
  },
  "storageLayout": {
    "storage": [],
    "types": null
  }
}