{
  "address": "0x01e520D4E77DBe6833c8257cb8a05DbD24a4D332",
  "abi": [
    {
      "inputs": [
        {
          "internalType": "address",
          "name": "limitOrderProtocol",
          "type": "address"
        },
        {
          "internalType": "contract IERC20",
          "name": "accessToken",
          "type": "address"
        },
        {
          "internalType": "address",
          "name": "weth",
          "type": "address"
        },
        {
          "internalType": "address",
          "name": "owner",
          "type": "address"
        }
      ],
      "stateMutability": "nonpayable",
      "type": "constructor"
    },
    {
      "inputs": [],
      "name": "ETHTransferFailed",
      "type": "error"
    },
    {
      "inputs": [],
      "name": "EthTransferFailed",
      "type": "error"
    },
    {
      "inputs": [],
      "name": "InconsistentFee",
      "type": "error"
    },
    {
      "inputs": [],
      "name": "InsufficientBalance",
      "type": "error"
    },
    {
      "inputs": [],
      "name": "InvalidIntegratorShare",
      "type": "error"
    },
    {
      "inputs": [],
      "name": "InvalidWhitelistDiscountNumerator",
      "type": "error"
    },
    {
      "inputs": [],
      "name": "OnlyLimitOrderProtocol",
      "type": "error"
    },
    {
      "inputs": [],
      "name": "OnlyWhitelistOrAccessToken",
      "type": "error"
    },
    {
      "inputs": [
        {
          "internalType": "address",
          "name": "owner",
          "type": "address"
        }
      ],
      "name": "OwnableInvalidOwner",
      "type": "error"
    },
    {
      "inputs": [
        {
          "internalType": "address",
          "name": "account",
          "type": "address"
        }
      ],
      "name": "OwnableUnauthorizedAccount",
      "type": "error"
    },
    {
      "inputs": [],
      "name": "SafeTransferFailed",
      "type": "error"
    },
    {
      "anonymous": false,
      "inputs": [
        {
          "indexed": true,
          "internalType": "address",
          "name": "previousOwner",
          "type": "address"
        },
        {
          "indexed": true,
          "internalType": "address",
          "name": "newOwner",
          "type": "address"
        }
      ],
      "name": "OwnershipTransferred",
      "type": "event"
    },
    {
      "inputs": [
        {
          "components": [
            {
              "internalType": "uint256",
              "name": "salt",
              "type": "uint256"
            },
            {
              "internalType": "Address",
              "name": "maker",
              "type": "uint256"
            },
            {
              "internalType": "Address",
              "name": "receiver",
              "type": "uint256"
            },
            {
              "internalType": "Address",
              "name": "makerAsset",
              "type": "uint256"
            },
            {
              "internalType": "Address",
              "name": "takerAsset",
              "type": "uint256"
            },
            {
              "internalType": "uint256",
              "name": "makingAmount",
              "type": "uint256"
            },
            {
              "internalType": "uint256",
              "name": "takingAmount",
              "type": "uint256"
            },
            {
              "internalType": "MakerTraits",
              "name": "makerTraits",
              "type": "uint256"
            }
          ],
          "internalType": "struct IOrderMixin.Order",
          "name": "order",
          "type": "tuple"
        },
        {
          "internalType": "bytes",
          "name": "extension",
          "type": "bytes"
        },
        {
          "internalType": "bytes32",
          "name": "orderHash",
          "type": "bytes32"
        },
        {
          "internalType": "address",
          "name": "taker",
          "type": "address"
        },
        {
          "internalType": "uint256",
          "name": "takingAmount",
          "type": "uint256"
        },
        {
          "internalType": "uint256",
          "name": "remainingMakingAmount",
          "type": "uint256"
        },
        {
          "internalType": "bytes",
          "name": "extraData",
          "type": "bytes"
        }
      ],
      "name": "getMakingAmount",
      "outputs": [
        {
          "internalType": "uint256",
          "name": "",
          "type": "uint256"
        }
      ],
      "stateMutability": "view",
      "type": "function"
    },
    {
      "inputs": [
        {
          "components": [
            {
              "internalType": "uint256",
              "name": "salt",
              "type": "uint256"
            },
            {
              "internalType": "Address",
              "name": "maker",
              "type": "uint256"
            },
            {
              "internalType": "Address",
              "name": "receiver",
              "type": "uint256"
            },
            {
              "internalType": "Address",
              "name": "makerAsset",
              "type": "uint256"
            },
            {
              "internalType": "Address",
              "name": "takerAsset",
              "type": "uint256"
            },
            {
              "internalType": "uint256",
              "name": "makingAmount",
              "type": "uint256"
            },
            {
              "internalType": "uint256",
              "name": "takingAmount",
              "type": "uint256"
            },
            {
              "internalType": "MakerTraits",
              "name": "makerTraits",
              "type": "uint256"
            }
          ],
          "internalType": "struct IOrderMixin.Order",
          "name": "order",
          "type": "tuple"
        },
        {
          "internalType": "bytes",
          "name": "extension",
          "type": "bytes"
        },
        {
          "internalType": "bytes32",
          "name": "orderHash",
          "type": "bytes32"
        },
        {
          "internalType": "address",
          "name": "taker",
          "type": "address"
        },
        {
          "internalType": "uint256",
          "name": "makingAmount",
          "type": "uint256"
        },
        {
          "internalType": "uint256",
          "name": "remainingMakingAmount",
          "type": "uint256"
        },
        {
          "internalType": "bytes",
          "name": "extraData",
          "type": "bytes"
        }
      ],
      "name": "getTakingAmount",
      "outputs": [
        {
          "internalType": "uint256",
          "name": "",
          "type": "uint256"
        }
      ],
      "stateMutability": "view",
      "type": "function"
    },
    {
      "inputs": [],
      "name": "owner",
      "outputs": [
        {
          "internalType": "address",
          "name": "",
          "type": "address"
        }
      ],
      "stateMutability": "view",
      "type": "function"
    },
    {
      "inputs": [
        {
          "components": [
            {
              "internalType": "uint256",
              "name": "salt",
              "type": "uint256"
            },
            {
              "internalType": "Address",
              "name": "maker",
              "type": "uint256"
            },
            {
              "internalType": "Address",
              "name": "receiver",
              "type": "uint256"
            },
            {
              "internalType": "Address",
              "name": "makerAsset",
              "type": "uint256"
            },
            {
              "internalType": "Address",
              "name": "takerAsset",
              "type": "uint256"
            },
            {
              "internalType": "uint256",
              "name": "makingAmount",
              "type": "uint256"
            },
            {
              "internalType": "uint256",
              "name": "takingAmount",
              "type": "uint256"
            },
            {
              "internalType": "MakerTraits",
              "name": "makerTraits",
              "type": "uint256"
            }
          ],
          "internalType": "struct IOrderMixin.Order",
          "name": "order",
          "type": "tuple"
        },
        {
          "internalType": "bytes",
          "name": "extension",
          "type": "bytes"
        },
        {
          "internalType": "bytes32",
          "name": "orderHash",
          "type": "bytes32"
        },
        {
          "internalType": "address",
          "name": "taker",
          "type": "address"
        },
        {
          "internalType": "uint256",
          "name": "makingAmount",
          "type": "uint256"
        },
        {
          "internalType": "uint256",
          "name": "takingAmount",
          "type": "uint256"
        },
        {
          "internalType": "uint256",
          "name": "remainingMakingAmount",
          "type": "uint256"
        },
        {
          "internalType": "bytes",
          "name": "extraData",
          "type": "bytes"
        }
      ],
      "name": "postInteraction",
      "outputs": [],
      "stateMutability": "nonpayable",
      "type": "function"
    },
    {
      "inputs": [],
      "name": "renounceOwnership",
      "outputs": [],
      "stateMutability": "nonpayable",
      "type": "function"
    },
    {
      "inputs": [
        {
          "internalType": "contract IERC20",
          "name": "token",
          "type": "address"
        },
        {
          "internalType": "uint256",
          "name": "amount",
          "type": "uint256"
        }
      ],
      "name": "rescueFunds",
      "outputs": [],
      "stateMutability": "nonpayable",
      "type": "function"
    },
    {
      "inputs": [
        {
          "internalType": "address",
          "name": "newOwner",
          "type": "address"
        }
      ],
      "name": "transferOwnership",
      "outputs": [],
      "stateMutability": "nonpayable",
      "type": "function"
    },
    {
      "stateMutability": "payable",
      "type": "receive"
    }
  ],
  "transactionHash": "0xae017681c87a5e750d334c8f2a6be3cfd053ffc3dcc5decb6a06d2159c987e85",
  "args": [
    "0x111111125421ca6dc452d289314280a0f8842a65",
    "0xAccE550000863572B867E661647CD7D97b72C507",
    "0xe4f05A66Ec68B54A58B17c22107b02e0232cC817",
    "0x56E44874F624EbDE6efCc783eFD685f0FBDC6dcF"
  ],
  "numDeployments": 1,
  "bytecode": "0x60e0346200011357601f6200183038819003918201601f19168301916001600160401b03831184841017620001185780849260809460405283398101031262000113576200004d816200012e565b60208201516001600160a01b0392909183831683036200011357836200008460606200007c604086016200012e565b94016200012e565b168015620000fa57600080546001600160a01b03198116831782556040519616907f8be0079c531659141344cd1fd0a4f28419497f9722a3daafe3b4186f6b6457e09080a360805260a05260c0526116ec9081620001448239608051816104bb015260a05181610607015260c0518161099a0152f35b604051631e4fbdf760e01b815260006004820152602490fd5b600080fd5b634e487b7160e01b600052604160045260246000fd5b51906001600160a01b0382168203620001135756fe6080604052600436101561001b575b361561001957600080fd5b005b6000803560e01c80631d9671c314610b02578063462ebde214610401578063715018a61461036457806378e3214f1461023e5780638da5cb5b146101ed578063d7ff8a80146101605763f2fde38b14610074575061000e565b3461015d5760207ffffffffffffffffffffffffffffffffffffffffffffffffffffffffffffffffc36011261015d5760043573ffffffffffffffffffffffffffffffffffffffff808216809203610158576100cd610d1a565b811561012757600054827fffffffffffffffffffffffff0000000000000000000000000000000000000000821617600055167f8be0079c531659141344cd1fd0a4f28419497f9722a3daafe3b4186f6b6457e0600080a380f35b602483604051907f1e4fbdf70000000000000000000000000000000000000000000000000000000082526004820152fd5b600080fd5b80fd5b503461015d5761019361018561017536610b7d565b849394919a98999295979a610f8c565b99945097929b9150996115f4565b91620186a0910181016101a681846113fa565b9209151581018091116101be57602090604051908152f35b7f4e487b7100000000000000000000000000000000000000000000000000000000600052601160045260246000fd5b503461015d57807ffffffffffffffffffffffffffffffffffffffffffffffffffffffffffffffffc36011261015d5773ffffffffffffffffffffffffffffffffffffffff6020915416604051908152f35b503461015d5760407ffffffffffffffffffffffffffffffffffffffffffffffffffffffffffffffffc36011261015d5760043573ffffffffffffffffffffffffffffffffffffffff811690818103610360576024359161029c610d1a565b826102a5578380f35b8015908115610342575b5015610331575080471061030757818080809333611388f16102cf610d6b565b50156102dd575b3880808380f35b60046040517fb12d13eb000000000000000000000000000000000000000000000000000000008152fd5b60046040517ff4d678b8000000000000000000000000000000000000000000000000000000008152fd5b9061033d913390611517565b6102d6565b73eeeeeeeeeeeeeeeeeeeeeeeeeeeeeeeeeeeeeeee915014386102af565b8280fd5b503461015d57807ffffffffffffffffffffffffffffffffffffffffffffffffffffffffffffffffc36011261015d5761039b610d1a565b600073ffffffffffffffffffffffffffffffffffffffff81547fffffffffffffffffffffffff000000000000000000000000000000000000000081168355167f8be0079c531659141344cd1fd0a4f28419497f9722a3daafe3b4186f6b6457e08280a380f35b503461015d577ffffffffffffffffffffffffffffffffffffffffffffffffffffffffffffffffc36016101e08112610afe576101001361015d576101043567ffffffffffffffff8111610afe5761045c903690600401610b4f565b9073ffffffffffffffffffffffffffffffffffffffff610144351661014435036103605767ffffffffffffffff6101c43511610360576104a2366101c435600401610b4f565b909173ffffffffffffffffffffffffffffffffffffffff7f0000000000000000000000000000000000000000000000000000000000000000163303610ad4578115610aa75781601511610813578160291161081357602983017fffffffffffffffffffffffffffffffffffffffffffffffffffffffffffffffd7830173ffffffffffffffffffffffffffffffffffffffff60243516937f01000000000000000000000000000000000000000000000000000000000000008087351614610a12575b5090610573916101443591610f8c565b9594979397969290961580610937575b61090d576105b6886105ac6105a5620186a0868f9d0101809361018435611483565b9384611362565b9361018435611483565b019260443573ffffffffffffffffffffffffffffffffffffffff1630036108cf5773ffffffffffffffffffffffffffffffffffffffff6084351673ffffffffffffffffffffffffffffffffffffffff7f0000000000000000000000000000000000000000000000000000000000000000168114806108a3575b15610847575061065893829182610831575b828203610817575b500390610184350303906115b1565b6014821015610665578380f35b61066f8284610c27565b60601c918060141161081357823b15610813577fffffffffffffffffffffffffffffffffffffffffffffffffffffffffffffffec956107ac86926107309660146040519a8b998a9889977f462ebde200000000000000000000000000000000000000000000000000000000895260043560048a015260243560248a015260443560448a015260643560648a015260843560848a015260a43560a48a015260c43560c48a015260e43560e48a01526101e06101048a01526101e4890191610cdb565b936101243561012488015273ffffffffffffffffffffffffffffffffffffffff610144351661014488015261016435610164880152610184356101848801526101a4356101a48801527ffffffffffffffffffffffffffffffffffffffffffffffffffffffffffffffffc878603016101c4880152019101610cdb565b03925af18015610808576107c3575b818180808380f35b67ffffffffffffffff81116107db57604052386107bb565b6024827f4e487b710000000000000000000000000000000000000000000000000000000081526041600452fd5b6040513d84823e3d90fd5b8480fd5b61082b90601584840391013560601c6115b1565b38610649565b61084283600183013560601c6115b1565b610641565b929161086c9481928261088c575b828203610871575b50039061018435030391611517565b610658565b61088690601584840391013560601c87611517565b3861085d565b61089e83600183013560601c88611517565b610855565b507e8000000000000000000000000000000000000000000000000000000000000060e43516151561062f565b5092955050819003016108e3578492610658565b60046040517f679a57eb000000000000000000000000000000000000000000000000000000008152fd5b60046040517f0155201f000000000000000000000000000000000000000000000000000000008152fd5b506040517f70a0823100000000000000000000000000000000000000000000000000000000815273ffffffffffffffffffffffffffffffffffffffff6101443516600482015260208160248173ffffffffffffffffffffffffffffffffffffffff7f0000000000000000000000000000000000000000000000000000000000000000165afa908115610a07578b916109d1575b5015610583565b90506020813d6020116109ff575b816109ec60209383610c6b565b810103126109fb5751386109ca565b8a80fd5b3d91506109df565b6040513d8d823e3d90fd5b9350610a469150507fffffffffffffffffffffffffffffffffffffffffffffffffffffffffffffffd7830160298501610c27565b60601c917fffffffffffffffffffffffffffffffffffffffffffffffffffffffffffffffd78101601411610aa357603d8401907fffffffffffffffffffffffffffffffffffffffffffffffffffffffffffffffc301610573610563565b8580fd5b6024857f4e487b710000000000000000000000000000000000000000000000000000000081526032600452fd5b60046040517fd25aa106000000000000000000000000000000000000000000000000000000008152fd5b5080fd5b503461015d576020610b47610b3e620186a0610b30610b2036610b7d565b849394919b98999295979b610f8c565b99945097929c9150996111a8565b920101906112a3565b604051908152f35b9181601f840112156101585782359167ffffffffffffffff8311610158576020838186019501011161015857565b907ffffffffffffffffffffffffffffffffffffffffffffffffffffffffffffffffc82016101c0811261015857610100136101585760049167ffffffffffffffff90610104358281116101585781610bd791600401610b4f565b9390939261012435926101443573ffffffffffffffffffffffffffffffffffffffff811681036101585792610164359261018435926101a43591821161015857610c2391600401610b4f565b9091565b7fffffffffffffffffffffffffffffffffffffffff0000000000000000000000009035818116939260148110610c5c57505050565b60140360031b82901b16169150565b90601f7fffffffffffffffffffffffffffffffffffffffffffffffffffffffffffffffe0910116810190811067ffffffffffffffff821117610cac57604052565b7f4e487b7100000000000000000000000000000000000000000000000000000000600052604160045260246000fd5b601f82602094937fffffffffffffffffffffffffffffffffffffffffffffffffffffffffffffffe0938186528686013760008582860101520116010190565b73ffffffffffffffffffffffffffffffffffffffff600054163303610d3b57565b60246040517f118cdaa7000000000000000000000000000000000000000000000000000000008152336004820152fd5b3d15610dc4573d9067ffffffffffffffff8211610cac5760405191610db860207fffffffffffffffffffffffffffffffffffffffffffffffffffffffffffffffe0601f8401160184610c6b565b82523d6000602084013e565b606090565b9291909160009369ffffffffffffffffffff60009316908415610e9e57803560f81c90600a82600a02600194818601808711610e9a578910610e96578184018601988290037fffffffffffffffffffffffffffffffffffffffffffffffffffffffffffffffff019793849087015b868610610e48575050505050505050565b838511610afe57803560b01c8314610e8a577ffffffffffffffffffffffffffffffffffffffffffffffffffffffffffffffff685899201940195019492610e37565b50959950505050505050565b8780fd5b8880fd5b6024847f4e487b710000000000000000000000000000000000000000000000000000000081526032600452fd5b7fffff0000000000000000000000000000000000000000000000000000000000009035818116939260028110610f0057505050565b60020360031b82901b16169150565b7fff000000000000000000000000000000000000000000000000000000000000009035818116939260018110610f4457505050565b60010360031b82901b16169150565b8115610f5d570490565b7f4e487b7100000000000000000000000000000000000000000000000000000000600052601260045260246000fd5b91610f978284610ecb565b60f01c928260021161015857610fd27ffffffffffffffffffffffffffffffffffffffffffffffffffffffffffffffffe840160028301610f0f565b60f81c92606484116110d25780600311610158576110157ffffffffffffffffffffffffffffffffffffffffffffffffffffffffffffffffd820160038401610ecb565b60f01c9281600511610158576110507ffffffffffffffffffffffffffffffffffffffffffffffffffffffffffffffffb830160058501610f0f565b60f81c92606484116110a857826006116101585760067ffffffffffffffffffffffffffffffffffffffffffffffffffffffffffffffffa61109394019101610dc9565b919690928761109f5750565b60649194020492565b60046040517f3066a1f1000000000000000000000000000000000000000000000000000000008152fd5b60046040517fc5374e2d000000000000000000000000000000000000000000000000000000008152fd5b949073ffffffffffffffffffffffffffffffffffffffff926111a59a989599979461117d9260e06101c09180358b52602081013560208c0152604081013560408c0152606081013560608c0152608081013560808c015260a081013560a08c015260c081013560c08c0152013560e08a0152806101008a0152880191610cdb565b97610120860152166101408401526101608301526101808201526101a0818503910152610cdb565b90565b9097949693959492939060148410611287576111c48483610c27565b60601c9584601411610158576020986014987fffffffffffffffffffffffffffffffffffffffffffffffffffffffffffffffec97611236966040519d8e9c8d9b8c9b7f1d9671c3000000000000000000000000000000000000000000000000000000008d520198019660048b016110fc565b03915afa90811561127b5760009161124c575090565b90506020813d602011611273575b8161126760209383610c6b565b81010312610158575190565b3d915061125a565b6040513d6000823e3d90fd5b96955050505050506111a5925060a060c0830135920135611483565b90620186a090818302917fffffffffffffffffffffffffffffffffffffffffffffffffffffffffffffffff81850993838086109503948086039514611355578483111561133c579082910981600003821680920460028082600302188083028203028083028203028083028203028083028203028083028203028092029003029360018380600003040190848311900302920304170290565b82634e487b71600052156003026011186020526024601cfd5b5050906111a59250610f53565b818102907fffffffffffffffffffffffffffffffffffffffffffffffffffffffffffffffff838209908280831092039180830392146113f05781606411156113dd577f5c28f5c28f5c28f5c28f5c28f5c28f5c28f5c28f5c28f5c28f5c28f5c28f5c29936064910990828211900360fe1b910360021c170290565b634e487b7160005260116020526024601cfd5b5050606491500490565b90808202907fffffffffffffffffffffffffffffffffffffffffffffffffffffffffffffffff8184099082808310920391808303921461147757620186a090828211156113dd577f58cd20afa2f05a708ede54b48d3ae685db76b3bb83cf2cf95d4e8fb00bcbe61d940990828211900360fb1b910360051c170290565b5050620186a091500490565b91818302917fffffffffffffffffffffffffffffffffffffffffffffffffffffffffffffffff81850993838086109503948086039514611355578483111561133c579082910981600003821680920460028082600302188083028203028083028203028083028203028083028203028083028203028092029003029360018380600003040190848311900302920304170290565b916044602092600092604051917fa9059cbb0000000000000000000000000000000000000000000000000000000083526004830152602482015282855af1908161158e575b501561156457565b60046040517ffb7f5079000000000000000000000000000000000000000000000000000000008152fd5b90503d156115a95750600160005114601f3d11165b3861155c565b3b15156115a3565b600080809381935af16115c2610d6b565b50156115ca57565b60046040517f6d963f88000000000000000000000000000000000000000000000000000000008152fd5b9097949693959492939060148410611682576116108483610c27565b60601c9584601411610158576020986014987fffffffffffffffffffffffffffffffffffffffffffffffffffffffffffffffec97611236966040519d8e9c8d9b8c9b7fd7ff8a80000000000000000000000000000000000000000000000000000000008d520198019660048b016110fc565b975050505050505060a060c0830135920135906116a0828285611483565b928215610f5d5709151581018091116101be579056fea2646970667358221220df294adbee57dd587581109e214d3d14e41fd0be9d81df6f6d4f8d1e8dc7078864736f6c63430008170033"
}