{
  "address": "0xc0DFdB9E7a392c3dBBE7c6FBe8FBC1789C9FE05e",
  "abi": [
    {
      "inputs": [
        {
          "internalType": "address",
          "name": "limitOrderProtocol",
          "type": "address"
        },
        {
          "internalType": "contract IERC20",
          "name": "accessToken",
          "type": "address"
        },
        {
          "internalType": "address",
          "name": "weth",
          "type": "address"
        },
        {
          "internalType": "address",
          "name": "owner",
          "type": "address"
        }
      ],
      "stateMutability": "nonpayable",
      "type": "constructor"
    },
    {
      "inputs": [],
      "name": "ETHTransferFailed",
      "type": "error"
    },
    {
      "inputs": [],
      "name": "EthTransferFailed",
      "type": "error"
    },
    {
      "inputs": [],
      "name": "InconsistentFee",
      "type": "error"
    },
    {
      "inputs": [],
      "name": "InsufficientBalance",
      "type": "error"
    },
    {
      "inputs": [],
      "name": "InvalidIntegratorShare",
      "type": "error"
    },
    {
      "inputs": [],
      "name": "InvalidWhitelistDiscountNumerator",
      "type": "error"
    },
    {
      "inputs": [],
      "name": "OnlyLimitOrderProtocol",
      "type": "error"
    },
    {
      "inputs": [],
      "name": "OnlyWhitelistOrAccessToken",
      "type": "error"
    },
    {
      "inputs": [
        {
          "internalType": "address",
          "name": "owner",
          "type": "address"
        }
      ],
      "name": "OwnableInvalidOwner",
      "type": "error"
    },
    {
      "inputs": [
        {
          "internalType": "address",
          "name": "account",
          "type": "address"
        }
      ],
      "name": "OwnableUnauthorizedAccount",
      "type": "error"
    },
    {
      "inputs": [],
      "name": "SafeTransferFailed",
      "type": "error"
    },
    {
      "anonymous": false,
      "inputs": [
        {
          "indexed": true,
          "internalType": "address",
          "name": "previousOwner",
          "type": "address"
        },
        {
          "indexed": true,
          "internalType": "address",
          "name": "newOwner",
          "type": "address"
        }
      ],
      "name": "OwnershipTransferred",
      "type": "event"
    },
    {
      "inputs": [
        {
          "components": [
            {
              "internalType": "uint256",
              "name": "salt",
              "type": "uint256"
            },
            {
              "internalType": "Address",
              "name": "maker",
              "type": "uint256"
            },
            {
              "internalType": "Address",
              "name": "receiver",
              "type": "uint256"
            },
            {
              "internalType": "Address",
              "name": "makerAsset",
              "type": "uint256"
            },
            {
              "internalType": "Address",
              "name": "takerAsset",
              "type": "uint256"
            },
            {
              "internalType": "uint256",
              "name": "makingAmount",
              "type": "uint256"
            },
            {
              "internalType": "uint256",
              "name": "takingAmount",
              "type": "uint256"
            },
            {
              "internalType": "MakerTraits",
              "name": "makerTraits",
              "type": "uint256"
            }
          ],
          "internalType": "struct IOrderMixin.Order",
          "name": "order",
          "type": "tuple"
        },
        {
          "internalType": "bytes",
          "name": "extension",
          "type": "bytes"
        },
        {
          "internalType": "bytes32",
          "name": "orderHash",
          "type": "bytes32"
        },
        {
          "internalType": "address",
          "name": "taker",
          "type": "address"
        },
        {
          "internalType": "uint256",
          "name": "takingAmount",
          "type": "uint256"
        },
        {
          "internalType": "uint256",
          "name": "remainingMakingAmount",
          "type": "uint256"
        },
        {
          "internalType": "bytes",
          "name": "extraData",
          "type": "bytes"
        }
      ],
      "name": "getMakingAmount",
      "outputs": [
        {
          "internalType": "uint256",
          "name": "",
          "type": "uint256"
        }
      ],
      "stateMutability": "view",
      "type": "function"
    },
    {
      "inputs": [
        {
          "components": [
            {
              "internalType": "uint256",
              "name": "salt",
              "type": "uint256"
            },
            {
              "internalType": "Address",
              "name": "maker",
              "type": "uint256"
            },
            {
              "internalType": "Address",
              "name": "receiver",
              "type": "uint256"
            },
            {
              "internalType": "Address",
              "name": "makerAsset",
              "type": "uint256"
            },
            {
              "internalType": "Address",
              "name": "takerAsset",
              "type": "uint256"
            },
            {
              "internalType": "uint256",
              "name": "makingAmount",
              "type": "uint256"
            },
            {
              "internalType": "uint256",
              "name": "takingAmount",
              "type": "uint256"
            },
            {
              "internalType": "MakerTraits",
              "name": "makerTraits",
              "type": "uint256"
            }
          ],
          "internalType": "struct IOrderMixin.Order",
          "name": "order",
          "type": "tuple"
        },
        {
          "internalType": "bytes",
          "name": "extension",
          "type": "bytes"
        },
        {
          "internalType": "bytes32",
          "name": "orderHash",
          "type": "bytes32"
        },
        {
          "internalType": "address",
          "name": "taker",
          "type": "address"
        },
        {
          "internalType": "uint256",
          "name": "makingAmount",
          "type": "uint256"
        },
        {
          "internalType": "uint256",
          "name": "remainingMakingAmount",
          "type": "uint256"
        },
        {
          "internalType": "bytes",
          "name": "extraData",
          "type": "bytes"
        }
      ],
      "name": "getTakingAmount",
      "outputs": [
        {
          "internalType": "uint256",
          "name": "",
          "type": "uint256"
        }
      ],
      "stateMutability": "view",
      "type": "function"
    },
    {
      "inputs": [],
      "name": "owner",
      "outputs": [
        {
          "internalType": "address",
          "name": "",
          "type": "address"
        }
      ],
      "stateMutability": "view",
      "type": "function"
    },
    {
      "inputs": [
        {
          "components": [
            {
              "internalType": "uint256",
              "name": "salt",
              "type": "uint256"
            },
            {
              "internalType": "Address",
              "name": "maker",
              "type": "uint256"
            },
            {
              "internalType": "Address",
              "name": "receiver",
              "type": "uint256"
            },
            {
              "internalType": "Address",
              "name": "makerAsset",
              "type": "uint256"
            },
            {
              "internalType": "Address",
              "name": "takerAsset",
              "type": "uint256"
            },
            {
              "internalType": "uint256",
              "name": "makingAmount",
              "type": "uint256"
            },
            {
              "internalType": "uint256",
              "name": "takingAmount",
              "type": "uint256"
            },
            {
              "internalType": "MakerTraits",
              "name": "makerTraits",
              "type": "uint256"
            }
          ],
          "internalType": "struct IOrderMixin.Order",
          "name": "order",
          "type": "tuple"
        },
        {
          "internalType": "bytes",
          "name": "extension",
          "type": "bytes"
        },
        {
          "internalType": "bytes32",
          "name": "orderHash",
          "type": "bytes32"
        },
        {
          "internalType": "address",
          "name": "taker",
          "type": "address"
        },
        {
          "internalType": "uint256",
          "name": "makingAmount",
          "type": "uint256"
        },
        {
          "internalType": "uint256",
          "name": "takingAmount",
          "type": "uint256"
        },
        {
          "internalType": "uint256",
          "name": "remainingMakingAmount",
          "type": "uint256"
        },
        {
          "internalType": "bytes",
          "name": "extraData",
          "type": "bytes"
        }
      ],
      "name": "postInteraction",
      "outputs": [],
      "stateMutability": "nonpayable",
      "type": "function"
    },
    {
      "inputs": [],
      "name": "renounceOwnership",
      "outputs": [],
      "stateMutability": "nonpayable",
      "type": "function"
    },
    {
      "inputs": [
        {
          "internalType": "contract IERC20",
          "name": "token",
          "type": "address"
        },
        {
          "internalType": "uint256",
          "name": "amount",
          "type": "uint256"
        }
      ],
      "name": "rescueFunds",
      "outputs": [],
      "stateMutability": "nonpayable",
      "type": "function"
    },
    {
      "inputs": [
        {
          "internalType": "address",
          "name": "newOwner",
          "type": "address"
        }
      ],
      "name": "transferOwnership",
      "outputs": [],
      "stateMutability": "nonpayable",
      "type": "function"
    },
    {
      "stateMutability": "payable",
      "type": "receive"
    }
  ],
  "transactionHash": "0x5ec391ce66830285dca267009ff81bfee448cb8096a0b796924c908b8d9a1827",
  "args": [
    "0x111111125421ca6dc452d289314280a0f8842a65",
    "0xAcce5500000f71A32B5E5514D1577E14b7aacC4a",
    "0xe4f05A66Ec68B54A58B17c22107b02e0232cC817",
    "0x56E44874F624EbDE6efCc783eFD685f0FBDC6dcF"
  ],
  "numDeployments": 2,
  "bytecode": "0x60e0346200011357601f6200181d38819003918201601f19168301916001600160401b03831184841017620001185780849260809460405283398101031262000113576200004d816200012e565b60208201516001600160a01b0392909183831683036200011357836200008460606200007c604086016200012e565b94016200012e565b168015620000fa57600080546001600160a01b03198116831782556040519616907f8be0079c531659141344cd1fd0a4f28419497f9722a3daafe3b4186f6b6457e09080a360805260a05260c0526116d990816200014482396080518161048b015260a051816105fe015260c051816109ea0152f35b604051631e4fbdf760e01b815260006004820152602490fd5b600080fd5b634e487b7160e01b600052604160045260246000fd5b51906001600160a01b0382168203620001135756fe6080604052600436101561001b575b361561001957600080fd5b005b6000803560e01c80631d9671c314610b52578063462ebde2146103cf578063715018a61461033257806378e3214f1461020e5780638da5cb5b146101bd578063d7ff8a80146101605763f2fde38b14610074575061000e565b3461015d5760207ffffffffffffffffffffffffffffffffffffffffffffffffffffffffffffffffc36011261015d5760043573ffffffffffffffffffffffffffffffffffffffff808216809203610158576100cd610d62565b811561012757600054827fffffffffffffffffffffffff0000000000000000000000000000000000000000821617600055167f8be0079c531659141344cd1fd0a4f28419497f9722a3daafe3b4186f6b6457e0600080a380f35b602483604051907f1e4fbdf70000000000000000000000000000000000000000000000000000000082526004820152fd5b600080fd5b80fd5b503461015d5760206101b561019861018a61017a36610bc5565b849394919a98999295979a610f63565b99945097929b9150996115e4565b91620186a0910181016101ab81846113ae565b92091515906114cb565b604051908152f35b503461015d57807ffffffffffffffffffffffffffffffffffffffffffffffffffffffffffffffffc36011261015d5773ffffffffffffffffffffffffffffffffffffffff6020915416604051908152f35b503461015d5760407ffffffffffffffffffffffffffffffffffffffffffffffffffffffffffffffffc36011261015d5760043573ffffffffffffffffffffffffffffffffffffffff81169081810361032e576024359161026c610d62565b82610275578380f35b8015908115610310575b50156102ff57508047106102d5578180808093335af161029d610db3565b50156102ab575b3880808380f35b60046040517fb12d13eb000000000000000000000000000000000000000000000000000000008152fd5b60046040517ff4d678b8000000000000000000000000000000000000000000000000000000008152fd5b9061030b913390611507565b6102a4565b73eeeeeeeeeeeeeeeeeeeeeeeeeeeeeeeeeeeeeeee9150143861027f565b8280fd5b503461015d57807ffffffffffffffffffffffffffffffffffffffffffffffffffffffffffffffffc36011261015d57610369610d62565b600073ffffffffffffffffffffffffffffffffffffffff81547fffffffffffffffffffffffff000000000000000000000000000000000000000081168355167f8be0079c531659141344cd1fd0a4f28419497f9722a3daafe3b4186f6b6457e08280a380f35b503461015d577ffffffffffffffffffffffffffffffffffffffffffffffffffffffffffffffffc36016101e08112610b4e576101001361015d576101043567ffffffffffffffff8111610b4e5761042a903690600401610b97565b73ffffffffffffffffffffffffffffffffffffffff61014493929335166101443503610b4e5767ffffffffffffffff6101c43511610b4e57610472366101c435600401610b97565b909373ffffffffffffffffffffffffffffffffffffffff7f0000000000000000000000000000000000000000000000000000000000000000163303610b24578115610af75781601511610af35781602911610af357602985017fffffffffffffffffffffffffffffffffffffffffffffffffffffffffffffffd7830173ffffffffffffffffffffffffffffffffffffffff60243516937f01000000000000000000000000000000000000000000000000000000000000008089351614610a62575b5090610543916101443591610f63565b95949692919390961580610987575b61095d57620186a08181018091116109305761059d929161058e61058761057c88610598956114cb565b809361018435611437565b9384611316565b9561018435611437565b6114cb565b9182818103116109035787989796973073ffffffffffffffffffffffffffffffffffffffff60443516146000146108c55773ffffffffffffffffffffffffffffffffffffffff6084351673ffffffffffffffffffffffffffffffffffffffff7f000000000000000000000000000000000000000000000000000000000000000016811480610899575b1561083d575061064f93829182610827575b82820361080d575b500390610184350303906115a1565b6013821161065b578380f35b6106658284610c6f565b60601c918060141161080957823b15610809577fffffffffffffffffffffffffffffffffffffffffffffffffffffffffffffffec956107a286926107269660146040519a8b998a9889977f462ebde200000000000000000000000000000000000000000000000000000000895260043560048a015260243560248a015260443560448a015260643560648a015260843560848a015260a43560a48a015260c43560c48a015260e43560e48a01526101e06101048a01526101e4890191610d23565b936101243561012488015273ffffffffffffffffffffffffffffffffffffffff610144351661014488015261016435610164880152610184356101848801526101a4356101a48801527ffffffffffffffffffffffffffffffffffffffffffffffffffffffffffffffffc878603016101c4880152019101610d23565b03925af180156107fe576107b9575b818180808380f35b67ffffffffffffffff81116107d157604052386107b1565b6024827f4e487b710000000000000000000000000000000000000000000000000000000081526041600452fd5b6040513d84823e3d90fd5b8480fd5b61082190601584840391013560601c6115a1565b38610640565b61083883600183013560601c6115a1565b610638565b929161086294819282610882575b828203610867575b50039061018435030391611507565b61064f565b61087c90601584840391013560601c87611507565b38610853565b61089483600183013560601c88611507565b61084b565b507e8000000000000000000000000000000000000000000000000000000000000060e435161515610626565b5092955050819003016108d957849261064f565b60046040517f679a57eb000000000000000000000000000000000000000000000000000000008152fd5b6024887f4e487b710000000000000000000000000000000000000000000000000000000081526011600452fd5b60248a7f4e487b710000000000000000000000000000000000000000000000000000000081526011600452fd5b60046040517f0155201f000000000000000000000000000000000000000000000000000000008152fd5b506040517f70a0823100000000000000000000000000000000000000000000000000000000815273ffffffffffffffffffffffffffffffffffffffff6101443516600482015260208160248173ffffffffffffffffffffffffffffffffffffffff7f0000000000000000000000000000000000000000000000000000000000000000165afa908115610a57578a91610a21575b5015610552565b90506020813d602011610a4f575b81610a3c60209383610cb3565b81010312610a4b575138610a1a565b8980fd5b3d9150610a2f565b6040513d8c823e3d90fd5b9350610a969150507fffffffffffffffffffffffffffffffffffffffffffffffffffffffffffffffd7830160298701610c6f565b60601c917fffffffffffffffffffffffffffffffffffffffffffffffffffffffffffffffd7810160141161080957603d8601907fffffffffffffffffffffffffffffffffffffffffffffffffffffffffffffffc301610543610533565b8380fd5b6024847f4e487b710000000000000000000000000000000000000000000000000000000081526032600452fd5b60046040517fd25aa106000000000000000000000000000000000000000000000000000000008152fd5b5080fd5b503461015d5760206101b5610b8e620186a0610b80610b7036610bc5565b849394919b98999295979b610f63565b99945097929c91509961115c565b92010190611257565b9181601f840112156101585782359167ffffffffffffffff8311610158576020838186019501011161015857565b907ffffffffffffffffffffffffffffffffffffffffffffffffffffffffffffffffc82016101c0811261015857610100136101585760049167ffffffffffffffff90610104358281116101585781610c1f91600401610b97565b9390939261012435926101443573ffffffffffffffffffffffffffffffffffffffff811681036101585792610164359261018435926101a43591821161015857610c6b91600401610b97565b9091565b7fffffffffffffffffffffffffffffffffffffffff0000000000000000000000009035818116939260148110610ca457505050565b60140360031b82901b16169150565b90601f7fffffffffffffffffffffffffffffffffffffffffffffffffffffffffffffffe0910116810190811067ffffffffffffffff821117610cf457604052565b7f4e487b7100000000000000000000000000000000000000000000000000000000600052604160045260246000fd5b601f82602094937fffffffffffffffffffffffffffffffffffffffffffffffffffffffffffffffe0938186528686013760008582860101520116010190565b73ffffffffffffffffffffffffffffffffffffffff600054163303610d8357565b60246040517f118cdaa7000000000000000000000000000000000000000000000000000000008152336004820152fd5b3d15610e0c573d9067ffffffffffffffff8211610cf45760405191610e0060207fffffffffffffffffffffffffffffffffffffffffffffffffffffffffffffffe0601f8401160184610cb3565b82523d6000602084013e565b606090565b9291909160009369ffffffffffffffffffff60009316908415610af757803560f81c90600a82600a02600194818601808711610ee2578910610ede578184018601988290037fffffffffffffffffffffffffffffffffffffffffffffffffffffffffffffffff019793849087015b868610610e90575050505050505050565b838511610b4e57803560b01c8314610ed2577ffffffffffffffffffffffffffffffffffffffffffffffffffffffffffffffff685899201940195019492610e7f565b50959950505050505050565b8780fd5b8880fd5b7fffff0000000000000000000000000000000000000000000000000000000000009035818116939260028110610f1b57505050565b60020360031b82901b16169150565b8115610f34570490565b7f4e487b7100000000000000000000000000000000000000000000000000000000600052601260045260246000fd5b91610f6e8284610ee6565b60f01c92826002101561105757600281013560f81c9260648411611086578060031161015857610fc37ffffffffffffffffffffffffffffffffffffffffffffffffffffffffffffffffd820160038401610ee6565b60f01c92816005101561105757600583013560f81c926064841161102d57826006116101585760067ffffffffffffffffffffffffffffffffffffffffffffffffffffffffffffffffa61101894019101610e11565b91969092876110245750565b60649194020492565b60046040517f3066a1f1000000000000000000000000000000000000000000000000000000008152fd5b7f4e487b7100000000000000000000000000000000000000000000000000000000600052603260045260246000fd5b60046040517fc5374e2d000000000000000000000000000000000000000000000000000000008152fd5b949073ffffffffffffffffffffffffffffffffffffffff926111599a98959997946111319260e06101c09180358b52602081013560208c0152604081013560408c0152606081013560608c0152608081013560808c015260a081013560a08c015260c081013560c08c0152013560e08a0152806101008a0152880191610d23565b97610120860152166101408401526101608301526101808201526101a0818503910152610d23565b90565b909794969395949293906014841061123b576111788483610c6f565b60601c9584601411610158576020986014987fffffffffffffffffffffffffffffffffffffffffffffffffffffffffffffffec976111ea966040519d8e9c8d9b8c9b7f1d9671c3000000000000000000000000000000000000000000000000000000008d520198019660048b016110b0565b03915afa90811561122f57600091611200575090565b90506020813d602011611227575b8161121b60209383610cb3565b81010312610158575190565b3d915061120e565b6040513d6000823e3d90fd5b9695505050505050611159925060a060c0830135920135611437565b90620186a090818302917fffffffffffffffffffffffffffffffffffffffffffffffffffffffffffffffff8185099383808610950394808603951461130957848311156112f0579082910981600003821680920460028082600302188083028203028083028203028083028203028083028203028083028203028092029003029360018380600003040190848311900302920304170290565b82634e487b71600052156003026011186020526024601cfd5b5050906111599250610f2a565b818102907fffffffffffffffffffffffffffffffffffffffffffffffffffffffffffffffff838209908280831092039180830392146113a4578160641115611391577f5c28f5c28f5c28f5c28f5c28f5c28f5c28f5c28f5c28f5c28f5c28f5c28f5c29936064910990828211900360fe1b910360021c170290565b634e487b7160005260116020526024601cfd5b5050606491500490565b90808202907fffffffffffffffffffffffffffffffffffffffffffffffffffffffffffffffff8184099082808310920391808303921461142b57620186a09082821115611391577f58cd20afa2f05a708ede54b48d3ae685db76b3bb83cf2cf95d4e8fb00bcbe61d940990828211900360fb1b910360051c170290565b5050620186a091500490565b91818302917fffffffffffffffffffffffffffffffffffffffffffffffffffffffffffffffff8185099383808610950394808603951461130957848311156112f0579082910981600003821680920460028082600302188083028203028083028203028083028203028083028203028083028203028092029003029360018380600003040190848311900302920304170290565b919082018092116114d857565b7f4e487b7100000000000000000000000000000000000000000000000000000000600052601160045260246000fd5b916044602092600092604051917fa9059cbb0000000000000000000000000000000000000000000000000000000083526004830152602482015282855af1908161157e575b501561155457565b60046040517ffb7f5079000000000000000000000000000000000000000000000000000000008152fd5b90503d156115995750600160005114601f3d11165b3861154c565b3b1515611593565b600080809381935af16115b2610db3565b50156115ba57565b60046040517f6d963f88000000000000000000000000000000000000000000000000000000008152fd5b9097949693959492939060148410611672576116008483610c6f565b60601c9584601411610158576020986014987fffffffffffffffffffffffffffffffffffffffffffffffffffffffffffffffec976111ea966040519d8e9c8d9b8c9b7fd7ff8a80000000000000000000000000000000000000000000000000000000008d520198019660048b016110b0565b975050505050505060a060c083013592013561168f818385611437565b918115610f345761115993091515906114cb56fea2646970667358221220989337d8153f291674e071fcc911c6d0b95917e099c90f507f3494b6c536df4f64736f6c63430008170033"
}