{
  "address": "0x7871769b3816b23dB12E83a482aAc35F1FD35D4B",
  "abi": [
    {
      "inputs": [],
      "name": "AdvanceNonceFailed",
      "type": "error"
    },
    {
      "anonymous": false,
      "inputs": [
        {
          "indexed": true,
          "internalType": "address",
          "name": "maker",
          "type": "address"
        },
        {
          "indexed": false,
          "internalType": "uint256",
          "name": "series",
          "type": "uint256"
        },
        {
          "indexed": false,
          "internalType": "uint256",
          "name": "newNonce",
          "type": "uint256"
        }
      ],
      "name": "NonceIncreased",
      "type": "event"
    },
    {
      "inputs": [
        {
          "internalType": "uint256",
          "name": "series",
          "type": "uint256"
        },
        {
          "internalType": "uint256",
          "name": "amount",
          "type": "uint256"
        }
      ],
      "name": "advanceNonce",
      "outputs": [],
      "stateMutability": "nonpayable",
      "type": "function"
    },
    {
      "inputs": [
        {
          "internalType": "uint8",
          "name": "series",
          "type": "uint8"
        }
      ],
      "name": "increaseNonce",
      "outputs": [],
      "stateMutability": "nonpayable",
      "type": "function"
    },
    {
      "inputs": [
        {
          "internalType": "uint256",
          "name": "",
          "type": "uint256"
        },
        {
          "internalType": "address",
          "name": "",
          "type": "address"
        }
      ],
      "name": "nonce",
      "outputs": [
        {
          "internalType": "uint256",
          "name": "",
          "type": "uint256"
        }
      ],
      "stateMutability": "view",
      "type": "function"
    },
    {
      "inputs": [
        {
          "internalType": "uint256",
          "name": "series",
          "type": "uint256"
        },
        {
          "internalType": "address",
          "name": "makerAddress",
          "type": "address"
        },
        {
          "internalType": "uint256",
          "name": "makerNonce",
          "type": "uint256"
        }
      ],
      "name": "nonceEquals",
      "outputs": [
        {
          "internalType": "bool",
          "name": "",
          "type": "bool"
        }
      ],
      "stateMutability": "view",
      "type": "function"
    },
    {
      "inputs": [
        {
          "internalType": "uint256",
          "name": "time",
          "type": "uint256"
        }
      ],
      "name": "timestampBelow",
      "outputs": [
        {
          "internalType": "bool",
          "name": "",
          "type": "bool"
        }
      ],
      "stateMutability": "view",
      "type": "function"
    },
    {
      "inputs": [
        {
          "internalType": "uint256",
          "name": "timeNonceSeriesAccount",
          "type": "uint256"
        }
      ],
      "name": "timestampBelowAndNonceEquals",
      "outputs": [
        {
          "internalType": "bool",
          "name": "",
          "type": "bool"
        }
      ],
      "stateMutability": "view",
      "type": "function"
    }
  ],
  "transactionHash": "0x72e46b0031fcc0a54970b3c6c997e04e892660d0630bd6e1f962c10e14c029ec",
  "args": [],
  "numDeployments": 2,
  "solcInputHash": "5784b18f29a3e5d1118bacebeef5cc3a",
  "bytecode": "0x608060405234801561001057600080fd5b5061030b806100206000396000f3fe608060405234801561001057600080fd5b50600436106100725760003560e01c806363592c2b1161005057806363592c2b146101285780637a37dc2c14610145578063976222211461016557600080fd5b80632cc2878d146100775780634a7f2a4b146100a85780635d3a09dc14610103575b600080fd5b6100946004803603602081101561008d57600080fd5b50356101b8565b604080519115158252519081900360200190f35b6100f1600480360360408110156100be57600080fd5b5060006020818152823582526040808320825292013573ffffffffffffffffffffffffffffffffffffffff168152205481565b60408051918252519081900360200190f35b6101266004803603604081101561011957600080fd5b5080359060200135610220565b005b6100946004803603602081101561013e57600080fd5b5035421090565b6101266004803603602081101561015b57600080fd5b503560ff166102c4565b6100946004803603606081101561017b57600080fd5b5080356000908152602081815260408083208285013573ffffffffffffffffffffffffffffffffffffffff16845290915290819020549101351490565b600060d882901c60b083901c64ffffffffff1661ffff60a085901c16846101de84421090565b8015610216575060008281526020818152604080832073ffffffffffffffffffffffffffffffffffffffff8516845290915290205483145b9695505050505050565b80158061022d575060ff81115b15610264576040517fbd71636d00000000000000000000000000000000000000000000000000000000815260040160405180910390fd5b60008281526020818152604080832033808552908352928190208054850190819055815186815292830181905281519093927fdc0537f71d06d3708f52baf4ddf6918b25f1a145ba08873de27485682b35cac192908290030190a2505050565b6102d28160ff166001610220565b5056fea26469706673582212200b1a6c091be9f676e58f9ebb89a234b4458d9dd7724e30ca38b42875a55a7eb764736f6c63430008110033",
  "devdoc": {
    "kind": "dev",
    "methods": {
      "nonceEquals(uint256,address,uint256)": {
        "returns": {
          "_0": "Result True if `makerAddress` has specified nonce. Otherwise, false"
        }
      },
      "timestampBelow(uint256)": {
        "returns": {
          "_0": "Result True if current block timestamp is lower than `time`. Otherwise, false"
        }
      }
    },
    "title": "A helper contract to manage nonce with the series",
    "version": 1
  },
  "userdoc": {
    "kind": "user",
    "methods": {
      "advanceNonce(uint256,uint256)": {
        "notice": "Advances nonce by specified amount"
      },
      "increaseNonce(uint8)": {
        "notice": "Advances nonce by one"
      },
      "nonceEquals(uint256,address,uint256)": {
        "notice": "Checks if `makerAddress` has specified `makerNonce` for `series`"
      },
      "timestampBelow(uint256)": {
        "notice": "Checks passed time against block timestamp"
      }
    },
    "version": 1
  },
  "storageLayout": {
    "storage": [
      {
        "astId": 9231,
        "contract": "contracts/helpers/SeriesNonceManager.sol:SeriesNonceManager",
        "label": "nonce",
        "offset": 0,
        "slot": "0",
        "type": "t_mapping(t_uint256,t_mapping(t_address,t_uint256))"
      }
    ],
    "types": {
      "t_address": {
        "encoding": "inplace",
        "label": "address",
        "numberOfBytes": "20"
      },
      "t_mapping(t_address,t_uint256)": {
        "encoding": "mapping",
        "key": "t_address",
        "label": "mapping(address => uint256)",
        "numberOfBytes": "32",
        "value": "t_uint256"
      },
      "t_mapping(t_uint256,t_mapping(t_address,t_uint256))": {
        "encoding": "mapping",
        "key": "t_uint256",
        "label": "mapping(uint256 => mapping(address => uint256))",
        "numberOfBytes": "32",
        "value": "t_mapping(t_address,t_uint256)"
      },
      "t_uint256": {
        "encoding": "inplace",
        "label": "uint256",
        "numberOfBytes": "32"
      }
    }
  }
}