{
  "address": "0xA0446D8804611944F1B527eCD37d7dcbE442caba",
  "abi": [
    {
      "inputs": [
        {
          "internalType": "address",
          "name": "",
          "type": "address"
        },
        {
          "internalType": "address",
          "name": "",
          "type": "address"
        },
        {
          "internalType": "address",
          "name": "takerAsset",
          "type": "address"
        },
        {
          "internalType": "uint256",
          "name": "",
          "type": "uint256"
        },
        {
          "internalType": "uint256",
          "name": "takingAmount",
          "type": "uint256"
        },
        {
          "internalType": "bytes",
          "name": "interactiveData",
          "type": "bytes"
        }
      ],
      "name": "notifyFillOrder",
      "outputs": [],
      "stateMutability": "nonpayable",
      "type": "function"
    },
    {
      "stateMutability": "payable",
      "type": "receive"
    }
  ],
  "transactionHash": "0xfeec3fd0febdb3de190893a8961ce736758247445572498891683bb684b06338",
  "args": [],
  "numDeployments": 1,
  "solcInputHash": "9d5d5d3288f09c6202211da6709289c3",
  "bytecode": "0x608060405234801561001057600080fd5b506101df806100206000396000f3fe6080604052600436106100225760003560e01c8063cf21c7751461002e57600080fd5b3661002957005b600080fd5b34801561003a57600080fd5b506100e5600480360360c081101561005157600080fd5b73ffffffffffffffffffffffffffffffffffffffff8235811692602081013582169260408201359092169160608201359160808101359181019060c0810160a08201356401000000008111156100a657600080fd5b8201836020820111156100b857600080fd5b803590602001918460018302840111640100000000831117156100da57600080fd5b5090925090506100e7565b005b6000823560601c90508573ffffffffffffffffffffffffffffffffffffffff16632e1a7d4d856040518263ffffffff1660e01b815260040180828152602001915050600060405180830381600087803b15801561014357600080fd5b505af1158015610157573d6000803e3d6000fd5b505060405173ffffffffffffffffffffffffffffffffffffffff8416925086156108fc02915086906000818181858888f1935050505015801561019e573d6000803e3d6000fd5b50505050505050505056fea2646970667358221220fe8c3a0f7c799c96d847398d0df01b3b092429e5e060892a7bf50060bbe8a5d564736f6c634300080b0033",
  "devdoc": {
    "kind": "dev",
    "methods": {},
    "version": 1
  },
  "userdoc": {
    "kind": "user",
    "methods": {},
    "version": 1
  },
  "storageLayout": {
    "storage": [],
    "types": null
  }
}