{
  "address": "0x2339f78e2Ec15C47Cf042F2460C532C0D7ff1CCE",
  "abi": [
    {
      "inputs": [
        {
          "internalType": "contract IOrderMixin",
          "name": "limitOrderProtocol",
          "type": "address"
        }
      ],
      "stateMutability": "nonpayable",
      "type": "constructor"
    },
    {
      "inputs": [],
      "name": "BadSignature",
      "type": "error"
    },
    {
      "anonymous": false,
      "inputs": [
        {
          "components": [
            {
              "internalType": "uint256",
              "name": "salt",
              "type": "uint256"
            },
            {
              "internalType": "Address",
              "name": "maker",
              "type": "uint256"
            },
            {
              "internalType": "Address",
              "name": "receiver",
              "type": "uint256"
            },
            {
              "internalType": "Address",
              "name": "makerAsset",
              "type": "uint256"
            },
            {
              "internalType": "Address",
              "name": "takerAsset",
              "type": "uint256"
            },
            {
              "internalType": "uint256",
              "name": "makingAmount",
              "type": "uint256"
            },
            {
              "internalType": "uint256",
              "name": "takingAmount",
              "type": "uint256"
            },
            {
              "internalType": "MakerTraits",
              "name": "makerTraits",
              "type": "uint256"
            }
          ],
          "indexed": false,
          "internalType": "struct IOrderMixin.Order",
          "name": "order",
          "type": "tuple"
        },
        {
          "indexed": false,
          "internalType": "bytes",
          "name": "extension",
          "type": "bytes"
        },
        {
          "indexed": false,
          "internalType": "bytes",
          "name": "signature",
          "type": "bytes"
        }
      ],
      "name": "OrderRegistered",
      "type": "event"
    },
    {
      "inputs": [
        {
          "components": [
            {
              "internalType": "uint256",
              "name": "salt",
              "type": "uint256"
            },
            {
              "internalType": "Address",
              "name": "maker",
              "type": "uint256"
            },
            {
              "internalType": "Address",
              "name": "receiver",
              "type": "uint256"
            },
            {
              "internalType": "Address",
              "name": "makerAsset",
              "type": "uint256"
            },
            {
              "internalType": "Address",
              "name": "takerAsset",
              "type": "uint256"
            },
            {
              "internalType": "uint256",
              "name": "makingAmount",
              "type": "uint256"
            },
            {
              "internalType": "uint256",
              "name": "takingAmount",
              "type": "uint256"
            },
            {
              "internalType": "MakerTraits",
              "name": "makerTraits",
              "type": "uint256"
            }
          ],
          "internalType": "struct IOrderMixin.Order",
          "name": "order",
          "type": "tuple"
        },
        {
          "internalType": "bytes",
          "name": "extension",
          "type": "bytes"
        },
        {
          "internalType": "bytes",
          "name": "signature",
          "type": "bytes"
        }
      ],
      "name": "registerOrder",
      "outputs": [],
      "stateMutability": "nonpayable",
      "type": "function"
    }
  ],
  "transactionHash": "0xcf82ce9ff3b124d7d7d3d2eeb64a7c7db600ebd61539a318c39c73343e441d05",
  "args": [
    "0x111111125421ca6dc452d289314280a0f8842a65"
  ],
  "numDeployments": 2,
  "bytecode": "0x60a03461006a57601f61071338819003918201601f19168301916001600160401b0383118484101761006f5780849260209460405283398101031261006a57516001600160a01b038116810361006a5760805260405161068d908161008682396080518161013f0152f35b600080fd5b634e487b7160e01b600052604160045260246000fdfe608060405260048036101561001357600080fd5b6000803560e01c63dfcb3e341461002957600080fd5b346102a057610140367ffffffffffffffffffffffffffffffffffffffffffffffffffffffffffffffffc0181811261029c5761010080911261029c576101049367ffffffffffffffff85358181116102985761008890369084016102a3565b909161012435908111610294576100a290369085016102a3565b9390976100af8385610385565b901561028e575073ffffffffffffffffffffffffffffffffffffffff90602060405180927f802b2ef100000000000000000000000000000000000000000000000000000000825261013b8683016004358152602435602082015260443560408201526064356060820152608435608082015260a43560a082015260c43560c082015260e060e435910152565b81857f0000000000000000000000000000000000000000000000000000000000000000165afa9081156102835786918b918b91610245575b5061018193602435166104c6565b1561021d5750916102087f1e8610b3a2275f01a103e27257e911d890537b0c70578537ea077ec0a27b5bc996979261021794876040519889986101fd8a6004358152602435602082015260443560408201526064356060820152608435608082015260a43560a082015260c43560c082015260e060e435910152565b890152870191610346565b91848303610120860152610346565b0390a180f35b6040517f5cd5d233000000000000000000000000000000000000000000000000000000008152fd5b925050506020813d60201161027b575b81610262602093836102d6565b81010312610277575185908a90610181610173565b8880fd5b3d9150610255565b6040513d8b823e3d90fd5b88525086fd5b8680fd5b8580fd5b8280fd5b80fd5b9181601f840112156102d15782359167ffffffffffffffff83116102d157602083818601950101116102d157565b600080fd5b90601f7fffffffffffffffffffffffffffffffffffffffffffffffffffffffffffffffe0910116810190811067ffffffffffffffff82111761031757604052565b7f4e487b7100000000000000000000000000000000000000000000000000000000600052604160045260246000fd5b601f82602094937fffffffffffffffffffffffffffffffffffffffffffffffffffffffffffffffe0938186528686013760008582860101520116010190565b9060e4357f0200000000000000000000000000000000000000000000000000000000000000161561049857801561046f5767ffffffffffffffff811161031757604051906103fb60207fffffffffffffffffffffffffffffffffffffffffffffffffffffffffffffffe0601f84011601836102d6565b808252602082019236828201116102d1578160009260209286378301015273ffffffffffffffffffffffffffffffffffffffff91829151902016906004351603610448575b600190600090565b6000907fdc11ee6b0000000000000000000000000000000000000000000000000000000090565b50506000907fb2d25e490000000000000000000000000000000000000000000000000000000090565b905015610440576000907f74896a7b0000000000000000000000000000000000000000000000000000000090565b90919273ffffffffffffffffffffffffffffffffffffffff9182811692831561064c57604093848414918215610641575b8261056f575b5050610565576020928260009384978351937f1626ba7e0000000000000000000000000000000000000000000000000000000098898652600486015260248501528160448501526064840137606401915afa610557575090565b600051143d60201416919050565b5050505050600190565b909150600085518580604114610629576040146105e4575080805b610599575b50161438806104fd565b817f7fffffffffffffffffffffffffffffff5d576e7357a4501ddfe92f46681b20a16060830151106105cc575b5061058f565b6080828a6020945282805260015afa505138816105c6565b807f7fffffffffffffffffffffffffffffffffffffffffffffffffffffffffffffff60208b01358060ff1c601b01602084015260208c8b85013716606082015261058a565b5086890135821a602082015280878a8183013761058a565b6041851492506104f7565b50505050505060009056fea2646970667358221220b94b95af8db6f1e598624eeabc26783936763a52e45bc427668242757e7eb8a264736f6c63430008170033"
}