{
  "address": "0x1c30a1aeeaFAb7f5Edb1A09a7A4a0b8BeD8eE401",
  "abi": [
    {
      "inputs": [],
      "name": "SafeTransferFailed",
      "type": "error"
    },
    {
      "inputs": [
        {
          "components": [
            {
              "internalType": "uint256",
              "name": "salt",
              "type": "uint256"
            },
            {
              "internalType": "Address",
              "name": "maker",
              "type": "uint256"
            },
            {
              "internalType": "Address",
              "name": "receiver",
              "type": "uint256"
            },
            {
              "internalType": "Address",
              "name": "makerAsset",
              "type": "uint256"
            },
            {
              "internalType": "Address",
              "name": "takerAsset",
              "type": "uint256"
            },
            {
              "internalType": "uint256",
              "name": "makingAmount",
              "type": "uint256"
            },
            {
              "internalType": "uint256",
              "name": "takingAmount",
              "type": "uint256"
            },
            {
              "internalType": "MakerTraits",
              "name": "makerTraits",
              "type": "uint256"
            }
          ],
          "internalType": "struct IOrderMixin.Order",
          "name": "order",
          "type": "tuple"
        },
        {
          "internalType": "bytes",
          "name": "",
          "type": "bytes"
        },
        {
          "internalType": "bytes32",
          "name": "",
          "type": "bytes32"
        },
        {
          "internalType": "address",
          "name": "",
          "type": "address"
        },
        {
          "internalType": "uint256",
          "name": "",
          "type": "uint256"
        },
        {
          "internalType": "uint256",
          "name": "takingAmount",
          "type": "uint256"
        },
        {
          "internalType": "uint256",
          "name": "",
          "type": "uint256"
        },
        {
          "internalType": "bytes",
          "name": "extraData",
          "type": "bytes"
        }
      ],
      "name": "postInteraction",
      "outputs": [],
      "stateMutability": "nonpayable",
      "type": "function"
    }
  ],
  "transactionHash": "0x5fe7683efbdb699d501f7e6f1c95adeefaddeaef98b85f40f977b8f6788ccf41",
  "args": [],
  "numDeployments": 1,
  "solcInputHash": "7fa511b698a321843f172bec30dea8ab",
  "bytecode": "0x60808060405234610016576102ba908161001b8239f35b5f80fdfe60806040526004361015610011575f80fd5b5f3560e01c63462ebde214610024575f80fd5b34610178577ffffffffffffffffffffffffffffffffffffffffffffffffffffffffffffffffc36016101e0811261017857610100136101785767ffffffffffffffff610104358181116101785761007f9036906004016101be565b50506101443573ffffffffffffffffffffffffffffffffffffffff90818116036101785761018435916101c435908111610178576100c19036906004016101be565b9281357fffffff000000000000000000000000000000000000000000000000000000000080821691600387106101a9575b505060e81c80820290828204148215171561017c576298968090049084601711610178578360243516926017861161015c575b61013e95508280610140575b50500391608435166101ec565b005b600361015592013560601c86608435166101ec565b5f82610131565b925093602b116101785761013e93601783013560601c92610125565b5f80fd5b7f4e487b71000000000000000000000000000000000000000000000000000000005f52601160045260245ffd5b908092508660030360031b1b16165f806100f2565b9181601f840112156101785782359167ffffffffffffffff8311610178576020838186019501011161017857565b9160446020925f92604051917fa9059cbb0000000000000000000000000000000000000000000000000000000083526004830152602482015282855af19081610262575b501561023857565b60046040517ffb7f5079000000000000000000000000000000000000000000000000000000008152fd5b90503d1561027c575060015f5114601f3d11165b5f610230565b3b151561027656fea26469706673582212206cba7390adfef2ad4dc55a6238e9b1bbb8ac493f6a3c849bc1216147ac2ede7864736f6c63430008170033",
  "devdoc": {
    "kind": "dev",
    "methods": {
      "postInteraction((uint256,uint256,uint256,uint256,uint256,uint256,uint256,uint256),bytes,bytes32,address,uint256,uint256,uint256,bytes)": {
        "details": "Takes the fee in taking tokens and transfers the rest to the maker. `extraData` consists of: 3 bytes  fee percentage (in 1e7) 20 bytes  fee recipient 20 bytes  receiver of taking tokens (optional, if not set, maker is used)"
      }
    },
    "version": 1
  },
  "userdoc": {
    "kind": "user",
    "methods": {
      "postInteraction((uint256,uint256,uint256,uint256,uint256,uint256,uint256,uint256),bytes,bytes32,address,uint256,uint256,uint256,bytes)": {
        "notice": "See {IPostInteraction-postInteraction}."
      }
    },
    "version": 1
  },
  "storageLayout": {
    "storage": [],
    "types": null
  }
}