{
  "address": "0x5349Df28F8353dC8049EDF11FAAE2D3F3b3346de",
  "abi": [
    {
      "anonymous": false,
      "inputs": [
        {
          "indexed": true,
          "internalType": "address",
          "name": "maker",
          "type": "address"
        },
        {
          "indexed": false,
          "internalType": "uint256",
          "name": "newNonce",
          "type": "uint256"
        }
      ],
      "name": "NonceIncreased",
      "type": "event"
    },
    {
      "anonymous": false,
      "inputs": [
        {
          "indexed": true,
          "internalType": "address",
          "name": "maker",
          "type": "address"
        },
        {
          "indexed": false,
          "internalType": "bytes32",
          "name": "orderHash",
          "type": "bytes32"
        },
        {
          "indexed": false,
          "internalType": "uint256",
          "name": "remainingRaw",
          "type": "uint256"
        }
      ],
      "name": "OrderCanceled",
      "type": "event"
    },
    {
      "anonymous": false,
      "inputs": [
        {
          "indexed": true,
          "internalType": "address",
          "name": "maker",
          "type": "address"
        },
        {
          "indexed": false,
          "internalType": "bytes32",
          "name": "orderHash",
          "type": "bytes32"
        },
        {
          "indexed": false,
          "internalType": "uint256",
          "name": "remaining",
          "type": "uint256"
        }
      ],
      "name": "OrderFilled",
      "type": "event"
    },
    {
      "inputs": [],
      "name": "DOMAIN_SEPARATOR",
      "outputs": [
        {
          "internalType": "bytes32",
          "name": "",
          "type": "bytes32"
        }
      ],
      "stateMutability": "view",
      "type": "function"
    },
    {
      "inputs": [],
      "name": "LIMIT_ORDER_TYPEHASH",
      "outputs": [
        {
          "internalType": "bytes32",
          "name": "",
          "type": "bytes32"
        }
      ],
      "stateMutability": "view",
      "type": "function"
    },
    {
      "inputs": [
        {
          "internalType": "uint8",
          "name": "amount",
          "type": "uint8"
        }
      ],
      "name": "advanceNonce",
      "outputs": [],
      "stateMutability": "nonpayable",
      "type": "function"
    },
    {
      "inputs": [
        {
          "internalType": "address[]",
          "name": "targets",
          "type": "address[]"
        },
        {
          "internalType": "bytes[]",
          "name": "data",
          "type": "bytes[]"
        }
      ],
      "name": "and",
      "outputs": [
        {
          "internalType": "bool",
          "name": "",
          "type": "bool"
        }
      ],
      "stateMutability": "view",
      "type": "function"
    },
    {
      "inputs": [
        {
          "internalType": "address",
          "name": "target",
          "type": "address"
        },
        {
          "internalType": "bytes",
          "name": "data",
          "type": "bytes"
        }
      ],
      "name": "arbitraryStaticCall",
      "outputs": [
        {
          "internalType": "uint256",
          "name": "",
          "type": "uint256"
        }
      ],
      "stateMutability": "view",
      "type": "function"
    },
    {
      "inputs": [
        {
          "components": [
            {
              "internalType": "uint256",
              "name": "salt",
              "type": "uint256"
            },
            {
              "internalType": "address",
              "name": "makerAsset",
              "type": "address"
            },
            {
              "internalType": "address",
              "name": "takerAsset",
              "type": "address"
            },
            {
              "internalType": "address",
              "name": "maker",
              "type": "address"
            },
            {
              "internalType": "address",
              "name": "receiver",
              "type": "address"
            },
            {
              "internalType": "address",
              "name": "allowedSender",
              "type": "address"
            },
            {
              "internalType": "uint256",
              "name": "makingAmount",
              "type": "uint256"
            },
            {
              "internalType": "uint256",
              "name": "takingAmount",
              "type": "uint256"
            },
            {
              "internalType": "bytes",
              "name": "makerAssetData",
              "type": "bytes"
            },
            {
              "internalType": "bytes",
              "name": "takerAssetData",
              "type": "bytes"
            },
            {
              "internalType": "bytes",
              "name": "getMakerAmount",
              "type": "bytes"
            },
            {
              "internalType": "bytes",
              "name": "getTakerAmount",
              "type": "bytes"
            },
            {
              "internalType": "bytes",
              "name": "predicate",
              "type": "bytes"
            },
            {
              "internalType": "bytes",
              "name": "permit",
              "type": "bytes"
            },
            {
              "internalType": "bytes",
              "name": "interaction",
              "type": "bytes"
            }
          ],
          "internalType": "struct OrderMixin.Order",
          "name": "order",
          "type": "tuple"
        }
      ],
      "name": "cancelOrder",
      "outputs": [],
      "stateMutability": "nonpayable",
      "type": "function"
    },
    {
      "inputs": [
        {
          "components": [
            {
              "internalType": "uint256",
              "name": "salt",
              "type": "uint256"
            },
            {
              "internalType": "address",
              "name": "makerAsset",
              "type": "address"
            },
            {
              "internalType": "address",
              "name": "takerAsset",
              "type": "address"
            },
            {
              "internalType": "address",
              "name": "maker",
              "type": "address"
            },
            {
              "internalType": "address",
              "name": "receiver",
              "type": "address"
            },
            {
              "internalType": "address",
              "name": "allowedSender",
              "type": "address"
            },
            {
              "internalType": "uint256",
              "name": "makingAmount",
              "type": "uint256"
            },
            {
              "internalType": "uint256",
              "name": "takingAmount",
              "type": "uint256"
            },
            {
              "internalType": "bytes",
              "name": "makerAssetData",
              "type": "bytes"
            },
            {
              "internalType": "bytes",
              "name": "takerAssetData",
              "type": "bytes"
            },
            {
              "internalType": "bytes",
              "name": "getMakerAmount",
              "type": "bytes"
            },
            {
              "internalType": "bytes",
              "name": "getTakerAmount",
              "type": "bytes"
            },
            {
              "internalType": "bytes",
              "name": "predicate",
              "type": "bytes"
            },
            {
              "internalType": "bytes",
              "name": "permit",
              "type": "bytes"
            },
            {
              "internalType": "bytes",
              "name": "interaction",
              "type": "bytes"
            }
          ],
          "internalType": "struct OrderMixin.Order",
          "name": "order",
          "type": "tuple"
        }
      ],
      "name": "checkPredicate",
      "outputs": [
        {
          "internalType": "bool",
          "name": "",
          "type": "bool"
        }
      ],
      "stateMutability": "view",
      "type": "function"
    },
    {
      "inputs": [
        {
          "internalType": "contract AggregatorV3Interface",
          "name": "oracle1",
          "type": "address"
        },
        {
          "internalType": "contract AggregatorV3Interface",
          "name": "oracle2",
          "type": "address"
        },
        {
          "internalType": "uint256",
          "name": "spread",
          "type": "uint256"
        },
        {
          "internalType": "int256",
          "name": "decimalsScale",
          "type": "int256"
        },
        {
          "internalType": "uint256",
          "name": "amount",
          "type": "uint256"
        }
      ],
      "name": "doublePrice",
      "outputs": [
        {
          "internalType": "uint256",
          "name": "",
          "type": "uint256"
        }
      ],
      "stateMutability": "view",
      "type": "function"
    },
    {
      "inputs": [
        {
          "internalType": "uint256",
          "name": "value",
          "type": "uint256"
        },
        {
          "internalType": "address",
          "name": "target",
          "type": "address"
        },
        {
          "internalType": "bytes",
          "name": "data",
          "type": "bytes"
        }
      ],
      "name": "eq",
      "outputs": [
        {
          "internalType": "bool",
          "name": "",
          "type": "bool"
        }
      ],
      "stateMutability": "view",
      "type": "function"
    },
    {
      "inputs": [
        {
          "components": [
            {
              "internalType": "uint256",
              "name": "salt",
              "type": "uint256"
            },
            {
              "internalType": "address",
              "name": "makerAsset",
              "type": "address"
            },
            {
              "internalType": "address",
              "name": "takerAsset",
              "type": "address"
            },
            {
              "internalType": "address",
              "name": "maker",
              "type": "address"
            },
            {
              "internalType": "address",
              "name": "receiver",
              "type": "address"
            },
            {
              "internalType": "address",
              "name": "allowedSender",
              "type": "address"
            },
            {
              "internalType": "uint256",
              "name": "makingAmount",
              "type": "uint256"
            },
            {
              "internalType": "uint256",
              "name": "takingAmount",
              "type": "uint256"
            },
            {
              "internalType": "bytes",
              "name": "makerAssetData",
              "type": "bytes"
            },
            {
              "internalType": "bytes",
              "name": "takerAssetData",
              "type": "bytes"
            },
            {
              "internalType": "bytes",
              "name": "getMakerAmount",
              "type": "bytes"
            },
            {
              "internalType": "bytes",
              "name": "getTakerAmount",
              "type": "bytes"
            },
            {
              "internalType": "bytes",
              "name": "predicate",
              "type": "bytes"
            },
            {
              "internalType": "bytes",
              "name": "permit",
              "type": "bytes"
            },
            {
              "internalType": "bytes",
              "name": "interaction",
              "type": "bytes"
            }
          ],
          "internalType": "struct OrderMixin.Order",
          "name": "order",
          "type": "tuple"
        },
        {
          "internalType": "bytes",
          "name": "signature",
          "type": "bytes"
        },
        {
          "internalType": "uint256",
          "name": "makingAmount",
          "type": "uint256"
        },
        {
          "internalType": "uint256",
          "name": "takingAmount",
          "type": "uint256"
        },
        {
          "internalType": "uint256",
          "name": "thresholdAmount",
          "type": "uint256"
        }
      ],
      "name": "fillOrder",
      "outputs": [
        {
          "internalType": "uint256",
          "name": "",
          "type": "uint256"
        },
        {
          "internalType": "uint256",
          "name": "",
          "type": "uint256"
        }
      ],
      "stateMutability": "nonpayable",
      "type": "function"
    },
    {
      "inputs": [
        {
          "components": [
            {
              "internalType": "uint256",
              "name": "salt",
              "type": "uint256"
            },
            {
              "internalType": "address",
              "name": "makerAsset",
              "type": "address"
            },
            {
              "internalType": "address",
              "name": "takerAsset",
              "type": "address"
            },
            {
              "internalType": "address",
              "name": "maker",
              "type": "address"
            },
            {
              "internalType": "address",
              "name": "receiver",
              "type": "address"
            },
            {
              "internalType": "address",
              "name": "allowedSender",
              "type": "address"
            },
            {
              "internalType": "uint256",
              "name": "makingAmount",
              "type": "uint256"
            },
            {
              "internalType": "uint256",
              "name": "takingAmount",
              "type": "uint256"
            },
            {
              "internalType": "bytes",
              "name": "makerAssetData",
              "type": "bytes"
            },
            {
              "internalType": "bytes",
              "name": "takerAssetData",
              "type": "bytes"
            },
            {
              "internalType": "bytes",
              "name": "getMakerAmount",
              "type": "bytes"
            },
            {
              "internalType": "bytes",
              "name": "getTakerAmount",
              "type": "bytes"
            },
            {
              "internalType": "bytes",
              "name": "predicate",
              "type": "bytes"
            },
            {
              "internalType": "bytes",
              "name": "permit",
              "type": "bytes"
            },
            {
              "internalType": "bytes",
              "name": "interaction",
              "type": "bytes"
            }
          ],
          "internalType": "struct OrderMixin.Order",
          "name": "order",
          "type": "tuple"
        },
        {
          "internalType": "bytes",
          "name": "signature",
          "type": "bytes"
        },
        {
          "internalType": "uint256",
          "name": "makingAmount",
          "type": "uint256"
        },
        {
          "internalType": "uint256",
          "name": "takingAmount",
          "type": "uint256"
        },
        {
          "internalType": "uint256",
          "name": "thresholdAmount",
          "type": "uint256"
        },
        {
          "internalType": "address",
          "name": "target",
          "type": "address"
        }
      ],
      "name": "fillOrderTo",
      "outputs": [
        {
          "internalType": "uint256",
          "name": "",
          "type": "uint256"
        },
        {
          "internalType": "uint256",
          "name": "",
          "type": "uint256"
        }
      ],
      "stateMutability": "nonpayable",
      "type": "function"
    },
    {
      "inputs": [
        {
          "components": [
            {
              "internalType": "uint256",
              "name": "salt",
              "type": "uint256"
            },
            {
              "internalType": "address",
              "name": "makerAsset",
              "type": "address"
            },
            {
              "internalType": "address",
              "name": "takerAsset",
              "type": "address"
            },
            {
              "internalType": "address",
              "name": "maker",
              "type": "address"
            },
            {
              "internalType": "address",
              "name": "receiver",
              "type": "address"
            },
            {
              "internalType": "address",
              "name": "allowedSender",
              "type": "address"
            },
            {
              "internalType": "uint256",
              "name": "makingAmount",
              "type": "uint256"
            },
            {
              "internalType": "uint256",
              "name": "takingAmount",
              "type": "uint256"
            },
            {
              "internalType": "bytes",
              "name": "makerAssetData",
              "type": "bytes"
            },
            {
              "internalType": "bytes",
              "name": "takerAssetData",
              "type": "bytes"
            },
            {
              "internalType": "bytes",
              "name": "getMakerAmount",
              "type": "bytes"
            },
            {
              "internalType": "bytes",
              "name": "getTakerAmount",
              "type": "bytes"
            },
            {
              "internalType": "bytes",
              "name": "predicate",
              "type": "bytes"
            },
            {
              "internalType": "bytes",
              "name": "permit",
              "type": "bytes"
            },
            {
              "internalType": "bytes",
              "name": "interaction",
              "type": "bytes"
            }
          ],
          "internalType": "struct OrderMixin.Order",
          "name": "order",
          "type": "tuple"
        },
        {
          "internalType": "bytes",
          "name": "signature",
          "type": "bytes"
        },
        {
          "internalType": "uint256",
          "name": "makingAmount",
          "type": "uint256"
        },
        {
          "internalType": "uint256",
          "name": "takingAmount",
          "type": "uint256"
        },
        {
          "internalType": "uint256",
          "name": "thresholdAmount",
          "type": "uint256"
        },
        {
          "internalType": "address",
          "name": "target",
          "type": "address"
        },
        {
          "internalType": "bytes",
          "name": "permit",
          "type": "bytes"
        }
      ],
      "name": "fillOrderToWithPermit",
      "outputs": [
        {
          "internalType": "uint256",
          "name": "",
          "type": "uint256"
        },
        {
          "internalType": "uint256",
          "name": "",
          "type": "uint256"
        }
      ],
      "stateMutability": "nonpayable",
      "type": "function"
    },
    {
      "inputs": [
        {
          "internalType": "uint256",
          "name": "orderMakerAmount",
          "type": "uint256"
        },
        {
          "internalType": "uint256",
          "name": "orderTakerAmount",
          "type": "uint256"
        },
        {
          "internalType": "uint256",
          "name": "swapTakerAmount",
          "type": "uint256"
        }
      ],
      "name": "getMakerAmount",
      "outputs": [
        {
          "internalType": "uint256",
          "name": "",
          "type": "uint256"
        }
      ],
      "stateMutability": "pure",
      "type": "function"
    },
    {
      "inputs": [
        {
          "internalType": "uint256",
          "name": "orderMakerAmount",
          "type": "uint256"
        },
        {
          "internalType": "uint256",
          "name": "orderTakerAmount",
          "type": "uint256"
        },
        {
          "internalType": "uint256",
          "name": "swapMakerAmount",
          "type": "uint256"
        }
      ],
      "name": "getTakerAmount",
      "outputs": [
        {
          "internalType": "uint256",
          "name": "",
          "type": "uint256"
        }
      ],
      "stateMutability": "pure",
      "type": "function"
    },
    {
      "inputs": [
        {
          "internalType": "uint256",
          "name": "value",
          "type": "uint256"
        },
        {
          "internalType": "address",
          "name": "target",
          "type": "address"
        },
        {
          "internalType": "bytes",
          "name": "data",
          "type": "bytes"
        }
      ],
      "name": "gt",
      "outputs": [
        {
          "internalType": "bool",
          "name": "",
          "type": "bool"
        }
      ],
      "stateMutability": "view",
      "type": "function"
    },
    {
      "inputs": [
        {
          "components": [
            {
              "internalType": "uint256",
              "name": "salt",
              "type": "uint256"
            },
            {
              "internalType": "address",
              "name": "makerAsset",
              "type": "address"
            },
            {
              "internalType": "address",
              "name": "takerAsset",
              "type": "address"
            },
            {
              "internalType": "address",
              "name": "maker",
              "type": "address"
            },
            {
              "internalType": "address",
              "name": "receiver",
              "type": "address"
            },
            {
              "internalType": "address",
              "name": "allowedSender",
              "type": "address"
            },
            {
              "internalType": "uint256",
              "name": "makingAmount",
              "type": "uint256"
            },
            {
              "internalType": "uint256",
              "name": "takingAmount",
              "type": "uint256"
            },
            {
              "internalType": "bytes",
              "name": "makerAssetData",
              "type": "bytes"
            },
            {
              "internalType": "bytes",
              "name": "takerAssetData",
              "type": "bytes"
            },
            {
              "internalType": "bytes",
              "name": "getMakerAmount",
              "type": "bytes"
            },
            {
              "internalType": "bytes",
              "name": "getTakerAmount",
              "type": "bytes"
            },
            {
              "internalType": "bytes",
              "name": "predicate",
              "type": "bytes"
            },
            {
              "internalType": "bytes",
              "name": "permit",
              "type": "bytes"
            },
            {
              "internalType": "bytes",
              "name": "interaction",
              "type": "bytes"
            }
          ],
          "internalType": "struct OrderMixin.Order",
          "name": "order",
          "type": "tuple"
        }
      ],
      "name": "hashOrder",
      "outputs": [
        {
          "internalType": "bytes32",
          "name": "",
          "type": "bytes32"
        }
      ],
      "stateMutability": "view",
      "type": "function"
    },
    {
      "inputs": [],
      "name": "increaseNonce",
      "outputs": [],
      "stateMutability": "nonpayable",
      "type": "function"
    },
    {
      "inputs": [
        {
          "internalType": "uint256",
          "name": "value",
          "type": "uint256"
        },
        {
          "internalType": "address",
          "name": "target",
          "type": "address"
        },
        {
          "internalType": "bytes",
          "name": "data",
          "type": "bytes"
        }
      ],
      "name": "lt",
      "outputs": [
        {
          "internalType": "bool",
          "name": "",
          "type": "bool"
        }
      ],
      "stateMutability": "view",
      "type": "function"
    },
    {
      "inputs": [
        {
          "internalType": "address",
          "name": "",
          "type": "address"
        }
      ],
      "name": "nonce",
      "outputs": [
        {
          "internalType": "uint256",
          "name": "",
          "type": "uint256"
        }
      ],
      "stateMutability": "view",
      "type": "function"
    },
    {
      "inputs": [
        {
          "internalType": "address",
          "name": "makerAddress",
          "type": "address"
        },
        {
          "internalType": "uint256",
          "name": "makerNonce",
          "type": "uint256"
        }
      ],
      "name": "nonceEquals",
      "outputs": [
        {
          "internalType": "bool",
          "name": "",
          "type": "bool"
        }
      ],
      "stateMutability": "view",
      "type": "function"
    },
    {
      "inputs": [
        {
          "internalType": "address[]",
          "name": "targets",
          "type": "address[]"
        },
        {
          "internalType": "bytes[]",
          "name": "data",
          "type": "bytes[]"
        }
      ],
      "name": "or",
      "outputs": [
        {
          "internalType": "bool",
          "name": "",
          "type": "bool"
        }
      ],
      "stateMutability": "view",
      "type": "function"
    },
    {
      "inputs": [
        {
          "internalType": "bytes32",
          "name": "orderHash",
          "type": "bytes32"
        }
      ],
      "name": "remaining",
      "outputs": [
        {
          "internalType": "uint256",
          "name": "",
          "type": "uint256"
        }
      ],
      "stateMutability": "view",
      "type": "function"
    },
    {
      "inputs": [
        {
          "internalType": "bytes32",
          "name": "orderHash",
          "type": "bytes32"
        }
      ],
      "name": "remainingRaw",
      "outputs": [
        {
          "internalType": "uint256",
          "name": "",
          "type": "uint256"
        }
      ],
      "stateMutability": "view",
      "type": "function"
    },
    {
      "inputs": [
        {
          "internalType": "bytes32[]",
          "name": "orderHashes",
          "type": "bytes32[]"
        }
      ],
      "name": "remainingsRaw",
      "outputs": [
        {
          "internalType": "uint256[]",
          "name": "",
          "type": "uint256[]"
        }
      ],
      "stateMutability": "view",
      "type": "function"
    },
    {
      "inputs": [
        {
          "internalType": "address[]",
          "name": "targets",
          "type": "address[]"
        },
        {
          "internalType": "bytes[]",
          "name": "data",
          "type": "bytes[]"
        }
      ],
      "name": "simulateCalls",
      "outputs": [],
      "stateMutability": "nonpayable",
      "type": "function"
    },
    {
      "inputs": [
        {
          "internalType": "contract AggregatorV3Interface",
          "name": "oracle",
          "type": "address"
        },
        {
          "internalType": "uint256",
          "name": "inverseAndSpread",
          "type": "uint256"
        },
        {
          "internalType": "uint256",
          "name": "amount",
          "type": "uint256"
        }
      ],
      "name": "singlePrice",
      "outputs": [
        {
          "internalType": "uint256",
          "name": "",
          "type": "uint256"
        }
      ],
      "stateMutability": "view",
      "type": "function"
    },
    {
      "inputs": [
        {
          "internalType": "uint256",
          "name": "time",
          "type": "uint256"
        }
      ],
      "name": "timestampBelow",
      "outputs": [
        {
          "internalType": "bool",
          "name": "",
          "type": "bool"
        }
      ],
      "stateMutability": "view",
      "type": "function"
    }
  ],
  "transactionHash": "0x4888e4d9f42a093e46be5b3c97e67dddbe76244f80e67314186c73b3a56baef9",
  "args": [],
  "numDeployments": 1,
  "solcInputHash": "3e0d27e82df7337fa75d0451db131e62",
  "bytecode": "0x6101406040523480156200001257600080fd5b50604080518082018252601e81527f31696e63682050726f204c696d6974204f726465722050726f746f636f6c00006020808301918252835180850190945260018452603160f81b908401528151902060e08190527fc89efdaa54c0f20c7adf612882df0950f5a951637e0307cdcb4c672f298b8bc66101008190524660a0529192917f8b73c3c69bb8fe3d512ecc4cf759cc79239f7b179b0ffacaa9a75d522b39400f620001068184846040805160208101859052908101839052606081018290524660808201523060a082015260009060c0016040516020818303038152906040528051906020012090509392505050565b6080523060c05261012052506200011c92505050565b60805160a05160c05160e0516101005161012051614b386200016c60003960006123e00152600061242f0152600061240a015260006123630152600061238d015260006123b70152614b386000f3fe608060405234801561001057600080fd5b50600436106101b95760003560e01c8063871919d5116100f9578063bf15fcd811610097578063cf6fc6e311610071578063cf6fc6e3146103d2578063e61333011461040c578063f4a215c31461041f578063fa1cb9f21461043257600080fd5b8063bf15fcd8146103a4578063c05435f1146103b7578063c53a0292146103ca57600080fd5b8063a65a0e71116100d3578063a65a0e7114610358578063b244b4501461036b578063b2610fe31461037e578063bc1ed74c1461039157600080fd5b8063871919d514610312578063942461bb14610325578063961d5b1e1461034557600080fd5b80636073cc201161016657806370ae92d21161014057806370ae92d2146102aa57806372c244a8146102ca5780637e54f092146102df5780637f29a59d146102ff57600080fd5b80636073cc201461025c57806363592c2b14610284578063655d13cd1461029757600080fd5b8063331f9d1b11610197578063331f9d1b1461021a5780633644e5151461022d57806354dd5f741461023557600080fd5b8063057702e9146101be578063296637bf146101e657806332565d6114610207575b600080fd5b6101d16101cc366004613ccd565b610445565b60405190151581526020015b60405180910390f35b6101f96101f4366004613d26565b61053b565b6040519081526020016101dd565b6101d1610215366004613ccd565b610571565b6101f9610228366004613d52565b610660565b6101f96109a6565b6101f97f7b63e94209420c4f6a2a8ca90b36938c948908697db47a5dc7f8e692ead4991a81565b61026f61026a366004613f95565b6109b5565b604080519283526020830191909152016101dd565b6101d161029236600461405d565b421090565b61026f6102a5366004614076565b610a67565b6101f96102b83660046140f9565b60006020819052908152604090205481565b6102dd6102d8366004614116565b610a88565b005b6101f96102ed36600461405d565b60009081526001602052604090205490565b6102dd61030d36600461417e565b610af5565b6101d1610320366004613ccd565b610da8565b6103386103333660046141ea565b610e97565b6040516101dd9190614284565b6101d161035336600461417e565b610f50565b6101d16103663660046142c8565b61114c565b6102dd6103793660046142c8565b611210565b61026f61038c3660046142fd565b61136d565b6101f961039f36600461405d565b611bd0565b6101f96103b2366004614398565b611c6e565b6101f96103c53660046143e8565b611cf4565b6102dd611ed8565b6101d16103e036600461441d565b73ffffffffffffffffffffffffffffffffffffffff919091166000908152602081905260409020541490565b6101d161041a36600461417e565b611ee4565b6101f961042d366004613d26565b6120af565b6101f96104403660046142c8565b6120bc565b6000806104a8836040518060400160405280600681526020017f50483a20677400000000000000000000000000000000000000000000000000008152508673ffffffffffffffffffffffffffffffffffffffff166121b29092919063ffffffff16565b9050805160201461051a576040517f08c379a000000000000000000000000000000000000000000000000000000000815260206004820152601760248201527f50483a20696e76616c69642063616c6c20726573756c7400000000000000000060448201526064015b60405180910390fd5b848180602001905181019061052f9190614449565b119150505b9392505050565b60008360018161054b8686614491565b61055591906144ce565b61055f91906144e6565b61056991906144fd565b949350505050565b6000806105d4836040518060400160405280600681526020017f50483a20657100000000000000000000000000000000000000000000000000008152508673ffffffffffffffffffffffffffffffffffffffff166121b29092919063ffffffff16565b90508051602014610641576040517f08c379a000000000000000000000000000000000000000000000000000000000815260206004820152601760248201527f50483a20696e76616c69642063616c6c20726573756c740000000000000000006044820152606401610511565b84818060200190518101906106569190614449565b1495945050505050565b60008473ffffffffffffffffffffffffffffffffffffffff1663313ce5676040518163ffffffff1660e01b8152600401602060405180830381865afa1580156106ad573d6000803e3d6000fd5b505050506040513d60208110156106c357600080fd5b5051604080517f313ce567000000000000000000000000000000000000000000000000000000008152905160ff9092169173ffffffffffffffffffffffffffffffffffffffff89169163313ce5679160048083019260209291908290030181865afa158015610736573d6000803e3d6000fd5b505050506040513d602081101561074c57600080fd5b505160ff16146107bd57604080517f08c379a000000000000000000000000000000000000000000000000000000000815260206004820152601f60248201527f43433a206f7261636c6520646563696d616c7320646f6e2774206d6174636800604482015290519081900360640190fd5b60008673ffffffffffffffffffffffffffffffffffffffff1663feaf968c6040518163ffffffff1660e01b815260040160a060405180830381865afa15801561080a573d6000803e3d6000fd5b505050506040513d60a081101561082057600080fd5b5060200151604080517ffeaf968c000000000000000000000000000000000000000000000000000000008152905191925060009173ffffffffffffffffffffffffffffffffffffffff89169163feaf968c9160048083019260a09291908290030181865afa158015610896573d6000803e3d6000fd5b505050506040513d60a08110156108ac57600080fd5b50602001519050600085131561092257633b9aca006108ca826122d9565b6108d3876122d9565b6108de90600a614658565b6108e7856122d9565b6108f18a89614491565b6108fb9190614491565b6109059190614491565b61090f91906144fd565b61091991906144fd565b9250505061099d565b600085121561097c5761093c61093786614664565b6122d9565b61094790600a614658565b633b9aca00610955836122d9565b61095e856122d9565b6109688a89614491565b6109729190614491565b61090591906144fd565b633b9aca0061098a826122d9565b610993846122d9565b6108fb8988614491565b95945050505050565b60006109b0612349565b905090565b6000806014831015610a23576040517f08c379a000000000000000000000000000000000000000000000000000000000815260206004820152601a60248201527f4c4f503a207065726d6974206c656e67746820746f6f206c6f770000000000006044820152606401610511565b6000366000610a32878761247d565b925092509250610a438383836124a6565b610a528e8e8e8e8e8e8e61136d565b94509450505050995099975050505050505050565b600080610a798888888888883361136d565b91509150965096945050505050565b33600090815260208190526040812054610aa69060ff8416906144ce565b33600081815260208181526040918290208490558151848152915193945091927ffc69110dd11eb791755e4abd6b7d281bae236de95736d38a23782814be5e10db929181900390910190a25050565b828114610b5e576040517f08c379a000000000000000000000000000000000000000000000000000000000815260206004820152601860248201527f4c4f503a2061727261792073697a65206d69736d6174636800000000000000006044820152606401610511565b60008367ffffffffffffffff811115610b7957610b79613b97565b6040519080825280601f01601f191660200182016040528015610ba3576020820181803683370190505b50905060005b84811015610d3857600080878784818110610bc657610bc661469d565b9050602002016020810190610bdb91906140f9565b73ffffffffffffffffffffffffffffffffffffffff16868685818110610c0357610c0361469d565b9050602002810190610c1591906146cc565b604051610c23929190614731565b6000604051808303816000865af19150503d8060008114610c60576040519150601f19603f3d011682016040523d82523d6000602084013e610c65565b606091505b5091509150818015610c78575060008151115b15610c955780516020148015610c92575060208101516001145b91505b81610cc0577f3000000000000000000000000000000000000000000000000000000000000000610ce2565b7f31000000000000000000000000000000000000000000000000000000000000005b848481518110610cf457610cf461469d565b60200101907effffffffffffffffffffffffffffffffffffffffffffffffffffffffffffff1916908160001a90535050508080610d3090614741565b915050610ba9565b5080604051602001610d4a91906147a6565b604080517fffffffffffffffffffffffffffffffffffffffffffffffffffffffffffffffe0818403018152908290527f08c379a000000000000000000000000000000000000000000000000000000000825261051191600401614835565b600080610e0b836040518060400160405280600681526020017f50483a206c7400000000000000000000000000000000000000000000000000008152508673ffffffffffffffffffffffffffffffffffffffff166121b29092919063ffffffff16565b90508051602014610e78576040517f08c379a000000000000000000000000000000000000000000000000000000000815260206004820152601760248201527f50483a20696e76616c69642063616c6c20726573756c740000000000000000006044820152606401610511565b8481806020019051810190610e8d9190614449565b1095945050505050565b60606000825167ffffffffffffffff811115610eb557610eb5613b97565b604051908082528060200260200182016040528015610ede578160200160208202803683370190505b50905060005b8351811015610f495760016000858381518110610f0357610f0361469d565b6020026020010151815260200190815260200160002054828281518110610f2c57610f2c61469d565b602090810291909101015280610f4181614741565b915050610ee4565b5092915050565b6000838214610fbb576040517f08c379a000000000000000000000000000000000000000000000000000000000815260206004820152601d60248201527f50483a20696e7075742061727261792073697a65206d69736d617463680000006044820152606401610511565b60005b8481101561114057600061109d858584818110610fdd57610fdd61469d565b9050602002810190610fef91906146cc565b8080601f0160208091040260200160405190810160405280939291908181526020018383808284376000920191909152505060408051808201909152601881527f50483a2027616e64272073756263616c6c206661696c65640000000000000000602082015291508a9050898681811061106b5761106b61469d565b905060200201602081019061108091906140f9565b73ffffffffffffffffffffffffffffffffffffffff1691906121b2565b9050805160201461110a576040517f08c379a000000000000000000000000000000000000000000000000000000000815260206004820152601760248201527f50483a20696e76616c69642063616c6c20726573756c740000000000000000006044820152606401610511565b8080602001905181019061111e9190614848565b61112d57600092505050610569565b508061113881614741565b915050610fbe565b50600195945050505050565b61018081015160408051808201909152601a81527f4c4f503a207072656469636174652063616c6c206661696c6564000000000000602082015260009182916111969130916121b2565b90508051602014611203576040517f08c379a000000000000000000000000000000000000000000000000000000000815260206004820152601d60248201527f4c4f503a20696e76616c6964207072656469636174652072657475726e0000006044820152606401610511565b6020810151600114610534565b606081015173ffffffffffffffffffffffffffffffffffffffff163314611293576040517f08c379a000000000000000000000000000000000000000000000000000000000815260206004820152601260248201527f4c4f503a204163636573732064656e69656400000000000000000000000000006044820152606401610511565b600061129e826120bc565b60008181526001602081905260409091205491925081141561131c576040517f08c379a000000000000000000000000000000000000000000000000000000000815260206004820152601360248201527f4c4f503a20616c72656164792066696c6c6564000000000000000000000000006044820152606401610511565b604080518381526020810183905233917fcbfa7d191838ece7ba4783ca3a30afd316619b7f368094b57ee7ffde9a923db1910160405180910390a25060009081526001602081905260409091205550565b60008073ffffffffffffffffffffffffffffffffffffffff83166113ed576040517f08c379a000000000000000000000000000000000000000000000000000000000815260206004820152601d60248201527f4c4f503a207a65726f2074617267657420697320666f7262696464656e0000006044820152606401610511565b60006113f88a6120bc565b600081815260016020819052604090912054919250811415611476576040517f08c379a000000000000000000000000000000000000000000000000000000000815260206004820152601a60248201527f4c4f503a2072656d61696e696e6720616d6f756e7420697320300000000000006044820152606401610511565b60a08b015173ffffffffffffffffffffffffffffffffffffffff1615806114b6575060a08b015173ffffffffffffffffffffffffffffffffffffffff1633145b61151c576040517f08c379a000000000000000000000000000000000000000000000000000000000815260206004820152601260248201527f4c4f503a2070726976617465206f7264657200000000000000000000000000006044820152606401610511565b806116a9576115668b60600151838c8c8080601f0160208091040260200160405190810160405280939291908181526020018383808284376000920191909152506127f592505050565b6115cc576040517f08c379a000000000000000000000000000000000000000000000000000000000815260206004820152601260248201527f4c4f503a20626164207369676e617475726500000000000000000000000000006044820152606401610511565b8a60c00151905060148b6101a0015151106116a45760008061161d8d6101a0015160148101805191517fffffffffffffffffffffffffffffffffffffffffffffffffffffffffffffffec0181529091565b9150915061162b82826129e4565b600084815260016020526040902054156116a1576040517f08c379a000000000000000000000000000000000000000000000000000000000815260206004820152601860248201527f4c4f503a207265656e7472616e637920646574656374656400000000000000006044820152606401610511565b50505b6116cc565b7fffffffffffffffffffffffffffffffffffffffffffffffffffffffffffffffff015b6101808b01515115611747576116e18b61114c565b611747576040517f08c379a000000000000000000000000000000000000000000000000000000000815260206004820152601d60248201527f4c4f503a207072656469636174652072657475726e65642066616c73650000006044820152606401610511565b8615881514156117b3576040517f08c379a000000000000000000000000000000000000000000000000000000000815260206004820181905260248201527f4c4f503a206f6e6c79206f6e6520616d6f756e742073686f756c6420626520306044820152606401610511565b866118625787818111156117c5578198505b6117de8c61016001518d60c001518b8f60e00151612c6c565b97506117ea8988614491565b6117f4828a614491565b111561185c576040517f08c379a000000000000000000000000000000000000000000000000000000000815260206004820152601b60248201527f4c4f503a2074616b696e6720616d6f756e7420746f6f206869676800000000006044820152606401610511565b50611927565b60008790506118808c61014001518d60e001518a8f60c00151612c6c565b9850818911156118a9578198506118a68c61016001518d60c001518b8f60e00151612c6c565b97505b6118b38888614491565b6118bd828b614491565b1015611925576040517f08c379a000000000000000000000000000000000000000000000000000000000815260206004820152601a60248201527f4c4f503a206d616b696e6720616d6f756e7420746f6f206c6f770000000000006044820152606401610511565b505b6000881180156119375750600087115b61199d576040517f08c379a000000000000000000000000000000000000000000000000000000000815260206004820152601860248201527f4c4f503a2063616e27742073776170203020616d6f756e7400000000000000006044820152606401610511565b600082815260016020818152604092839020938b900391820190935581518481529283018190529133917fb9ed0243fdf00f0545c63a0af8850c090d86bb46682baec4bf3c496814fe4f02910160405180910390a25060408a015160808b0151611a9591907f23b872dd0000000000000000000000000000000000000000000000000000000090339073ffffffffffffffffffffffffffffffffffffffff1615611a4b578d60800151611a51565b8d606001515b6101208f0151604051611a8194939273ffffffffffffffffffffffffffffffffffffffff16918d9160200161486a565b604051602081830303815290604052612dda565b60148a6101c001515110611b6357600080611adf8c6101c0015160148101805191517fffffffffffffffffffffffffffffffffffffffffffffffffffffffffffffffec0181529091565b915091508173ffffffffffffffffffffffffffffffffffffffff1663cf21c775338e602001518f604001518d8d876040518763ffffffff1660e01b8152600401611b2e969594939291906148c7565b600060405180830381600087803b158015611b4857600080fd5b505af1158015611b5c573d6000803e3d6000fd5b5050505050505b611bc08a602001516323b872dd60e01b8c6060015173ffffffffffffffffffffffffffffffffffffffff168773ffffffffffffffffffffffffffffffffffffffff168b8f6101000151604051602001611a8195949392919061486a565b5094989397509295505050505050565b60008181526001602052604081205480611c46576040517f08c379a000000000000000000000000000000000000000000000000000000000815260206004820152601260248201527f4c4f503a20556e6b6e6f776e206f7264657200000000000000000000000000006044820152606401610511565b7fffffffffffffffffffffffffffffffffffffffffffffffffffffffffffffffff0192915050565b600080611cd1836040518060400160405280601781526020017f41433a2061726269747261727953746174696343616c6c0000000000000000008152508673ffffffffffffffffffffffffffffffffffffffff166121b29092919063ffffffff16565b9050808060200190516020811015611ce857600080fd5b50519150505b92915050565b6000808473ffffffffffffffffffffffffffffffffffffffff1663feaf968c6040518163ffffffff1660e01b815260040160a060405180830381865afa158015611d42573d6000803e3d6000fd5b505050506040513d60a0811015611d5857600080fd5b506020015190507f80000000000000000000000000000000000000000000000000000000000000008416158015907f7fffffffffffffffffffffffffffffffffffffffffffffffffffffffffffffff861690611e5c57633b9aca00611dbc846122d9565b8873ffffffffffffffffffffffffffffffffffffffff1663313ce5676040518163ffffffff1660e01b8152600401602060405180830381865afa158015611e07573d6000803e3d6000fd5b505050506040513d6020811015611e1d57600080fd5b5051611e2a90600a614914565b611e348489614491565b611e3e9190614491565b611e4891906144fd565b611e5291906144fd565b9350505050610534565b633b9aca008773ffffffffffffffffffffffffffffffffffffffff1663313ce5676040518163ffffffff1660e01b8152600401602060405180830381865afa158015611eac573d6000803e3d6000fd5b505050506040513d6020811015611ec257600080fd5b5051611ecf90600a614914565b611e2a856122d9565b611ee26001610a88565b565b6000838214611f4f576040517f08c379a000000000000000000000000000000000000000000000000000000000815260206004820152601d60248201527f50483a20696e7075742061727261792073697a65206d69736d617463680000006044820152606401610511565b60005b848110156120a3576000611fff858584818110611f7157611f7161469d565b9050602002810190611f8391906146cc565b8080601f0160208091040260200160405190810160405280939291908181526020018383808284376000920191909152505060408051808201909152601781527f50483a20276f72272073756263616c6c206661696c6564000000000000000000602082015291508a9050898681811061106b5761106b61469d565b9050805160201461206c576040517f08c379a000000000000000000000000000000000000000000000000000000000815260206004820152601760248201527f50483a20696e76616c69642063616c6c20726573756c740000000000000000006044820152606401610511565b808060200190518101906120809190614848565b1561209057600192505050610569565b508061209b81614741565b915050611f52565b50600095945050505050565b60008261055f8584614491565b6040805161010081018252600080825260208201819052918101829052606081018290526080810182905260a0810182905260c0810182905260e081018290528290506105347f7b63e94209420c4f6a2a8ca90b36938c948908697db47a5dc7f8e692ead4991a8285610100015180519060200120866101200151805190602001208761014001518051906020012088610160015180519060200120896101800151805190602001208a6101a00151805190602001208b6101c001518051906020012060405160200161219799989796959493929190614923565b60405160208183030381529060405280519060200120612ec1565b606073ffffffffffffffffffffffffffffffffffffffff84163b612257576040517f08c379a0000000000000000000000000000000000000000000000000000000008152602060048201526024808201527f416464726573733a207374617469632063616c6c20746f206e6f6e2d636f6e7460448201527f72616374000000000000000000000000000000000000000000000000000000006064820152608401610511565b6000808573ffffffffffffffffffffffffffffffffffffffff168560405161227f9190614a10565b600060405180830381855afa9150503d80600081146122ba576040519150601f19603f3d011682016040523d82523d6000602084013e6122bf565b606091505b50915091506122cf828286612f2a565b9695505050505050565b600080821215612345576040517f08c379a000000000000000000000000000000000000000000000000000000000815260206004820181905260248201527f53616665436173743a2076616c7565206d75737420626520706f7369746976656044820152606401610511565b5090565b60003073ffffffffffffffffffffffffffffffffffffffff7f0000000000000000000000000000000000000000000000000000000000000000161480156123af57507f000000000000000000000000000000000000000000000000000000000000000046145b156123d957507f000000000000000000000000000000000000000000000000000000000000000090565b50604080517f00000000000000000000000000000000000000000000000000000000000000006020808301919091527f0000000000000000000000000000000000000000000000000000000000000000828401527f000000000000000000000000000000000000000000000000000000000000000060608301524660808301523060a0808401919091528351808403909101815260c0909201909252805191012090565b60003681843560601c8282612495876014818b614a2c565b939650945091925050509250925092565b80156127f0576000606060e08314156125e3576040517fd505accf000000000000000000000000000000000000000000000000000000006020820181815273ffffffffffffffffffffffffffffffffffffffff881692879187916024018383808284378083019250505093505050506040516020818303038152906040526040518082805190602001908083835b6020831061257157805182527fffffffffffffffffffffffffffffffffffffffffffffffffffffffffffffffe09092019160209182019101612534565b6001836020036101000a0380198251168184511680821785525050505050509050019150506000604051808303816000865af19150503d80600081146125d3576040519150601f19603f3d011682016040523d82523d6000602084013e6125d8565b606091505b50909250905061270b565b6101008314156126a4576040517f8fcbaf0c000000000000000000000000000000000000000000000000000000006020820181815273ffffffffffffffffffffffffffffffffffffffff881692879187916024018383808284378083019250505093505050506040516020818303038152906040526040518082805190602001908083836020831061257157805182527fffffffffffffffffffffffffffffffffffffffffffffffffffffffffffffffe09092019160209182019101612534565b604080517f08c379a000000000000000000000000000000000000000000000000000000000815260206004820152601360248201527f57726f6e67207065726d6974206c656e67746800000000000000000000000000604482015290519081900360640190fd5b816127ed5761274f816040518060400160405280600f81526020017f5065726d6974206661696c65643a200000000000000000000000000000000000815250612f7d565b6040517f08c379a00000000000000000000000000000000000000000000000000000000081526004018080602001828103825283818151815260200191508051906020019080838360005b838110156127b257818101518382015260200161279a565b50505050905090810190601f1680156127df5780820380516001836020036101000a031916815260200191505b509250505060405180910390fd5b50505b505050565b60008060006128048585613518565b9092509050600081600481111561281d5761281d614a56565b14801561285557508573ffffffffffffffffffffffffffffffffffffffff168273ffffffffffffffffffffffffffffffffffffffff16145b1561286557600192505050610534565b6000808773ffffffffffffffffffffffffffffffffffffffff16631626ba7e60e01b888860405160240161289a929190614a85565b604080517fffffffffffffffffffffffffffffffffffffffffffffffffffffffffffffffe08184030181529181526020820180517bffffffffffffffffffffffffffffffffffffffffffffffffffffffff167fffffffff000000000000000000000000000000000000000000000000000000009094169390931790925290516129239190614a10565b600060405180830381855afa9150503d806000811461295e576040519150601f19603f3d011682016040523d82523d6000602084013e612963565b606091505b5091509150818015612976575080516020145b80156129d8575080517f1626ba7e00000000000000000000000000000000000000000000000000000000906129b49083016020908101908401614a9e565b7fffffffff0000000000000000000000000000000000000000000000000000000016145b98975050505050505050565b805115612c685760006060825160e01415612b82578373ffffffffffffffffffffffffffffffffffffffff1663d505accf60e01b8460405160200180837bffffffffffffffffffffffffffffffffffffffffffffffffffffffff1916815260040182805190602001908083835b60208310612a8e57805182527fffffffffffffffffffffffffffffffffffffffffffffffffffffffffffffffe09092019160209182019101612a51565b6001836020036101000a038019825116818451168082178552505050505050905001925050506040516020818303038152906040526040518082805190602001908083835b60208310612b1057805182527fffffffffffffffffffffffffffffffffffffffffffffffffffffffffffffffe09092019160209182019101612ad3565b6001836020036101000a0380198251168184511680821785525050505050509050019150506000604051808303816000865af19150503d8060008114612b72576040519150601f19603f3d011682016040523d82523d6000602084013e612b77565b606091505b509092509050612c21565b825161010014156126a4578373ffffffffffffffffffffffffffffffffffffffff16638fcbaf0c60e01b8460405160200180837bffffffffffffffffffffffffffffffffffffffffffffffffffffffff19168152600401828051906020019080838360208310612a8e57805182527fffffffffffffffffffffffffffffffffffffffffffffffffffffffffffffffe09092019160209182019101612a51565b81612c655761274f816040518060400160405280600f81526020017f5065726d6974206661696c65643a200000000000000000000000000000000000815250612f7d565b50505b5050565b6000845160001415612ce857838314612ce1576040517f08c379a000000000000000000000000000000000000000000000000000000000815260206004820152601160248201527f4c4f503a2077726f6e6720616d6f756e740000000000000000000000000000006044820152606401610511565b5080610569565b6000612d628685604051602001612d00929190614ae0565b604080517fffffffffffffffffffffffffffffffffffffffffffffffffffffffffffffffe0818403018152828201909152601a82527f4c4f503a20676574416d6f756e742063616c6c206661696c6564000000000000602083015230916121b2565b90508051602014612dcf576040517f08c379a000000000000000000000000000000000000000000000000000000000815260206004820152601d60248201527f4c4f503a20696e76616c696420676574416d6f756e742072657475726e0000006044820152606401610511565b602001519050610569565b6000612e3c826040518060400160405280601681526020017f4c4f503a2061737365742e63616c6c206661696c6564000000000000000000008152508573ffffffffffffffffffffffffffffffffffffffff166135889092919063ffffffff16565b8051909150156127f05780516020148015612e5b575060208101516001145b6127f0576040517f08c379a000000000000000000000000000000000000000000000000000000000815260206004820152601a60248201527f4c4f503a2061737365742e63616c6c2062616420726573756c740000000000006044820152606401610511565b6000611cee612ece612349565b836040517f19010000000000000000000000000000000000000000000000000000000000006020820152602281018390526042810182905260009060620160405160208183030381529060405280519060200120905092915050565b60608315612f39575081610534565b825115612f495782518084602001fd5b816040517f08c379a00000000000000000000000000000000000000000000000000000000081526004016105119190614835565b606060048351106133ac5760208301517fffffffff0000000000000000000000000000000000000000000000000000000081167f08c379a000000000000000000000000000000000000000000000000000000000148015612fe057506044845110155b156131e1576024848101518086018201805191929091906130029084906144ce565b61300c91906144ce565b8651101561307b57604080517f08c379a000000000000000000000000000000000000000000000000000000000815260206004820152601560248201527f496e76616c69642072657665727420726561736f6e0000000000000000000000604482015290519081900360640190fd5b84816040516020018083805190602001908083835b602083106130cd57805182527fffffffffffffffffffffffffffffffffffffffffffffffffffffffffffffffe09092019160209182019101613090565b51815160209384036101000a7fffffffffffffffffffffffffffffffffffffffffffffffffffffffffffffffff01801990921691161790527f4572726f72280000000000000000000000000000000000000000000000000000919093019081528451600690910192850191508083835b6020831061317a57805182527fffffffffffffffffffffffffffffffffffffffffffffffffffffffffffffffe0909201916020918201910161313d565b6001836020036101000a038019825116818451168082178552505050505050905001807f2900000000000000000000000000000000000000000000000000000000000000815250600101925050506040516020818303038152906040529350505050611cee565b7fffffffff0000000000000000000000000000000000000000000000000000000081167f4e487b7100000000000000000000000000000000000000000000000000000000148015613233575083516024145b156133aa5760248401518361324782613597565b6040516020018083805190602001908083835b6020831061329757805182527fffffffffffffffffffffffffffffffffffffffffffffffffffffffffffffffe0909201916020918201910161325a565b51815160209384036101000a7fffffffffffffffffffffffffffffffffffffffffffffffffffffffffffffffff01801990921691161790527f50616e6963280000000000000000000000000000000000000000000000000000919093019081528451600690910192850191508083835b6020831061334457805182527fffffffffffffffffffffffffffffffffffffffffffffffffffffffffffffffe09092019160209182019101613307565b6001836020036101000a038019825116818451168082178552505050505050905001807f29000000000000000000000000000000000000000000000000000000000000008152506001019250505060405160208183030381529060405292505050611cee565b505b816133b6846135bd565b6040516020018083805190602001908083835b6020831061340657805182527fffffffffffffffffffffffffffffffffffffffffffffffffffffffffffffffe090920191602091820191016133c9565b51815160209384036101000a7fffffffffffffffffffffffffffffffffffffffffffffffffffffffffffffffff01801990921691161790527f556e6b6e6f776e28000000000000000000000000000000000000000000000000919093019081528451600890910192850191508083835b602083106134b357805182527fffffffffffffffffffffffffffffffffffffffffffffffffffffffffffffffe09092019160209182019101613476565b6001836020036101000a038019825116818451168082178552505050505050905001807f290000000000000000000000000000000000000000000000000000000000000081525060010192505050604051602081830303815290604052905092915050565b60008082516041141561354f5760208301516040840151606085015160001a61354387828585613862565b94509450505050613581565b825160401415613579576020830151604084015161356e86838361397a565b935093505050613581565b506000905060025b9250929050565b606061056984846000856139cc565b6060611cee82604051602001808281526020019150506040516020818303038152906040525b80516060907f3031323334353637383961626364656600000000000000000000000000000000906000906135f2906002614491565b6135fd9060026144ce565b67ffffffffffffffff81111561361557613615613b97565b6040519080825280601f01601f19166020018201604052801561363f576020820181803683370190505b5090507f3000000000000000000000000000000000000000000000000000000000000000816000815181106136765761367661469d565b60200101907effffffffffffffffffffffffffffffffffffffffffffffffffffffffffffff1916908160001a9053507f7800000000000000000000000000000000000000000000000000000000000000816001815181106136d9576136d961469d565b60200101907effffffffffffffffffffffffffffffffffffffffffffffffffffffffffffff1916908160001a90535060005b845181101561385a578260048683815181106137295761372961469d565b01602001517fff0000000000000000000000000000000000000000000000000000000000000016901c60f81c601081106137655761376561469d565b1a60f81b82613775836002614491565b6137809060026144ce565b815181106137905761379061469d565b60200101907effffffffffffffffffffffffffffffffffffffffffffffffffffffffffffff1916908160001a905350828582815181106137d2576137d261469d565b60209101015160f81c600f16601081106137ee576137ee61469d565b1a60f81b826137fe836002614491565b6138099060036144ce565b815181106138195761381961469d565b60200101907effffffffffffffffffffffffffffffffffffffffffffffffffffffffffffff1916908160001a9053508061385281614741565b91505061370b565b509392505050565b6000807f7fffffffffffffffffffffffffffffff5d576e7357a4501ddfe92f46681b20a08311156138995750600090506003613971565b8460ff16601b141580156138b157508460ff16601c14155b156138c25750600090506004613971565b6040805160008082526020820180845289905260ff881692820192909252606081018690526080810185905260019060a0016020604051602081039080840390855afa158015613916573d6000803e3d6000fd5b50506040517fffffffffffffffffffffffffffffffffffffffffffffffffffffffffffffffe0015191505073ffffffffffffffffffffffffffffffffffffffff811661396a57600060019250925050613971565b9150600090505b94509492505050565b6000807f7fffffffffffffffffffffffffffffffffffffffffffffffffffffffffffffff8316816139b060ff86901c601b6144ce565b90506139be87828885613862565b935093505050935093915050565b606082471015613a5e576040517f08c379a000000000000000000000000000000000000000000000000000000000815260206004820152602660248201527f416464726573733a20696e73756666696369656e742062616c616e636520666f60448201527f722063616c6c00000000000000000000000000000000000000000000000000006064820152608401610511565b73ffffffffffffffffffffffffffffffffffffffff85163b613adc576040517f08c379a000000000000000000000000000000000000000000000000000000000815260206004820152601d60248201527f416464726573733a2063616c6c20746f206e6f6e2d636f6e74726163740000006044820152606401610511565b6000808673ffffffffffffffffffffffffffffffffffffffff168587604051613b059190614a10565b60006040518083038185875af1925050503d8060008114613b42576040519150601f19603f3d011682016040523d82523d6000602084013e613b47565b606091505b5091509150613b57828286612f2a565b979650505050505050565b73ffffffffffffffffffffffffffffffffffffffff81168114613b8457600080fd5b50565b8035613b9281613b62565b919050565b7f4e487b7100000000000000000000000000000000000000000000000000000000600052604160045260246000fd5b6040516101e0810167ffffffffffffffff81118282101715613bea57613bea613b97565b60405290565b604051601f82017fffffffffffffffffffffffffffffffffffffffffffffffffffffffffffffffe016810167ffffffffffffffff81118282101715613c3757613c37613b97565b604052919050565b600082601f830112613c5057600080fd5b813567ffffffffffffffff811115613c6a57613c6a613b97565b613c9b60207fffffffffffffffffffffffffffffffffffffffffffffffffffffffffffffffe0601f84011601613bf0565b818152846020838601011115613cb057600080fd5b816020850160208301376000918101602001919091529392505050565b600080600060608486031215613ce257600080fd5b833592506020840135613cf481613b62565b9150604084013567ffffffffffffffff811115613d1057600080fd5b613d1c86828701613c3f565b9150509250925092565b600080600060608486031215613d3b57600080fd5b505081359360208301359350604090920135919050565b600080600080600060a08688031215613d6a57600080fd5b8535613d7581613b62565b94506020860135613d8581613b62565b94979496505050506040830135926060810135926080909101359150565b60006101e08284031215613db657600080fd5b613dbe613bc6565b905081358152613dd060208301613b87565b6020820152613de160408301613b87565b6040820152613df260608301613b87565b6060820152613e0360808301613b87565b6080820152613e1460a08301613b87565b60a082015260c082013560c082015260e082013560e08201526101008083013567ffffffffffffffff80821115613e4a57600080fd5b613e5686838701613c3f565b83850152610120925082850135915080821115613e7257600080fd5b613e7e86838701613c3f565b83850152610140925082850135915080821115613e9a57600080fd5b613ea686838701613c3f565b83850152610160925082850135915080821115613ec257600080fd5b613ece86838701613c3f565b83850152610180925082850135915080821115613eea57600080fd5b613ef686838701613c3f565b838501526101a0925082850135915080821115613f1257600080fd5b613f1e86838701613c3f565b838501526101c0925082850135915080821115613f3a57600080fd5b50613f4785828601613c3f565b82840152505092915050565b60008083601f840112613f6557600080fd5b50813567ffffffffffffffff811115613f7d57600080fd5b60208301915083602082850101111561358157600080fd5b600080600080600080600080600060e08a8c031215613fb357600080fd5b893567ffffffffffffffff80821115613fcb57600080fd5b613fd78d838e01613da3565b9a5060208c0135915080821115613fed57600080fd5b613ff98d838e01613f53565b909a50985060408c0135975060608c0135965060808c0135955060a08c0135915061402382613b62565b90935060c08b0135908082111561403957600080fd5b506140468c828d01613f53565b915080935050809150509295985092959850929598565b60006020828403121561406f57600080fd5b5035919050565b60008060008060008060a0878903121561408f57600080fd5b863567ffffffffffffffff808211156140a757600080fd5b6140b38a838b01613da3565b975060208901359150808211156140c957600080fd5b506140d689828a01613f53565b979a90995096976040810135976060820135975060809091013595509350505050565b60006020828403121561410b57600080fd5b813561053481613b62565b60006020828403121561412857600080fd5b813560ff8116811461053457600080fd5b60008083601f84011261414b57600080fd5b50813567ffffffffffffffff81111561416357600080fd5b6020830191508360208260051b850101111561358157600080fd5b6000806000806040858703121561419457600080fd5b843567ffffffffffffffff808211156141ac57600080fd5b6141b888838901614139565b909650945060208701359150808211156141d157600080fd5b506141de87828801614139565b95989497509550505050565b600060208083850312156141fd57600080fd5b823567ffffffffffffffff8082111561421557600080fd5b818501915085601f83011261422957600080fd5b81358181111561423b5761423b613b97565b8060051b915061424c848301613bf0565b818152918301840191848101908884111561426657600080fd5b938501935b838510156129d85784358252938501939085019061426b565b6020808252825182820181905260009190848201906040850190845b818110156142bc578351835292840192918401916001016142a0565b50909695505050505050565b6000602082840312156142da57600080fd5b813567ffffffffffffffff8111156142f157600080fd5b61056984828501613da3565b600080600080600080600060c0888a03121561431857600080fd5b873567ffffffffffffffff8082111561433057600080fd5b61433c8b838c01613da3565b985060208a013591508082111561435257600080fd5b5061435f8a828b01613f53565b90975095505060408801359350606088013592506080880135915060a088013561438881613b62565b8091505092959891949750929550565b600080604083850312156143ab57600080fd5b82356143b681613b62565b9150602083013567ffffffffffffffff8111156143d257600080fd5b6143de85828601613c3f565b9150509250929050565b6000806000606084860312156143fd57600080fd5b833561440881613b62565b95602085013595506040909401359392505050565b6000806040838503121561443057600080fd5b823561443b81613b62565b946020939093013593505050565b60006020828403121561445b57600080fd5b5051919050565b7f4e487b7100000000000000000000000000000000000000000000000000000000600052601160045260246000fd5b6000817fffffffffffffffffffffffffffffffffffffffffffffffffffffffffffffffff04831182151516156144c9576144c9614462565b500290565b600082198211156144e1576144e1614462565b500190565b6000828210156144f8576144f8614462565b500390565b600082614533577f4e487b7100000000000000000000000000000000000000000000000000000000600052601260045260246000fd5b500490565b600181815b8085111561459157817fffffffffffffffffffffffffffffffffffffffffffffffffffffffffffffffff0482111561457757614577614462565b8085161561458457918102915b93841c939080029061453d565b509250929050565b6000826145a857506001611cee565b816145b557506000611cee565b81600181146145cb57600281146145d5576145f1565b6001915050611cee565b60ff8411156145e6576145e6614462565b50506001821b611cee565b5060208310610133831016604e8410600b8410161715614614575081810a611cee565b61461e8383614538565b807fffffffffffffffffffffffffffffffffffffffffffffffffffffffffffffffff0482111561465057614650614462565b029392505050565b60006105348383614599565b60007f800000000000000000000000000000000000000000000000000000000000000082141561469657614696614462565b5060000390565b7f4e487b7100000000000000000000000000000000000000000000000000000000600052603260045260246000fd5b60008083357fffffffffffffffffffffffffffffffffffffffffffffffffffffffffffffffe184360301811261470157600080fd5b83018035915067ffffffffffffffff82111561471c57600080fd5b60200191503681900382131561358157600080fd5b8183823760009101908152919050565b60007fffffffffffffffffffffffffffffffffffffffffffffffffffffffffffffffff82141561477357614773614462565b5060010190565b60005b8381101561479557818101518382015260200161477d565b83811115612c655750506000910152565b7f43414c4c5f524553554c54535f000000000000000000000000000000000000008152600082516147de81600d85016020870161477a565b91909101600d0192915050565b6000815180845261480381602086016020860161477a565b601f017fffffffffffffffffffffffffffffffffffffffffffffffffffffffffffffffe0169290920160200192915050565b60208152600061053460208301846147eb565b60006020828403121561485a57600080fd5b8151801515811461053457600080fd5b7fffffffff0000000000000000000000000000000000000000000000000000000086168152846004820152836024820152826044820152600082516148b681606485016020870161477a565b919091016064019695505050505050565b600073ffffffffffffffffffffffffffffffffffffffff8089168352808816602084015280871660408401525084606083015283608083015260c060a08301526129d860c08301846147eb565b600061053460ff841683614599565b6000610200820190508a82528951602083015260208a015173ffffffffffffffffffffffffffffffffffffffff80821660408501528060408d01511660608501528060608d0151166080850152505060808a015161499960a084018273ffffffffffffffffffffffffffffffffffffffff169052565b5060a08a015173ffffffffffffffffffffffffffffffffffffffff811660c08401525060c08a015160e083015260e08a015161010083015288610120830152876101408301528661016083015285610180830152846101a0830152836101c0830152826101e08301529a9950505050505050505050565b60008251614a2281846020870161477a565b9190910192915050565b60008085851115614a3c57600080fd5b83861115614a4957600080fd5b5050820193919092039150565b7f4e487b7100000000000000000000000000000000000000000000000000000000600052602160045260246000fd5b82815260406020820152600061056960408301846147eb565b600060208284031215614ab057600080fd5b81517fffffffff000000000000000000000000000000000000000000000000000000008116811461053457600080fd5b60008351614af281846020880161477a565b919091019182525060200191905056fea2646970667358221220824bf1d0167cbeb3ef99b94ce35cb88cf1348c50dba160d0cbba9cdbc4d424d764736f6c634300080b0033",
  "devdoc": {
    "kind": "dev",
    "methods": {
      "and(address[],bytes[])": {
        "returns": {
          "_0": "Result True if calls to all targets returned True. Otherwise, false"
        }
      },
      "arbitraryStaticCall(address,bytes)": {
        "returns": {
          "_0": "Result Bytes transmuted to uint256"
        }
      },
      "doublePrice(address,address,uint256,int256,uint256)": {
        "returns": {
          "_0": "Result Token A relative price times amount"
        }
      },
      "eq(uint256,address,bytes)": {
        "params": {
          "value": "Value to test"
        },
        "returns": {
          "_0": "Result True if call to target returns the same value as `value`. Otherwise, false"
        }
      },
      "fillOrder((uint256,address,address,address,address,address,uint256,uint256,bytes,bytes,bytes,bytes,bytes,bytes,bytes),bytes,uint256,uint256,uint256)": {
        "params": {
          "makingAmount": "Making amount",
          "order": "Order quote to fill",
          "signature": "Signature to confirm quote ownership",
          "takingAmount": "Taking amount",
          "thresholdAmount": "Specifies maximum allowed takingAmount when takingAmount is zero, otherwise specifies minimum allowed makingAmount"
        }
      },
      "fillOrderTo((uint256,address,address,address,address,address,uint256,uint256,bytes,bytes,bytes,bytes,bytes,bytes,bytes),bytes,uint256,uint256,uint256,address)": {
        "params": {
          "makingAmount": "Making amount",
          "order": "Order quote to fill",
          "signature": "Signature to confirm quote ownership",
          "takingAmount": "Taking amount",
          "target": "Address that will receive swap funds",
          "thresholdAmount": "Specifies maximum allowed takingAmount when takingAmount is zero, otherwise specifies minimum allowed makingAmount"
        }
      },
      "fillOrderToWithPermit((uint256,address,address,address,address,address,uint256,uint256,bytes,bytes,bytes,bytes,bytes,bytes,bytes),bytes,uint256,uint256,uint256,address,bytes)": {
        "details": "See tests for examples",
        "params": {
          "makingAmount": "Making amount",
          "order": "Order quote to fill",
          "permit": "Should consist of abiencoded token address and encoded `IERC20Permit.permit` call.",
          "signature": "Signature to confirm quote ownership",
          "takingAmount": "Taking amount",
          "target": "Address that will receive swap funds",
          "thresholdAmount": "Specifies maximum allowed takingAmount when takingAmount is zero, otherwise specifies minimum allowed makingAmount"
        }
      },
      "getMakerAmount(uint256,uint256,uint256)": {
        "returns": {
          "_0": "Result Floored maker amount"
        }
      },
      "getTakerAmount(uint256,uint256,uint256)": {
        "returns": {
          "_0": "Result Ceiled taker amount"
        }
      },
      "gt(uint256,address,bytes)": {
        "params": {
          "value": "Value to test"
        },
        "returns": {
          "_0": "Result True if call to target returns value which is bigger than `value`. Otherwise, false"
        }
      },
      "lt(uint256,address,bytes)": {
        "params": {
          "value": "Value to test"
        },
        "returns": {
          "_0": "Result True if call to target returns value which is lower than `value`. Otherwise, false"
        }
      },
      "nonceEquals(address,uint256)": {
        "returns": {
          "_0": "Result True if `makerAddress` has specified nonce. Otherwise, false"
        }
      },
      "or(address[],bytes[])": {
        "returns": {
          "_0": "Result True if call to any target returned True. Otherwise, false"
        }
      },
      "remainingRaw(bytes32)": {
        "returns": {
          "_0": "Result Unfilled amount of order plus one if order exists. Otherwise 0"
        }
      },
      "simulateCalls(address[],bytes[])": {
        "params": {
          "data": "Array of data that will be passed to each call",
          "targets": "Array of addresses that will be called"
        }
      },
      "singlePrice(address,uint256,uint256)": {
        "params": {
          "inverseAndSpread": "concatenated inverse flag and spread. Lowest 254 bits specify spread amount. Spread is scaled by 1e9, i.e. 101% = 1.01e9, 99% = 0.99e9. Highest bit is set when oracle price should be inverted, e.g. for DAI-ETH oracle, inverse=false means that we request DAI price in ETH and inverse=true means that we request ETH price in DAI"
        },
        "returns": {
          "_0": "Amount * spread * oracle price"
        }
      },
      "timestampBelow(uint256)": {
        "returns": {
          "_0": "Result True if current block timestamp is lower than `time`. Otherwise, false"
        }
      }
    },
    "title": "1inch Pro Limit Order Protocol",
    "version": 1
  },
  "userdoc": {
    "events": {
      "OrderCanceled(address,bytes32,uint256)": {
        "notice": "Emitted when order gets cancelled"
      },
      "OrderFilled(address,bytes32,uint256)": {
        "notice": "Emitted every time order gets filled, including partial fills"
      }
    },
    "kind": "user",
    "methods": {
      "advanceNonce(uint8)": {
        "notice": "Advances nonce by specified amount"
      },
      "and(address[],bytes[])": {
        "notice": "Calls every target with corresponding data"
      },
      "arbitraryStaticCall(address,bytes)": {
        "notice": "Performs an arbitrary call to target with data"
      },
      "cancelOrder((uint256,address,address,address,address,address,uint256,uint256,bytes,bytes,bytes,bytes,bytes,bytes,bytes))": {
        "notice": "Cancels order by setting remaining amount to zero"
      },
      "checkPredicate((uint256,address,address,address,address,address,uint256,uint256,bytes,bytes,bytes,bytes,bytes,bytes,bytes))": {
        "notice": "Checks order predicate"
      },
      "doublePrice(address,address,uint256,int256,uint256)": {
        "notice": "Calculates price of token A relative to token B. Note that order is important"
      },
      "eq(uint256,address,bytes)": {
        "notice": "Calls target with specified data and tests if it's equal to the value"
      },
      "fillOrder((uint256,address,address,address,address,address,uint256,uint256,bytes,bytes,bytes,bytes,bytes,bytes,bytes),bytes,uint256,uint256,uint256)": {
        "notice": "Fills an order. If one doesn't exist (first fill) it will be created using order.makerAssetData"
      },
      "fillOrderTo((uint256,address,address,address,address,address,uint256,uint256,bytes,bytes,bytes,bytes,bytes,bytes,bytes),bytes,uint256,uint256,uint256,address)": {
        "notice": "Same as `fillOrder` but allows to specify funds destination instead of `msg.sender`"
      },
      "fillOrderToWithPermit((uint256,address,address,address,address,address,uint256,uint256,bytes,bytes,bytes,bytes,bytes,bytes,bytes),bytes,uint256,uint256,uint256,address,bytes)": {
        "notice": "Same as `fillOrder` but calls permit first, allowing to approve token spending and make a swap in one transaction. Also allows to specify funds destination instead of `msg.sender`"
      },
      "getMakerAmount(uint256,uint256,uint256)": {
        "notice": "Calculates maker amount"
      },
      "getTakerAmount(uint256,uint256,uint256)": {
        "notice": "Calculates taker amount"
      },
      "gt(uint256,address,bytes)": {
        "notice": "Calls target with specified data and tests if it's bigger than value"
      },
      "increaseNonce()": {
        "notice": "Advances nonce by one"
      },
      "lt(uint256,address,bytes)": {
        "notice": "Calls target with specified data and tests if it's lower than value"
      },
      "nonceEquals(address,uint256)": {
        "notice": "Checks if `makerAddress` has specified `makerNonce`"
      },
      "or(address[],bytes[])": {
        "notice": "Calls every target with corresponding data"
      },
      "remaining(bytes32)": {
        "notice": "Returns unfilled amount for order. Throws if order does not exist"
      },
      "remainingRaw(bytes32)": {
        "notice": "Returns unfilled amount for order"
      },
      "remainingsRaw(bytes32[])": {
        "notice": "Same as `remainingRaw` but for multiple orders"
      },
      "simulateCalls(address[],bytes[])": {
        "notice": "Calls every target with corresponding data. Then reverts with CALL_RESULTS_0101011 where zeroes and ones denote failure or success of the corresponding call"
      },
      "singlePrice(address,uint256,uint256)": {
        "notice": "Calculates price of token relative to oracle unit (ETH or USD)"
      },
      "timestampBelow(uint256)": {
        "notice": "Checks passed time against block timestamp"
      }
    },
    "version": 1
  },
  "storageLayout": {
    "storage": [
      {
        "astId": 5181,
        "contract": "contracts/LimitOrderProtocolPro.sol:LimitOrderProtocolPro",
        "label": "nonce",
        "offset": 0,
        "slot": "0",
        "type": "t_mapping(t_address,t_uint256)"
      },
      {
        "astId": 3378,
        "contract": "contracts/LimitOrderProtocolPro.sol:LimitOrderProtocolPro",
        "label": "_remaining",
        "offset": 0,
        "slot": "1",
        "type": "t_mapping(t_bytes32,t_uint256)"
      }
    ],
    "types": {
      "t_address": {
        "encoding": "inplace",
        "label": "address",
        "numberOfBytes": "20"
      },
      "t_bytes32": {
        "encoding": "inplace",
        "label": "bytes32",
        "numberOfBytes": "32"
      },
      "t_mapping(t_address,t_uint256)": {
        "encoding": "mapping",
        "key": "t_address",
        "label": "mapping(address => uint256)",
        "numberOfBytes": "32",
        "value": "t_uint256"
      },
      "t_mapping(t_bytes32,t_uint256)": {
        "encoding": "mapping",
        "key": "t_bytes32",
        "label": "mapping(bytes32 => uint256)",
        "numberOfBytes": "32",
        "value": "t_uint256"
      },
      "t_uint256": {
        "encoding": "inplace",
        "label": "uint256",
        "numberOfBytes": "32"
      }
    }
  }
}