{
  "address": "0x5E92d4021e49f9A2967b4EA1d20213B3A1c7c912",
  "abi": [
    {
      "inputs": [],
      "name": "isPriorityFeeValid",
      "outputs": [
        {
          "internalType": "bool",
          "name": "",
          "type": "bool"
        }
      ],
      "stateMutability": "view",
      "type": "function"
    }
  ],
  "transactionHash": "0x1d1ffe931a812a2af71af25b841f63ed6e2a24ee2cdf79eed1e4a2bd64d95c2c",
  "args": [],
  "numDeployments": 1,
  "solcInputHash": "6e7c6f92a69228f0d66327ee7f30987a",
  "bytecode": "0x608080604052346100155760de908161001b8239f35b600080fdfe6080806040526004361015601257600080fd5b600090813560e01c630202470814602857600080fd5b34606357817ffffffffffffffffffffffffffffffffffffffffffffffffffffffffffffffffc360112606357602090605d6067565b15158152f35b5080fd5b483a03640277cf2a0048106000146085576064604648029102111590565b64183cd7f100481015609b57489060011b111590565b606460414802910211159056fea2646970667358221220fe767365ecbf40522ecd1de1cb05111223125fde69ba80a98aa04be6f0c80f4b64736f6c63430008130033",
  "devdoc": {
    "kind": "dev",
    "methods": {},
    "title": "A helper contract for executing boolean functions on arbitrary target call results",
    "version": 1
  },
  "userdoc": {
    "kind": "user",
    "methods": {
      "isPriorityFeeValid()": {
        "notice": "Validates priority fee according to the spec https://snapshot.org/#/1inch.eth/proposal/0xa040c60050147a0f67042ae024673e92e813b5d2c0f748abf70ddfa1ed107cbe For blocks with baseFee <10.6 gwei – the priorityFee is capped at 70% of the baseFee. For blocks with baseFee between 10.6 gwei and 104.1 gwei – the priorityFee is capped at 50% of the baseFee. For blocks with baseFee >104.1 gwei – priorityFee is capped at 65% of the block’s baseFee."
      }
    },
    "version": 1
  },
  "storageLayout": {
    "storage": [],
    "types": null
  }
}