{
  "address": "0xA18651C2125B96E36220a7821B05F9C5431866DC",
  "abi": [
    {
      "inputs": [],
      "name": "ETHTransferFailed",
      "type": "error"
    },
    {
      "inputs": [
        {
          "internalType": "address",
          "name": "",
          "type": "address"
        },
        {
          "internalType": "address",
          "name": "",
          "type": "address"
        },
        {
          "internalType": "address",
          "name": "takerAsset",
          "type": "address"
        },
        {
          "internalType": "uint256",
          "name": "",
          "type": "uint256"
        },
        {
          "internalType": "uint256",
          "name": "takingAmount",
          "type": "uint256"
        },
        {
          "internalType": "bytes",
          "name": "interactiveData",
          "type": "bytes"
        }
      ],
      "name": "notifyFillOrder",
      "outputs": [],
      "stateMutability": "nonpayable",
      "type": "function"
    },
    {
      "stateMutability": "payable",
      "type": "receive"
    }
  ],
  "transactionHash": "0x0d3214bdfcb0198bec79d5dc86f0781a6df02ecd19c538d8a90425a494dcb8be",
  "args": [],
  "numDeployments": 1,
  "solcInputHash": "ceddbcb455f974c29172401feb03ff16",
  "bytecode": "0x608060405234801561001057600080fd5b50610239806100206000396000f3fe6080604052600436106100225760003560e01c8063cf21c7751461002e57600080fd5b3661002957005b600080fd5b34801561003a57600080fd5b506100e5600480360360c081101561005157600080fd5b73ffffffffffffffffffffffffffffffffffffffff8235811692602081013582169260408201359092169160608201359160808101359181019060c0810160a08201356401000000008111156100a657600080fd5b8201836020820111156100b857600080fd5b803590602001918460018302840111640100000000831117156100da57600080fd5b5090925090506100e7565b005b6000823560601c90508573ffffffffffffffffffffffffffffffffffffffff16632e1a7d4d856040518263ffffffff1660e01b815260040180828152602001915050600060405180830381600087803b15801561014357600080fd5b505af1158015610157573d6000803e3d6000fd5b50506040516000925073ffffffffffffffffffffffffffffffffffffffff8416915061138890879084818181858888f193505050503d80600081146101b8576040519150601f19603f3d011682016040523d82523d6000602084013e6101bd565b606091505b50509050806101f8576040517fb12d13eb00000000000000000000000000000000000000000000000000000000815260040160405180910390fd5b50505050505050505056fea2646970667358221220610fd34f5df2abd1d409c86937ec603e832107289b17c3fd0d3e2a21dbe6352b64736f6c63430008110033",
  "devdoc": {
    "kind": "dev",
    "methods": {},
    "version": 1
  },
  "userdoc": {
    "kind": "user",
    "methods": {},
    "version": 1
  },
  "storageLayout": {
    "storage": [],
    "types": null
  }
}