{
  "address": "0x40a04Ce49d9Ca7440726395C68Da990A3Bb19367",
  "abi": [
    {
      "inputs": [
        {
          "internalType": "contract IWhitelistRegistry",
          "name": "_whitelistRegistry",
          "type": "address"
        }
      ],
      "stateMutability": "nonpayable",
      "type": "constructor"
    },
    {
      "inputs": [],
      "name": "TakerIsNotWhitelisted",
      "type": "error"
    },
    {
      "inputs": [
        {
          "internalType": "address",
          "name": "taker",
          "type": "address"
        },
        {
          "internalType": "address",
          "name": "",
          "type": "address"
        },
        {
          "internalType": "address",
          "name": "",
          "type": "address"
        },
        {
          "internalType": "uint256",
          "name": "",
          "type": "uint256"
        },
        {
          "internalType": "uint256",
          "name": "",
          "type": "uint256"
        },
        {
          "internalType": "bytes",
          "name": "",
          "type": "bytes"
        }
      ],
      "name": "notifyFillOrder",
      "outputs": [],
      "stateMutability": "view",
      "type": "function"
    },
    {
      "inputs": [],
      "name": "whitelistRegistry",
      "outputs": [
        {
          "internalType": "contract IWhitelistRegistry",
          "name": "",
          "type": "address"
        }
      ],
      "stateMutability": "view",
      "type": "function"
    }
  ],
  "transactionHash": "0x32d30d74c0cc6ec22856350cb537c6664959f6f69f29f0b1869ea20b2f6e9da0",
  "args": [
    "0xFC0E24F6Fe4765C8996591F5D3E43b7060ABa83B"
  ],
  "numDeployments": 1,
  "solcInputHash": "c10e28d262c1ab685f621e99f77d59ab",
  "bytecode": "0x60a060405234801561001057600080fd5b506040516103db3803806103db83398101604081905261002f91610040565b6001600160a01b0316608052610070565b60006020828403121561005257600080fd5b81516001600160a01b038116811461006957600080fd5b9392505050565b60805161034b610090600039600081816055015260e5015261034b6000f3fe608060405234801561001057600080fd5b50600436106100365760003560e01c8063cf21c7751461003b578063ed95063814610050575b600080fd5b61004e6100493660046101e9565b6100a0565b005b6100777f000000000000000000000000000000000000000000000000000000000000000081565b60405173ffffffffffffffffffffffffffffffffffffffff909116815260200160405180910390f35b6040517f645b8b1b00000000000000000000000000000000000000000000000000000000815273ffffffffffffffffffffffffffffffffffffffff87811660048301527f0000000000000000000000000000000000000000000000000000000000000000169063645b8b1b90602401602060405180830381865afa15801561012c573d6000803e3d6000fd5b505050506040513d601f19601f8201168201806040525081019061015091906102fc565b600114610189576040517fff90872c00000000000000000000000000000000000000000000000000000000815260040160405180910390fd5b505050505050565b803573ffffffffffffffffffffffffffffffffffffffff811681146101b557600080fd5b919050565b7f4e487b7100000000000000000000000000000000000000000000000000000000600052604160045260246000fd5b60008060008060008060c0878903121561020257600080fd5b61020b87610191565b955061021960208801610191565b945061022760408801610191565b9350606087013592506080870135915060a087013567ffffffffffffffff8082111561025257600080fd5b818901915089601f83011261026657600080fd5b813581811115610278576102786101ba565b604051601f82017fffffffffffffffffffffffffffffffffffffffffffffffffffffffffffffffe0908116603f011681019083821181831017156102be576102be6101ba565b816040528281528c60208487010111156102d757600080fd5b8260208601602083013760006020848301015280955050505050509295509295509295565b60006020828403121561030e57600080fd5b505191905056fea2646970667358221220f64dd60815c7a8cf3bdf0fa9210517f0eaac08a43a938da8e19389ddc29ab8a764736f6c634300080b0033",
  "devdoc": {
    "kind": "dev",
    "methods": {},
    "version": 1
  },
  "userdoc": {
    "kind": "user",
    "methods": {},
    "version": 1
  },
  "storageLayout": {
    "storage": [],
    "types": null
  }
}