{
  "address": "0xe12E0f117d23a5ccc57f8935CD8c4E80cD91FF01",
  "abi": [
    {
      "inputs": [
        {
          "internalType": "contract IWETH",
          "name": "weth",
          "type": "address"
        },
        {
          "internalType": "address",
          "name": "limitOrderProtocol",
          "type": "address"
        },
        {
          "internalType": "contract IERC20",
          "name": "accessToken",
          "type": "address"
        },
        {
          "internalType": "uint256",
          "name": "cancellationDelay",
          "type": "uint256"
        },
        {
          "internalType": "string",
          "name": "name",
          "type": "string"
        },
        {
          "internalType": "string",
          "name": "version",
          "type": "string"
        }
      ],
      "stateMutability": "nonpayable",
      "type": "constructor"
    },
    {
      "inputs": [],
      "name": "ETHTransferFailed",
      "type": "error"
    },
    {
      "inputs": [],
      "name": "FailedDeployment",
      "type": "error"
    },
    {
      "inputs": [
        {
          "internalType": "uint256",
          "name": "balance",
          "type": "uint256"
        },
        {
          "internalType": "uint256",
          "name": "needed",
          "type": "uint256"
        }
      ],
      "name": "InsufficientBalance",
      "type": "error"
    },
    {
      "inputs": [
        {
          "internalType": "address",
          "name": "expected",
          "type": "address"
        },
        {
          "internalType": "address",
          "name": "actual",
          "type": "address"
        }
      ],
      "name": "OrderMakerShouldBeMsgSender",
      "type": "error"
    },
    {
      "inputs": [
        {
          "internalType": "uint256",
          "name": "expected",
          "type": "uint256"
        },
        {
          "internalType": "uint256",
          "name": "actual",
          "type": "uint256"
        }
      ],
      "name": "OrderMakingAmountShouldBeEqualToMsgValue",
      "type": "error"
    },
    {
      "inputs": [
        {
          "internalType": "address",
          "name": "receiver",
          "type": "address"
        }
      ],
      "name": "OrderReceiverShouldBeSetCorrectly",
      "type": "error"
    },
    {
      "inputs": [
        {
          "internalType": "address",
          "name": "owner",
          "type": "address"
        }
      ],
      "name": "OwnableInvalidOwner",
      "type": "error"
    },
    {
      "inputs": [
        {
          "internalType": "address",
          "name": "account",
          "type": "address"
        }
      ],
      "name": "OwnableUnauthorizedAccount",
      "type": "error"
    },
    {
      "inputs": [],
      "name": "SafeTransferFailed",
      "type": "error"
    },
    {
      "anonymous": false,
      "inputs": [
        {
          "indexed": false,
          "internalType": "address",
          "name": "maker",
          "type": "address"
        },
        {
          "indexed": false,
          "internalType": "bytes32",
          "name": "orderHash",
          "type": "bytes32"
        },
        {
          "indexed": false,
          "internalType": "address",
          "name": "clone",
          "type": "address"
        },
        {
          "indexed": false,
          "internalType": "uint256",
          "name": "value",
          "type": "uint256"
        }
      ],
      "name": "NativeOrderCreated",
      "type": "event"
    },
    {
      "anonymous": false,
      "inputs": [
        {
          "indexed": true,
          "internalType": "address",
          "name": "previousOwner",
          "type": "address"
        },
        {
          "indexed": true,
          "internalType": "address",
          "name": "newOwner",
          "type": "address"
        }
      ],
      "name": "OwnershipTransferred",
      "type": "event"
    },
    {
      "inputs": [],
      "name": "IMPLEMENTATION",
      "outputs": [
        {
          "internalType": "address",
          "name": "",
          "type": "address"
        }
      ],
      "stateMutability": "view",
      "type": "function"
    },
    {
      "inputs": [
        {
          "components": [
            {
              "internalType": "uint256",
              "name": "salt",
              "type": "uint256"
            },
            {
              "internalType": "Address",
              "name": "maker",
              "type": "uint256"
            },
            {
              "internalType": "Address",
              "name": "receiver",
              "type": "uint256"
            },
            {
              "internalType": "Address",
              "name": "makerAsset",
              "type": "uint256"
            },
            {
              "internalType": "Address",
              "name": "takerAsset",
              "type": "uint256"
            },
            {
              "internalType": "uint256",
              "name": "makingAmount",
              "type": "uint256"
            },
            {
              "internalType": "uint256",
              "name": "takingAmount",
              "type": "uint256"
            },
            {
              "internalType": "MakerTraits",
              "name": "makerTraits",
              "type": "uint256"
            }
          ],
          "internalType": "struct IOrderMixin.Order",
          "name": "makerOrder",
          "type": "tuple"
        }
      ],
      "name": "create",
      "outputs": [
        {
          "internalType": "address",
          "name": "clone",
          "type": "address"
        }
      ],
      "stateMutability": "payable",
      "type": "function"
    },
    {
      "inputs": [],
      "name": "owner",
      "outputs": [
        {
          "internalType": "address",
          "name": "",
          "type": "address"
        }
      ],
      "stateMutability": "view",
      "type": "function"
    },
    {
      "inputs": [],
      "name": "renounceOwnership",
      "outputs": [],
      "stateMutability": "nonpayable",
      "type": "function"
    },
    {
      "inputs": [
        {
          "internalType": "address",
          "name": "token",
          "type": "address"
        },
        {
          "internalType": "address",
          "name": "to",
          "type": "address"
        },
        {
          "internalType": "uint256",
          "name": "amount",
          "type": "uint256"
        }
      ],
      "name": "rescueFunds",
      "outputs": [],
      "stateMutability": "nonpayable",
      "type": "function"
    },
    {
      "inputs": [
        {
          "internalType": "address",
          "name": "newOwner",
          "type": "address"
        }
      ],
      "name": "transferOwnership",
      "outputs": [],
      "stateMutability": "nonpayable",
      "type": "function"
    }
  ],
  "transactionHash": "0x86123b9de0390f0db3aba8cfb2f5b723454b6f8751000bbadb5c91f650d850c5",
  "args": [
    "0x82aF49447D8a07e3bd95BD0d56f35241523fBab1",
    "0x111111125421ca6dc452d289314280a0f8842a65",
    "0xAcce5500000f71A32B5E5514D1577E14b7aacC4a",
    60,
    "1inch Aggregation Router",
    "6"
  ],
  "numDeployments": 1,
  "bytecode": "0x610160806040523461027d5761227e803803809161001d8285610281565b833981019060c08183031261027d5780516001600160a01b0381169081900361027d5760208201516001600160a01b038116929083810361027d5760408201516001600160a01b038116929083900361027d57606081015160808201519091906001600160401b03811161027d57876100979183016102c5565b60a08201519097906001600160401b03811161027d576100b792016102c5565b91331561026a575f8054336001600160a01b03198216811783556040519290916001600160a01b0316907f8be0079c531659141344cd1fd0a4f28419497f9722a3daafe3b4186f6b6457e09080a387516020890120918451602086012090610120528260c0528060e0524660a05260208201925f51602061225e5f395f51905f528452604083015260608201524660808201528660a082015260a0815261015f60c082610281565b5190206080525f51602061225e5f395f51905f5261010052604051956114ac808801949092906001600160401b038611898710176102565788976101dc976101ce95610db28b39875230602088015260408701526060860152608085015260e060a085015260e0840190610319565b9160c0818403910152610319565b03905ff0801561024b576001600160a01b031661014052604051610a73908161033f82396080518161094d015260a05181610927015260c0518161099c015260e051816109c20152610100518161097901526101205181610a030152610140518181816102bf01526108500152f35b6040513d5f823e3d90fd5b634e487b7160e01b5f52604160045260245ffd5b631e4fbdf760e01b5f525f60045260245ffd5b5f80fd5b601f909101601f19168101906001600160401b0382119082101761025657604052565b5f5b8381106102b55750505f910152565b81810151838201526020016102a6565b81601f8201121561027d5780516001600160401b03811161025657604051926102f8601f8301601f191660200185610281565b8184526020828401011161027d5761031691602080850191016102a4565b90565b90602091610332815180928185528580860191016102a4565b601f01601f191601019056fe6080806040526004361015610012575f80fd5b5f905f3560e01c9081633a4741bd14610808575080636ccae0541461062e578063715018a6146105945780638c72b608146101a15780638da5cb5b146101505763f2fde38b14610060575f80fd5b3461014d5760207ffffffffffffffffffffffffffffffffffffffffffffffffffffffffffffffffc36011261014d5773ffffffffffffffffffffffffffffffffffffffff6100ac610874565b6100b46108d8565b1680156101215773ffffffffffffffffffffffffffffffffffffffff8254827fffffffffffffffffffffffff00000000000000000000000000000000000000008216178455167f8be0079c531659141344cd1fd0a4f28419497f9722a3daafe3b4186f6b6457e08380a380f35b6024827f1e4fbdf700000000000000000000000000000000000000000000000000000000815280600452fd5b80fd5b503461014d57807ffffffffffffffffffffffffffffffffffffffffffffffffffffffffffffffffc36011261014d5773ffffffffffffffffffffffffffffffffffffffff6020915416604051908152f35b506101007ffffffffffffffffffffffffffffffffffffffffffffffffffffffffffffffffc3601126104d65773ffffffffffffffffffffffffffffffffffffffff60243516338103610565575060443573ffffffffffffffffffffffffffffffffffffffff81168015801561055c575b610531575060a4358034036105025773ffffffffffffffffffffffffffffffffffffffff6102ad610240610924565b6101206040517f3af21ec5a20011b88d3b7b4ed7c806cef05a5980cf34974bcd53566a131f7e4c8152610100600460208301372090604291604051917f19010000000000000000000000000000000000000000000000000000000000008352600283015260228201522090565b6e5af43d82803e903d91602b57fd5bf37f0000000000000000000000000000000000000000000000000000000000000000763d602d80600a3d3981f3363d3d373d3d3d363d7300000062ffffff8260881c16175f5260781b17602052603760095ff5169182156104da57823b156104d6576040517f501016d50000000000000000000000000000000000000000000000000000000081525f8160048134885af180156104cb576104b6575b506040519361010085019085821067ffffffffffffffff83111761048957506020947f283d7294adf3707552a0898f20486ec8259aa76a7911d7e12229462afe5d326893608093610469936040526004358352604083015260643560608301526084358483015260a082015260c43560c082015260e43560e082015284868201527fffffffffffffffffffffffffffffffffffffffffffffffffffffffffffffffe0610402610924565b91019081517f3af21ec5a20011b88d3b7b4ed7c806cef05a5980cf34974bcd53566a131f7e4c835261012083209252604291604051917f19010000000000000000000000000000000000000000000000000000000000008352600283015260228201522090565b6040519033825285820152836040820152346060820152a1604051908152f35b807f4e487b7100000000000000000000000000000000000000000000000000000000602492526041600452fd5b6104c39194505f90610897565b5f925f610358565b6040513d5f823e3d90fd5b5f80fd5b7fb06ebf3d000000000000000000000000000000000000000000000000000000005f5260045ffd5b7fa4864152000000000000000000000000000000000000000000000000000000005f526004523460245260445ffd5b7ffa4f3704000000000000000000000000000000000000000000000000000000005f5260045260245ffd5b50308114610211565b7f8b022b83000000000000000000000000000000000000000000000000000000005f523360045260245260445ffd5b346104d6575f7ffffffffffffffffffffffffffffffffffffffffffffffffffffffffffffffffc3601126104d6576105ca6108d8565b5f73ffffffffffffffffffffffffffffffffffffffff81547fffffffffffffffffffffffff000000000000000000000000000000000000000081168355167f8be0079c531659141344cd1fd0a4f28419497f9722a3daafe3b4186f6b6457e08280a3005b346104d65760607ffffffffffffffffffffffffffffffffffffffffffffffffffffffffffffffffc3601126104d657610665610874565b60243573ffffffffffffffffffffffffffffffffffffffff8116908181036104d65773ffffffffffffffffffffffffffffffffffffffff604435936106a86108d8565b1690816107705750505f80809381935af13d1561076b573d67ffffffffffffffff811161073e576040519061070560207fffffffffffffffffffffffffffffffffffffffffffffffffffffffffffffffe0601f8401160183610897565b81525f60203d92013e5b1561071657005b7fb12d13eb000000000000000000000000000000000000000000000000000000005f5260045ffd5b7f4e487b71000000000000000000000000000000000000000000000000000000005f52604160045260245ffd5b61070f565b602092506044905f9294604051917fa9059cbb0000000000000000000000000000000000000000000000000000000083526004830152602482015282855af190816107e6575b50156107be57005b7ffb7f5079000000000000000000000000000000000000000000000000000000005f5260045ffd5b90503d15610800575060015f5114601f3d11165b816107b6565b3b15156107fa565b346104d6575f7ffffffffffffffffffffffffffffffffffffffffffffffffffffffffffffffffc3601126104d65760209073ffffffffffffffffffffffffffffffffffffffff7f0000000000000000000000000000000000000000000000000000000000000000168152f35b6004359073ffffffffffffffffffffffffffffffffffffffff821682036104d657565b90601f7fffffffffffffffffffffffffffffffffffffffffffffffffffffffffffffffe0910116810190811067ffffffffffffffff82111761073e57604052565b73ffffffffffffffffffffffffffffffffffffffff5f541633036108f857565b7f118cdaa7000000000000000000000000000000000000000000000000000000005f523360045260245ffd5b467f00000000000000000000000000000000000000000000000000000000000000000361096f577f000000000000000000000000000000000000000000000000000000000000000090565b60405160208101907f000000000000000000000000000000000000000000000000000000000000000082527f000000000000000000000000000000000000000000000000000000000000000060408201527f0000000000000000000000000000000000000000000000000000000000000000606082015246608082015273ffffffffffffffffffffffffffffffffffffffff7f00000000000000000000000000000000000000000000000000000000000000001660a082015260a08152610a3760c082610897565b5190209056fea2646970667358221220c66dd09508b95306408fdd2d1497a5ffeb5381ec3a959e3b853ae8ffe1d97d9464736f6c634300081e00336102208060405234610202576114ac803803809161001d8285610206565b8339810160e0828203126102025781516001600160a01b0381168082036102025761004a6020850161023d565b916100576040860161023d565b6060860151949092906001600160a01b038616860361020257608087015160a08801519097906001600160401b0381116102025782610097918301610251565b60c08201519092906001600160401b038111610202576100b79201610251565b9060208151910120906020815191012084610120528160c0528060e0524660a0526040519060208201925f51602061148c5f395f51905f5284526040830152606082015246608082015260018060a01b03851660a082015260a0815261011e60c082610206565b5190206080525f51602061148c5f395f51905f526101005261014052306101a05261016052610180526101c0526101e052610200526040516111cd90816102bf823960805181611043015260a0518161101d015260c05181611092015260e051816110b80152610100518161106f015261012051816110f901526101405181602f01526101605181818161030b0152818161050401526107680152610180518161037301526101a051818181610d2a0152610f2b01526101c0518181816102e201528181610cee0152610eef01526101e051816106b0015261020051816108f90152f35b5f80fd5b601f909101601f19168101906001600160401b0382119082101761022957604052565b634e487b7160e01b5f52604160045260245ffd5b51906001600160a01b038216820361020257565b81601f82011215610202578051906001600160401b0382116102295760405192610285601f8401601f191660200185610206565b82845260208383010111610202575f5b8281106102a957505060205f918301015290565b8060208092840101518282870101520161029556fe6080604052600436101561007f575b3615610018575f80fd5b73ffffffffffffffffffffffffffffffffffffffff7f000000000000000000000000000000000000000000000000000000000000000016330361005757005b7f1b10b0f9000000000000000000000000000000000000000000000000000000005f5260045ffd5b5f3560e01c80631626ba7e14610a745780631b75972c1461065c5780633a0918531461048c578063501016d5146102a25763dae3356b0361000e573461029e577ffffffffffffffffffffffffffffffffffffffffffffffffffffffffffffffffc3601610160811261029e576101001361029e576101043573ffffffffffffffffffffffffffffffffffffffff8116810361029e57610144359067ffffffffffffffff821161029e573660238301121561029e57816004013561014181610ba6565b9061014f6040519283610b65565b8082526020820193366024838301011161029e57815f9260246020930187378301015273ffffffffffffffffffffffffffffffffffffffff61018f610e58565b1630810361026f575073ffffffffffffffffffffffffffffffffffffffff60243516803303610240575f80848685519161012435905af16101ce610e29565b604051911515825260406020830152818151918260408301525f5b8381106102285750507fffffffffffffffffffffffffffffffffffffffffffffffffffffffffffffffe0601f835f606080968601015201168101030190f35b602082820181015160608784010152859350016101e9565b7f99516c0e000000000000000000000000000000000000000000000000000000005f523360045260245260445ffd5b7f41b9adfc000000000000000000000000000000000000000000000000000000005f526004523060245260445ffd5b5f80fd5b5f7ffffffffffffffffffffffffffffffffffffffffffffffffffffffffffffffffc36011261029e5773ffffffffffffffffffffffffffffffffffffffff7f00000000000000000000000000000000000000000000000000000000000000001680330361045d577f00000000000000000000000000000000000000000000000000000000000000007fd0e30db0000000000000000000000000000000000000000000000000000000005f525f8060048134855af1156104525773ffffffffffffffffffffffffffffffffffffffff167f00000000000000000000000000000000000000000000000000000000000000009061039e348383611133565b156103a557005b60205f60446040517f095ea7b300000000000000000000000000000000000000000000000000000000815285600482015282602482015282855af180610433575b1591821561041f575b50506103f757005b7f19be9a90000000000000000000000000000000000000000000000000000000005f5260045ffd5b61042b92503491611133565b1581806103ef565b503d156104495760015f5114601f3d11166103e6565b803b15156103e6565b6040513d5f823e3d90fd5b7f1f71d67d000000000000000000000000000000000000000000000000000000005f523360045260245260445ffd5b3461029e576101007ffffffffffffffffffffffffffffffffffffffffffffffffffffffffffffffffc36011261029e5773ffffffffffffffffffffffffffffffffffffffff602435168033036102405773ffffffffffffffffffffffffffffffffffffffff6104f9610e58565b1630810361026f57507f0000000000000000000000000000000000000000000000000000000000000000907f70a08231000000000000000000000000000000000000000000000000000000005f523060045260205f60248173ffffffffffffffffffffffffffffffffffffffff86165afa5f5192901560203d1017610452578215610634575f6024818080947f2e1a7d4d000000000000000000000000000000000000000000000000000000008252876004525af115610452575f80808481945af16105c3610e29565b501561060c5760407f84d669b9ea8666709ee6bd1b617534aac0106acfa94c9364a322a36b5a6362eb916105fe6105f936610be0565b610f7d565b9082519182526020820152a1005b7fb12d13eb000000000000000000000000000000000000000000000000000000005f5260045ffd5b7fce268e60000000000000000000000000000000000000000000000000000000005f5260045ffd5b3461029e577ffffffffffffffffffffffffffffffffffffffffffffffffffffffffffffffffc3601610120811261029e576101001361029e576101043573ffffffffffffffffffffffffffffffffffffffff7f0000000000000000000000000000000000000000000000000000000000000000166040517f70a08231000000000000000000000000000000000000000000000000000000008152336004820152602081602481855afa908115610452575f91610a42575b5015610a13575073ffffffffffffffffffffffffffffffffffffffff610737610e58565b1630810361026f575064ffffffffff60e43560501c169081151580610a0a575b156109da575f91816108e9575b50507f0000000000000000000000000000000000000000000000000000000000000000907f70a08231000000000000000000000000000000000000000000000000000000005f523060045260205f60248173ffffffffffffffffffffffffffffffffffffffff86165afa5f51901560203d10176104525780928115610634575f6024818080947f2e1a7d4d000000000000000000000000000000000000000000000000000000008252866004525af11561045257816108bf575b508161086a575b7f22770c588cf5c5f476664dc9b7c78816ad26f3d653e290d5a4f0053f015ae9ea916060916108566105f936610be0565b9160405192835260208301526040820152a1005b5f8080808573ffffffffffffffffffffffffffffffffffffffff602435165af1610892610e29565b50610825577fb12d13eb000000000000000000000000000000000000000000000000000000005f5260045ffd5b819250906108cc91610e1c565b905f80808084335af16108dd610e29565b501561060c578261081e565b9091506108f68142610e1c565b907f00000000000000000000000000000000000000000000000000000000000000008092106109a25750506201117048024881046201117014481517156109755769104e2da94483f6200000480290808204670f43fc2c04ee0000149015171561097557670de0b6b3a764000090049081808210911802188180610764565b7f4e487b71000000000000000000000000000000000000000000000000000000005f52601160045260245ffd5b6109ac9042610e1c565b7f2e00a366000000000000000000000000000000000000000000000000000000005f5260045260245260445ffd5b507ff0c82d23000000000000000000000000000000000000000000000000000000005f524260045260245260445ffd5b50428210610757565b7fd3445e80000000000000000000000000000000000000000000000000000000005f523360045260245260445ffd5b90506020813d602011610a6c575b81610a5d60209383610b65565b8101031261029e575183610713565b3d9150610a50565b3461029e5760407ffffffffffffffffffffffffffffffffffffffffffffffffffffffffffffffffc36011261029e5760243567ffffffffffffffff811161029e573660238201121561029e57806004013567ffffffffffffffff811161029e57602436918301011161029e57610af1602460209201600435610c57565b7fffffffff0000000000000000000000000000000000000000000000000000000060405191168152f35b610100810190811067ffffffffffffffff821117610b3857604052565b7f4e487b71000000000000000000000000000000000000000000000000000000005f52604160045260245ffd5b90601f7fffffffffffffffffffffffffffffffffffffffffffffffffffffffffffffffe0910116810190811067ffffffffffffffff821117610b3857604052565b67ffffffffffffffff8111610b3857601f017fffffffffffffffffffffffffffffffffffffffffffffffffffffffffffffffe01660200190565b7ffffffffffffffffffffffffffffffffffffffffffffffffffffffffffffffffc61010091011261029e5760405190610c1882610b1b565b6004358252602435602083015260443560408301526064356060830152608435608083015260a43560a083015260c43560c083015260e43560e0830152565b9073ffffffffffffffffffffffffffffffffffffffff60556043610ce8610c7c61101a565b6101206040517f3af21ec5a20011b88d3b7b4ed7c806cef05a5980cf34974bcd53566a131f7e4c81526101008860208301372090604291604051917f19010000000000000000000000000000000000000000000000000000000000008352600283015260228201522090565b604051907f000000000000000000000000000000000000000000000000000000000000000060388301526f5af43d82803e903d91602b57fd5bf3ff60248301527f00000000000000000000000000000000000000000000000000000000000000006014830152733d602d80600a3d3981f3363d3d373d3d3d363d73825260588201526037600c82012060788201520120163003610e16576101008136031261029e57610de99060e060405191610d9d83610b1b565b803583526020810135602084015260408101356040840152606081013560608401526080810135608084015260a081013560a084015260c081013560c0840152013560e0820152610f7d565b03610e12577f1626ba7e0000000000000000000000000000000000000000000000000000000090565b5f90565b50505f90565b9190820391821161097557565b3d15610e53573d90610e3a82610ba6565b91610e486040519384610b65565b82523d5f602084013e565b606090565b73ffffffffffffffffffffffffffffffffffffffff60556043610ee9610e7c61101a565b6101206040517f3af21ec5a20011b88d3b7b4ed7c806cef05a5980cf34974bcd53566a131f7e4c8152610100600460208301372090604291604051917f19010000000000000000000000000000000000000000000000000000000000008352600283015260228201522090565b604051907f000000000000000000000000000000000000000000000000000000000000000060388301526f5af43d82803e903d91602b57fd5bf3ff60248301527f00000000000000000000000000000000000000000000000000000000000000006014830152733d602d80600a3d3981f3363d3d373d3d3d363d73825260588201526037600c820120607882015201201690565b611017903060208201527fffffffffffffffffffffffffffffffffffffffffffffffffffffffffffffffe0610fb061101a565b91019081517f3af21ec5a20011b88d3b7b4ed7c806cef05a5980cf34974bcd53566a131f7e4c835261012083209252604291604051917f19010000000000000000000000000000000000000000000000000000000000008352600283015260228201522090565b90565b467f000000000000000000000000000000000000000000000000000000000000000003611065577f000000000000000000000000000000000000000000000000000000000000000090565b60405160208101907f000000000000000000000000000000000000000000000000000000000000000082527f000000000000000000000000000000000000000000000000000000000000000060408201527f0000000000000000000000000000000000000000000000000000000000000000606082015246608082015273ffffffffffffffffffffffffffffffffffffffff7f00000000000000000000000000000000000000000000000000000000000000001660a082015260a0815261112d60c082610b65565b51902090565b929160446020925f92604051917f095ea7b30000000000000000000000000000000000000000000000000000000083526004830152602482015282865af1918261117a5750565b9091503d15611191575060015f5114601f3d111690565b3b15159056fea2646970667358221220d1dd272108828d3842dc77c02ad902979c987106e811d3fbc76a59e1c8f38bbd64736f6c634300081e00338b73c3c69bb8fe3d512ecc4cf759cc79239f7b179b0ffacaa9a75d522b39400f8b73c3c69bb8fe3d512ecc4cf759cc79239f7b179b0ffacaa9a75d522b39400f"
}