{
  "address": "0x370De82413251A9d204DCEAB50dB2d7ec3Bd1769",
  "abi": [
    {
      "inputs": [
        {
          "internalType": "contract IOrderMixin",
          "name": "limitOrderProtocol",
          "type": "address"
        },
        {
          "internalType": "contract IOrderRegistrator",
          "name": "orderRegistrator",
          "type": "address"
        }
      ],
      "stateMutability": "nonpayable",
      "type": "constructor"
    },
    {
      "inputs": [],
      "name": "MathOverflowedMulDiv",
      "type": "error"
    },
    {
      "inputs": [],
      "name": "StaleOraclePrice",
      "type": "error"
    },
    {
      "inputs": [
        {
          "components": [
            {
              "internalType": "uint256",
              "name": "salt",
              "type": "uint256"
            },
            {
              "internalType": "Address",
              "name": "maker",
              "type": "uint256"
            },
            {
              "internalType": "Address",
              "name": "receiver",
              "type": "uint256"
            },
            {
              "internalType": "Address",
              "name": "makerAsset",
              "type": "uint256"
            },
            {
              "internalType": "Address",
              "name": "takerAsset",
              "type": "uint256"
            },
            {
              "internalType": "uint256",
              "name": "makingAmount",
              "type": "uint256"
            },
            {
              "internalType": "uint256",
              "name": "takingAmount",
              "type": "uint256"
            },
            {
              "internalType": "MakerTraits",
              "name": "makerTraits",
              "type": "uint256"
            }
          ],
          "internalType": "struct IOrderMixin.Order",
          "name": "order",
          "type": "tuple"
        },
        {
          "internalType": "bytes",
          "name": "extension",
          "type": "bytes"
        },
        {
          "components": [
            {
              "internalType": "contract AggregatorV3Interface",
              "name": "oracle",
              "type": "address"
            },
            {
              "internalType": "uint256",
              "name": "originalAnswer",
              "type": "uint256"
            },
            {
              "internalType": "uint256",
              "name": "ttl",
              "type": "uint256"
            }
          ],
          "internalType": "struct SafeOrderBuilder.OracleQueryParams",
          "name": "makerAssetOracleParams",
          "type": "tuple"
        },
        {
          "components": [
            {
              "internalType": "contract AggregatorV3Interface",
              "name": "oracle",
              "type": "address"
            },
            {
              "internalType": "uint256",
              "name": "originalAnswer",
              "type": "uint256"
            },
            {
              "internalType": "uint256",
              "name": "ttl",
              "type": "uint256"
            }
          ],
          "internalType": "struct SafeOrderBuilder.OracleQueryParams",
          "name": "takerAssetOracleParams",
          "type": "tuple"
        }
      ],
      "name": "buildAndSignOrder",
      "outputs": [],
      "stateMutability": "nonpayable",
      "type": "function"
    }
  ],
  "transactionHash": "0xc9c259984ef09f741e073b6866245b3985ca4ad6ad1bec82b953774074a9229d",
  "args": [
    "0x111111125421ca6dc452d289314280a0f8842a65",
    "0x2339f78e2Ec15C47Cf042F2460C532C0D7ff1CCE"
  ],
  "numDeployments": 1,
  "bytecode": "0x60c03461008557601f6109d738819003918201601f19168301916001600160401b038311848410176100895780849260409485528339810103126100855780516001600160a01b03918282168203610085576020015191821682036100855760805260a052604051610939908161009e8239608051816102ac015260a051816104100152f35b5f80fd5b634e487b7160e01b5f52604160045260245ffdfe608060049081361015610010575f80fd5b5f915f3560e01c6371db203814610025575f80fd5b34610563577ffffffffffffffffffffffffffffffffffffffffffffffffffffffffffffffffc36016101e081126105635761010080911261056357820167ffffffffffffffff91838210838311176106ec57604091825280358452602490602093823585870152604435848701526064356060870152608435608087015260a09560a4358782015260c0810160c435815260e43560e083015261010496873592848411610563573660238501121561056357838601359285841161056357368885870101116105635760607ffffffffffffffffffffffffffffffffffffffffffffffffffffffffffffffedc3601126105635760607ffffffffffffffffffffffffffffffffffffffffffffffffffffffffffffffe7c36011261056357610124359273ffffffffffffffffffffffffffffffffffffffff90818516809503610563578a518d818b817ffeaf968c00000000000000000000000000000000000000000000000000000000998a82525afa90811561063057908e915f925f926106c4575b50506101b79061016435906107d2565b421161069c5783516101cd91610144359161080c565b835261018492833595838716809703610563578e908b8e518099819382525afa95861561063057908e9392915f945f98610662575b50506101c49661021542918935906107d2565b1061063a5761022c8151946101a49586359061080c565b9052808c51809e7f802b2ef10000000000000000000000000000000000000000000000000000000082526102a88d83018960e08091805184526020810151602085015260408101516040850152606081015160608501526080810151608085015260a081015160a085015260c081015160c08501520151910152565b81857f0000000000000000000000000000000000000000000000000000000000000000165afa9c8d15610630575f9d6105f7575b508b9c9d8c98999a9b9c519e8f99838b01918252838b528a01998a108c8b11176105cc57908f8f928b8452815190209260608201937f60b3cbf8b4a223d68d641b3b6ddf9a298e7f33710cf3d3a9d1146b5a6150fbca855260808301528b520198808a108c8b11176105cc57898f52519020977ff698da2500000000000000000000000000000000000000000000000000000000815281818d81305afa9e8f156105c2575f9f610592575b50508c519d8e98828a01917f190000000000000000000000000000000000000000000000000000000000000083527f010000000000000000000000000000000000000000000000000000000000000060218c015260228b015260428a015260428952608089019e8f9b8c119b108b1761056757906007918f8f52895190205f525260018c5f20557f00000000000000000000000000000000000000000000000000000000000000001694853b15610563575f978d977fffffffffffffffffffffffffffffffffffffffffffffffffffffffffffffffe0601f848f958d9996818e9c6104e18d9a8f7fdfcb3e3400000000000000000000000000000000000000000000000000000000905260848a019060e08091805184526020810151602085015260408101516040850152606081015160608501526080810151608085015260a081015160a085015260c081015160c08501520151910152565b6101408c8901528701526101e4960186860137858582860101520116810190808203946101608601910152015201925af1801561055957610520578580f35b90919293945061052f57505052005b6041907f4e487b71000000000000000000000000000000000000000000000000000000005f52525ffd5b84513d5f823e3d90fd5b5f80fd5b8c60418d7f4e487b71000000000000000000000000000000000000000000000000000000005f52525ffd5b829f508291923d83116105bb575b6105aa8185610718565b8101031261056357519c5f80610387565b503d6105a0565b8e513d5f823e3d90fd5b8d60418e7f4e487b71000000000000000000000000000000000000000000000000000000005f52525ffd5b9798999a9b9c508088813d8311610629575b6106138183610718565b81010312610563578c97519c9b9a9998976102dc565b503d610609565b8c513d5f823e3d90fd5b8a8d517fa887f2d8000000000000000000000000000000000000000000000000000000008152fd5b8091929850610687939550903d10610695575b61067f8183610718565b81019061079d565b509492505092955f8f610202565b503d610675565b898c517fa887f2d8000000000000000000000000000000000000000000000000000000008152fd5b6101b793506106df9250803d106106955761067f8183610718565b509392505091908f6101a7565b6041907f4e487b71000000000000000000000000000000000000000000000000000000005f525260245ffd5b90601f7fffffffffffffffffffffffffffffffffffffffffffffffffffffffffffffffe0910116810190811067ffffffffffffffff82111761075957604052565b7f4e487b71000000000000000000000000000000000000000000000000000000005f52604160045260245ffd5b519069ffffffffffffffffffff8216820361056357565b908160a0910312610563576107b181610786565b916020820151916040810151916107cf608060608401519301610786565b90565b919082018092116107df57565b7f4e487b71000000000000000000000000000000000000000000000000000000005f52601160045260245ffd5b9091828202917fffffffffffffffffffffffffffffffffffffffffffffffffffffffffffffffff848209938380861095039480860395146108c8578483111561089e57829109815f038216809204600280826003021880830282030280830282030280830282030280830282030280830282030280920290030293600183805f03040190848311900302920304170290565b60046040517f227bc153000000000000000000000000000000000000000000000000000000008152fd5b5050809250156108d6570490565b7f4e487b71000000000000000000000000000000000000000000000000000000005f52601260045260245ffdfea264697066735822122038777de989b7a42c28bbd0884282b535c3965b1c22962a51d77dce47ca52061f64736f6c63430008170033"
}